{
  "_format": "hh-sol-artifact-1",
  "contractName": "Quoter",
  "sourceName": "contracts/periphery/lens/Quoter.sol",
  "abi": [
    {
      "inputs": [
        {
          "internalType": "address",
          "name": "_hub",
          "type": "address"
        }
      ],
      "stateMutability": "nonpayable",
      "type": "constructor"
    },
    {
      "inputs": [],
      "name": "InvalidAmount",
      "type": "error"
    },
    {
      "inputs": [],
      "name": "InvalidSwapPath",
      "type": "error"
    },
    {
      "inputs": [],
      "name": "InvalidTierChoices",
      "type": "error"
    },
    {
      "inputs": [],
      "name": "NotEnoughIntermediateOutput",
      "type": "error"
    },
    {
      "inputs": [],
      "name": "hub",
      "outputs": [
        {
          "internalType": "contract IMuffinHub",
          "name": "",
          "type": "address"
        }
      ],
      "stateMutability": "view",
      "type": "function"
    },
    {
      "inputs": [
        {
          "internalType": "bytes",
          "name": "path",
          "type": "bytes"
        },
        {
          "internalType": "int256",
          "name": "amountDesired",
          "type": "int256"
        }
      ],
      "name": "quote",
      "outputs": [
        {
          "internalType": "uint256",
          "name": "amountIn",
          "type": "uint256"
        },
        {
          "internalType": "uint256",
          "name": "amountOut",
          "type": "uint256"
        },
        {
          "internalType": "uint256",
          "name": "gasUsed",
          "type": "uint256"
        }
      ],
      "stateMutability": "nonpayable",
      "type": "function"
    },
    {
      "inputs": [
        {
          "internalType": "address",
          "name": "tokenIn",
          "type": "address"
        },
        {
          "internalType": "address",
          "name": "tokenOut",
          "type": "address"
        },
        {
          "internalType": "uint256",
          "name": "tierChoices",
          "type": "uint256"
        },
        {
          "internalType": "int256",
          "name": "amountDesired",
          "type": "int256"
        }
      ],
      "name": "quoteSingle",
      "outputs": [
        {
          "internalType": "uint256",
          "name": "amountIn",
          "type": "uint256"
        },
        {
          "internalType": "uint256",
          "name": "amountOut",
          "type": "uint256"
        },
        {
          "internalType": "uint256",
          "name": "gasUsed",
          "type": "uint256"
        }
      ],
      "stateMutability": "nonpayable",
      "type": "function"
    },
    {
      "inputs": [
        {
          "internalType": "bytes",
          "name": "path",
          "type": "bytes"
        },
        {
          "internalType": "int256",
          "name": "amountDesired",
          "type": "int256"
        }
      ],
      "name": "simulate",
      "outputs": [
        {
          "internalType": "uint256",
          "name": "amountIn",
          "type": "uint256"
        },
        {
          "internalType": "uint256",
          "name": "amountOut",
          "type": "uint256"
        },
        {
          "components": [
            {
              "internalType": "uint256",
              "name": "amountIn",
              "type": "uint256"
            },
            {
              "internalType": "uint256",
              "name": "amountOut",
              "type": "uint256"
            },
            {
              "internalType": "uint256",
              "name": "protocolFeeAmt",
              "type": "uint256"
            },
            {
              "internalType": "uint256[]",
              "name": "tierAmountsIn",
              "type": "uint256[]"
            },
            {
              "internalType": "uint256[]",
              "name": "tierData",
              "type": "uint256[]"
            }
          ],
          "internalType": "struct Quoter.Hop[]",
          "name": "hops",
          "type": "tuple[]"
        }
      ],
      "stateMutability": "view",
      "type": "function"
    },
    {
      "inputs": [
        {
          "internalType": "address",
          "name": "tokenIn",
          "type": "address"
        },
        {
          "internalType": "address",
          "name": "tokenOut",
          "type": "address"
        },
        {
          "internalType": "uint256",
          "name": "tierChoices",
          "type": "uint256"
        },
        {
          "internalType": "int256",
          "name": "amountDesired",
          "type": "int256"
        }
      ],
      "name": "simulateSingle",
      "outputs": [
        {
          "components": [
            {
              "internalType": "uint256",
              "name": "amountIn",
              "type": "uint256"
            },
            {
              "internalType": "uint256",
              "name": "amountOut",
              "type": "uint256"
            },
            {
              "internalType": "uint256",
              "name": "protocolFeeAmt",
              "type": "uint256"
            },
            {
              "internalType": "uint256[]",
              "name": "tierAmountsIn",
              "type": "uint256[]"
            },
            {
              "internalType": "uint256[]",
              "name": "tierData",
              "type": "uint256[]"
            }
          ],
          "internalType": "struct Quoter.Hop",
          "name": "hop",
          "type": "tuple"
        }
      ],
      "stateMutability": "view",
      "type": "function"
    },
    {
      "inputs": [
        {
          "internalType": "address",
          "name": "",
          "type": "address"
        },
        {
          "internalType": "address",
          "name": "",
          "type": "address"
        },
        {
          "internalType": "uint256",
          "name": "amountIn",
          "type": "uint256"
        },
        {
          "internalType": "uint256",
          "name": "amountOut",
          "type": "uint256"
        },
        {
          "internalType": "bytes",
          "name": "",
          "type": "bytes"
        }
      ],
      "name": "swapCallback",
      "outputs": [],
      "stateMutability": "pure",
      "type": "function"
    }
  ],
  "bytecode": "0x60a06040523480156200001157600080fd5b5060405162003a0938038062003a09833981016040819052620000349162000046565b6001600160a01b031660805262000078565b6000602082840312156200005957600080fd5b81516001600160a01b03811681146200007157600080fd5b9392505050565b608051613953620000b66000396000818160af0152818161016b015281816107c401528181610afb01528181610d02015261188701526139536000f3fe608060405234801561001057600080fd5b50600436106100725760003560e01c806345fc75ad1161005057806345fc75ad1461011857806392d31cd41461012d578063a7aa8dd91461014057600080fd5b80630d75172414610077578063365a86fc146100aa57806343ba86f9146100f6575b600080fd5b61008a610085366004613007565b610160565b604080519384526020840192909252908201526060015b60405180910390f35b6100d17f000000000000000000000000000000000000000000000000000000000000000081565b60405173ffffffffffffffffffffffffffffffffffffffff90911681526020016100a1565b610109610104366004613007565b6102ec565b6040516100a1939291906130da565b61012b610126366004613192565b610790565b005b61008a61013b36600461320a565b6107a4565b61015361014e36600461320a565b6108de565b6040516100a1919061324c565b6000806000805a90507f000000000000000000000000000000000000000000000000000000000000000073ffffffffffffffffffffffffffffffffffffffff1663c6883ec56040518060c001604052808a8a8080601f016020809104026020016040519081016040528093929190818152602001838380828437600092018290525093855250505060208083018b90523060408085019190915260608401839052608084018390528051928352908201815260a090920152517fffffffff0000000000000000000000000000000000000000000000000000000060e084901b16815261024f91906004016132db565b60408051808303816000875af1925050508015610289575060408051601f3d908101601f1916820190925261028691810190613352565b60015b6102df573d8080156102b7576040519150601f19603f3d011682016040523d82523d6000602084013e6102bc565b606091505b505a6102c890836133a5565b92506102d381610a09565b90955093506102e29050565b50505b5093509350939050565b600080606061033086868080601f016020809104026020016040519081016040528093929190818152602001838380828437600092019190915250610a3b92505050565b15610367576040517f3378279300000000000000000000000000000000000000000000000000000000815260040160405180910390fd5b6000808513905060006103af88888080601f016020809104026020016040519081016040528093929190818152602001838380828437600092019190915250610a6792505050565b67ffffffffffffffff8111156103c7576103c761325f565b6040519080825280602002602001820160405280156103f0578160200160208202803683370190505b509050805167ffffffffffffffff81111561040d5761040d61325f565b60405190808252806020026020018201604052801561047057816020015b61045d6040518060a0016040528060008152602001600081526020016000815260200160608152602001606081525090565b81526020019060019003908161042b5790505b5092508560005b82518110156106fa5760008060006104ca84888f8f8080601f016020809104026020016040519081016040528093929190818152602001838380828437600092019190915250929493925050610a849050565b9250925092508173ffffffffffffffffffffffffffffffffffffffff168373ffffffffffffffffffffffffffffffffffffffff161061054b576040805173ffffffffffffffffffffffffffffffffffffffff80851660208301528516918101919091526060016040516020818303038152906040528051906020012061058f565b6040805173ffffffffffffffffffffffffffffffffffffffff8086166020830152841691810191909152606001604051602081830303815290604052805190602001205b8685815181106105a1576105a16133bc565b6020026020010181815250506106218685815181106105c2576105c26133bc565b60200260200101518373ffffffffffffffffffffffffffffffffffffffff168573ffffffffffffffffffffffffffffffffffffffff1610151560008813151514898061060c575086155b610619576064880361061b565b875b84610ac2565b888581518110610633576106336133bc565b6020026020010181905250600080898681518110610653576106536133bc565b6020026020010151600001518a8781518110610671576106716133bc565b602002602001015160200151915091508815610698578561069057819b505b8096506106e9565b856106a557809a506106e2565b866000038110156106e2576040517f4b5f1a1e00000000000000000000000000000000000000000000000000000000815260040160405180910390fd5b8160000396505b505060019093019250610477915050565b50821561070957809450610710565b8060000395505b5061071a81610f17565b15610785576040517f08c379a000000000000000000000000000000000000000000000000000000000815260206004820152600d60248201527f504f4f4c5f524550454154454400000000000000000000000000000000000000604482015260640160405180910390fd5b505093509350939050565b604051846000820152836020820152604081fd5b6000806000805a905073ffffffffffffffffffffffffffffffffffffffff7f000000000000000000000000000000000000000000000000000000000000000016632ec31fbc8989898930600080806040519080825280601f01601f19166020018201604052801561081c576020820181803683370190505b506040518963ffffffff1660e01b81526004016108409897969594939291906133eb565b60408051808303816000875af192505050801561087a575060408051601f3d908101601f1916820190925261087791810190613352565b60015b6108d0573d8080156108a8576040519150601f19603f3d011682016040523d82523d6000602084013e6108ad565b606091505b505a6108b990836133a5565b92506108c481610a09565b90955093506108d39050565b50505b509450945094915050565b6109106040518060a0016040528060008152602001600081526020016000815260200160608152602001606081525090565b60008473ffffffffffffffffffffffffffffffffffffffff168673ffffffffffffffffffffffffffffffffffffffff161061098d576040805173ffffffffffffffffffffffffffffffffffffffff8088166020830152881691810191909152606001604051602081830303815290604052805190602001206109d1565b6040805173ffffffffffffffffffffffffffffffffffffffff8089166020830152871691810191909152606001604051602081830303815290604052805190602001205b90506109ff816000851373ffffffffffffffffffffffffffffffffffffffff808916908a1610148587610ac2565b9695505050505050565b600080825160401415610a335782806020019051810190610a2a9190613352565b91509150915091565b825183602001fd5b600061151482511180610a6157506015601483510381610a5d57610a5d613454565b0615155b92915050565b60006015601483510381610a7d57610a7d613454565b0492915050565b6000808060158502610a998782016014015190565b8782016029810151601590910151919550935060ff169150846102e25750909591945092509050565b610af46040518060a0016040528060008152602001600081526020016000815260200160608152602001606081525090565b60008060007f000000000000000000000000000000000000000000000000000000000000000073ffffffffffffffffffffffffffffffffffffffff166335d603f5896040518263ffffffff1660e01b8152600401610b5491815260200190565b600060405180830381865afa158015610b71573d6000803e3d6000fd5b505050506040513d6000823e601f3d908101601f19168201604052610b99919081019061354e565b9050610ba3612f61565b861580610bcf57507f7fffffffffffffffffffffffffffffffffffffffffffffffffffffffffffffff87145b15610c06576040517f2c5211c600000000000000000000000000000000000000000000000000000000815260040160405180910390fd5b603f861180610c1f5750600182516001901b0386166000145b15610c56576040517fd2a0a82900000000000000000000000000000000000000000000000000000000815260040160405180910390fd5b6040805160e0810182526000808a138b1515811483526020808401919091528284018290526060808401839052608080850184905285518087018752627fffff815280840185905260a080870191909152865160c0808201895286825294810186905280880186905292830185905290820184905281019290925282015290517faa5976c1000000000000000000000000000000000000000000000000000000008152600481018b90527f000000000000000000000000000000000000000000000000000000000000000073ffffffffffffffffffffffffffffffffffffffff169063aa5976c1906024016040805180830381865afa158015610d5d573d6000803e3d6000fd5b505050506040513d601f19601f82011682018060405250810190610d8191906136ae565b60ff166040830152505b60008813610dad57610da8838a610da2888c6136e1565b8a610f85565b610dc2565b610dc2838a610dbc888c6136e1565b8a611235565b60c082015260005b8351811015610e4557600080610e138d8d86888760068110610dee57610dee6133bc565b60200201518a8881518110610e0557610e056133bc565b6020026020010151886115b8565b9092509050610e228289613755565b9750610e2e8188613755565b965050508080610e3d906137c9565b915050610dca565b506000610e52868a6136e1565b905060008913610e85577fffffffffffffffffffffffffffffffffffffffffffffffffffffffffffffff9c811215610e8b565b60648113155b80610ea35750600184516001901b0388168260800151145b15610eae5750610eb4565b50610d8b565b60608101516040870152610ed7828460008b13610ed157866119e6565b876119e6565b6080880152606087015260008813610ef85783610ef3866137e4565b610f02565b84610f02856137e4565b60208801528652509398975050505050505050565b6000610f2282611ba7565b60015b8251811015610f7c57828181518110610f4057610f406133bc565b6020026020010151836001830381518110610f5d57610f5d6133bc565b60200260200101511415610f745750600192915050565b600101610f25565b50600092915050565b610f8d612fa0565b60008312610f9d57610f9d61381d565b610fa5612fa0565b610fad612fa0565b60008060005b89518110156110f2576001811b8716611003577f7fffffffffffffffffffffffffffffffffffffffffffffffffffffffffffffff868260068110610ff957610ff96133bc565b60200201526110ea565b60008a8281518110611017576110176133bc565b60200260200101519050600081600001516fffffffffffffffffffffffffffffffff169050816040015162ffffff1681620186a0028161105957611059613454565b0487846006811061106c5761106c6133bc565b6020020181815250850194508a61109e5760208201516fffffffffffffffffffffffffffffffff16810260481c6110c9565b81602001516fffffffffffffffffffffffffffffffff16604882901b816110c7576110c7613454565b045b8684600681106110db576110db6133bc565b60200201818152508401935050505b600101610fb3565b506110fd8782613755565b905060005b8951811015611228577f7fffffffffffffffffffffffffffffffffffffffffffffffffffffffffffffff86826006811061113e5761113e6133bc565b60200201511461122057600061118b85836006811061115f5761115f6133bc565b60200201516111858589866006811061117a5761117a6133bc565b602002015188611bf6565b90611c2f565b87836006811061119d5761119d6133bc565b602002018190521315611220577f7fffffffffffffffffffffffffffffffffffffffffffffffffffffffffffffff8682600681106111dd576111dd6133bc565b60200201528481600681106111f4576111f46133bc565b60200201518303925083816006811061120f5761120f6133bc565b602002015190910390506000611102565b600101611102565b5050505050949350505050565b61123d612fa0565b6000831361124d5761124d61381d565b611255612fa0565b61125d612fa0565b60008060005b89518110156113da576001811b87166112b3577f7fffffffffffffffffffffffffffffffffffffffffffffffffffffffffffffff8682600681106112a9576112a96133bc565b60200201526113d2565b60008a82815181106112c7576112c76133bc565b6020908102919091010151805160408201519192506fffffffffffffffffffffffffffffffff1690611309620186a0830262ffffff8316808204910615150190565b88856006811061131b5761131b6133bc565b6020020181815250860195508b61137457602083015161136f906fffffffffffffffffffffffffffffffff1683026402540be40062ffffff8416800269010000000000000000000204808204910615150190565b6113b0565b60208301516fffffffffffffffffffffffffffffffff1662ffffff8216908102026d02540be40000000000000000000083028181049190061515015b8785600681106113c2576113c26133bc565b6020020181815250850194505050505b600101611263565b506113e5878261384c565b905060008282848402816113fb576113fb613454565b0414801561142b57507f7fffffffffffffffffffffffffffffffffffffffffffffffffffffffffffffff83830211155b905060005b8a518110156115aa577f7fffffffffffffffffffffffffffffffffffffffffffffffffffffffffffffff87826006811061146c5761146c6133bc565b6020020151146115a2576000826114c5576114c0868360068110611492576114926133bc565b60200201516111856114bb878b87600681106114b0576114b06133bc565b60200201518a611c42565b611cf0565b61150d565b61150d8683600681106114da576114da6133bc565b6020020151868985600681106114f2576114f26133bc565b602002015187028161150657611506613454565b0490611c2f565b88836006811061151f5761151f6133bc565b6020020181905212156115a2577f7fffffffffffffffffffffffffffffffffffffffffffffffffffffffffffffff87826006811061155f5761155f6133bc565b6020020152858160068110611576576115766133bc565b602002015184039350848160068110611591576115916133bc565b602002015190920391506000611430565b600101611430565b505050505050949350505050565b6000807f7fffffffffffffffffffffffffffffffffffffffffffffffffffffffffffffff8660c0015184600681106115f2576115f26133bc565b60200201511415611608575060009050806119db565b84516fffffffffffffffffffffffffffffffff1661165a576116458660a00151876000015161163b578560a00151611d26565b8560800151611d26565b6fffffffffffffffffffffffffffffffff1685525b60006116998888602001518960c00151876006811061167b5761167b6133bc565b602002015188602001518a600001518a600001518b60400151611d74565b6fffffffffffffffffffffffffffffffff9091166020890152919450925090507f7fffffffffffffffffffffffffffffffffffffffffffffffffffffffffffffff8314156116ee5760008092509250506119db565b86602001516116fd57816116ff565b825b60208701805191909101905260408781015160608901805160ff92831685029290920491820190528651928190039290916000916fffffffffffffffffffffffffffffffff169084901b8161175657611756613454565b04905088600001511561177e5760c087018051820169ffffffffffffffffffff169052611795565b60e087018051820169ffffffffffffffffffff1690525b50505084600001516fffffffffffffffffffffffffffffffff1684602001516fffffffffffffffffffffffffffffffff1614156119db5785516000906117df578460a001516117e5565b84608001515b9050600281900b7ffffffffffffffffffffffffffffffffffffffffffffffffffffffffffff42755148061181f5750600281900b620bd8ab145b1561183757506080860180516001851b1790526119db565b60008087526001604080890191909152517fe3642509000000000000000000000000000000000000000000000000000000008152600481018b905260ff86166024820152600283900b60448201527f000000000000000000000000000000000000000000000000000000000000000073ffffffffffffffffffffffffffffffffffffffff169063e36425099060640161012060405180830381865afa1580156118e4573d6000803e3d6000fd5b505050506040513d601f19601f820116820180604052508101906119089190613890565b805160208201518a519293506bffffffffffffffffffffffff918216929116901561198457875170ffffffffffffffffffffffffffffffff00600884811b82169084901b90911691909101036fffffffffffffffffffffffffffffffff1688526040830151600290810b60808a015284900b60a08901526119d6565b875170ffffffffffffffffffffffffffffffff00600883811b82169085901b90911691909101036fffffffffffffffffffffffffffffffff168852600284810b60808a01526060840151900b60a08901525b505050505b965096945050505050565b606080835167ffffffffffffffff811115611a0357611a0361325f565b604051908082528060200260200182016040528015611a2c578160200160208202803683370190505b509050835167ffffffffffffffff811115611a4957611a4961325f565b604051908082528060200260200182016040528015611a72578160200160208202803683370190505b50915060005b84518160ff161015611b9e576000868260ff1660068110611a9b57611a9b6133bc565b60200201519050600081602001511180611ab6575080604001515b15611b95576000868360ff1681518110611ad257611ad26133bc565b60200260200101519050611ae98160200151611fd5565b600290810b6060830181905260a083015190910b1415611b13576060810180516000190160020b90525b80600001516fffffffffffffffffffffffffffffffff16608082602001516fffffffffffffffffffffffffffffffff16901b17848460ff1681518110611b5b57611b5b6133bc565b60209081029190910101528515611b93578160200151858460ff1681518110611b8657611b866133bc565b6020026020010181815250505b505b50600101611a78565b50935093915050565b6000815111611bb557600080fd5b7f7fffffffffffffffffffffffffffffffffffffffffffffffffffffffffffffff81511115611be357600080fd5b611bf38160006001845103612558565b50565b6000808412611c1257611c0d6114bb8585856126a6565b611c27565b611c236114bb856000038585611c42565b6000035b949350505050565b6000611c3b82846136e1565b9392505050565b600080806000198587098587029250828110838203039150508060001415611c7c5760008411611c7157600080fd5b508290049050611c3b565b808411611c8857600080fd5b600084868809600260036001881981018916988990049182028318808302840302808302840302808302840302808302840302808302840302918202909203026000889003889004909101858311909403939093029303949094049190911702949350505050565b60007f7fffffffffffffffffffffffffffffffffffffffffffffffffffffffffffffff821115611d2257611d2261381d565b5090565b6000826000015160020b8260020b1415611d4557506020820151610a61565b611d4e826126e6565b6fffffffffffffffffffffffffffffffff8116602085015260029290920b909252919050565b846000808080808c611d9057611d8b8a8a8a612a20565b611d9b565b611d9b8a8a8a612abd565b905062ffffff871680028c15611ea9577b6df37f675ef6eadf5ab9a2072d44268d97df837e6748956e5c6c21178712611de357611dde87826402540be400611c42565b611dee565b6402540be400878202045b925081831215611e1f578d611e0d57611e088b8a85612ba0565b611e18565b611e188b8a85612d1a565b9450611e7d565b8994508192507b6df37f675ef6eadf5ab9a2072d44268d97df837e6748956e5c6c21178312611e6057611e5b6114bb846402540be400846126a6565b611e7a565b611e7a6114bb846402540be4000283808204910615150190565b96505b8d611e9257611e8d8b868b612abd565b611e9d565b611e9d8b868b612a20565b95508287039350611f5e565b81871315611ed8578d611ec657611ec18b8a89612ba0565b611ed1565b611ed18b8a89612d1a565b9450611edf565b8994508196505b8d611ef457611eef8b868b612abd565b611eff565b611eff8b868b612a20565b92507b6df37f675ef6eadf5ab9a2072d44268d97df837e6748956e5c6c21178312611f3c57611f376114bb846402540be400846126a6565b611f56565b611f566114bb846402540be4000283808204910615150190565b955082860393505b82158015611f905750896fffffffffffffffffffffffffffffffff16856fffffffffffffffffffffffffffffffff1614155b15611fc4577f7fffffffffffffffffffffffffffffffffffffffffffffffffffffffffffffff9650600095508a9450600093505b505050975097509750979350505050565b60006fffffffffffffffffffffffffffffffff8216620100031180159061201e57506ffffdd8371ce3ef742f98c78a4732240d6fffffffffffffffffffffffffffffffff831611155b61202757600080fd5b6fffffffffffffffffffffffffffffffff821680600068010000000000000000821061205557604091821c91015b640100000000821061206957602091821c91015b62010000821061207b57601091821c91015b610100821061208c57600891821c91015b6010821061209c57600491821c91015b600482106120ac57600291821c91015b600282106120bc57600191821c91015b7fffffffffffffffffffffffffffffffffffffffffffffffffffffffffffffffb8810160401b607f82810385901b8002901c700100000000000000000000000000000000811061211857678000000000000000919091179060011c5b8002607f1c700100000000000000000000000000000000811061214757674000000000000000919091179060011c5b8002607f1c700100000000000000000000000000000000811061217657672000000000000000919091179060011c5b8002607f1c70010000000000000000000000000000000081106121a557671000000000000000919091179060011c5b8002607f1c70010000000000000000000000000000000081106121d457670800000000000000919091179060011c5b8002607f1c700100000000000000000000000000000000811061220357670400000000000000919091179060011c5b8002607f1c700100000000000000000000000000000000811061223257670200000000000000919091179060011c5b8002607f1c700100000000000000000000000000000000811061226157670100000000000000919091179060011c5b8002607f1c700100000000000000000000000000000000811061228f576680000000000000919091179060011c5b8002607f1c70010000000000000000000000000000000081106122bd576640000000000000919091179060011c5b8002607f1c70010000000000000000000000000000000081106122eb576620000000000000919091179060011c5b8002607f1c7001000000000000000000000000000000008110612319576610000000000000919091179060011c5b8002607f1c7001000000000000000000000000000000008110612347576608000000000000919091179060011c5b8002607f1c7001000000000000000000000000000000008110612375576604000000000000919091179060011c5b8002607f1c70010000000000000000000000000000000081106123a3576602000000000000919091179060011c5b8002607f1c70010000000000000000000000000000000081106123d1576601000000000000919091179060011c5b8002607f1c70010000000000000000000000000000000081106123fe5765800000000000919091179060011c5b8002607f1c700100000000000000000000000000000000811061242b5765400000000000919091179060011c5b693627a301d71055774c8591909102906f0d89e7aecf44b7384157000000000001820160801d60007ffffffffffffffffffffffffffff5adf50000000000000000000000000000000084126124d6577ffffffffffffffffffffffffffff8bb350000000000000000000000000000000084126124ab57608084901d6124fd565b7ffffffffffffffffffffffffffffffffffffff3fd6b73c4dfe77dffffffffffff840160801d6124fd565b7fffffffffffffffffffffffffffffffffb5d6bb93c93a19febd193fffffffffff840160801d5b90508060020b8260020b148061253f5750612517826126e6565b6fffffffffffffffffffffffffffffffff16896fffffffffffffffffffffffffffffffff1610155b612549578061254b565b815b9998505050505050505050565b818180821415612569575050505050565b600085600286860305860181518110612584576125846133bc565b602002602001015190505b818313612678575b808684815181106125aa576125aa6133bc565b602002602001015110156125c357600190920191612597565b8582815181106125d5576125d56133bc565b60200260200101518110156125f057600019909101906125c3565b81831361267357858281518110612609576126096133bc565b6020026020010151868481518110612623576126236133bc565b602002602001015187858151811061263d5761263d6133bc565b60200260200101888581518110612656576126566133bc565b602090810291909101019190915252600190920191600019909101905b61258f565b8185121561268b5761268b868684612558565b8383121561269e5761269e868486612558565b505050505050565b60006126b3848484611c42565b9050600082806126c5576126c5613454565b8486091115611c3b5760001981106126dc57600080fd5b6001019392505050565b6000600282900b7ffffffffffffffffffffffffffffffffffffffffffffffffffffffffffff42755138015906127235750620bd8ab600283900b13155b61272c57600080fd5b6000808360020b1261273e5782612743565b826000035b62ffffff81169150700100000000000000000000000000000000906001161561277c576ffffcb933bd6fad37aa2d162d1a5940010260801c5b600282161561279b576ffff97272373d413259a46990580e213a0260801c5b60048216156127ba576ffff2e50f5f656932ef12357cf3c7fdcc0260801c5b60088216156127d9576fffe5caca7e10e4e61c3624eaa0941cd00260801c5b60108216156127f8576fffcb9843d60f6159c9db58835c9266440260801c5b6020821615612817576fff973b41fa98c081472e6896dfb254c00260801c5b6040821615612836576fff2ea16466c96a3843ec78b326b528610260801c5b6080821615612855576ffe5dee046a99a2a811c461f1969c30530260801c5b610100821615612875576ffcbe86c7900a88aedcffc83b479aa3a40260801c5b610200821615612895576ff987a7253ac413176f2b074cf7815e540260801c5b6104008216156128b5576ff3392b0822b70005940c7a398e4b70f30260801c5b6108008216156128d5576fe7159475a2c29b7443b29c7fa6e889d90260801c5b6110008216156128f5576fd097f3bdfd2022b8845ad8f792aa58250260801c5b612000821615612915576fa9f746462d870fdf8a65dc1f90e061e50260801c5b614000821615612935576f70d869a156d2a1b890bb3df62baf32f70260801c5b618000821615612955576f31be135f97d08fd981231505542fcfa60260801c5b62010000821615612976576f09aa508b5b7a84e1c677de54f3e99bc90260801c5b62020000821615612996576e5d6af8dedb81196699c329225ee6040260801c5b620400008216156129b5576d2216e584f5fa1ea926041bedfe980260801c5b620800008216156129d2576b048a170391f7dc42444e8fa20260801c5b60008460020b126129f25780600019816129ee576129ee613454565b0490505b6000670100000000000000820611612a0b576000612a0e565b60015b60ff16603882901c0192505050919050565b60006fffffffffffffffffffffffffffffffff808516908416108015612a44579293925b60008585036fffffffffffffffffffffffffffffffff16846fffffffffffffffffffffffffffffffff16029050612aa482612a9a5768ffffffffffffffffff821615156901000000000000000000830401611cf0565b604882901c611cf0565b92508115612ab457600019830292505b50509392505050565b60006fffffffffffffffffffffffffffffffff808516908416118015612ae1579293925b6fffffffffffffffffffffffffffffffff8381168587038216029080871690861602612b86770100000000000000000000000000000000000000000000008310612b545783612b3f576114bb836901000000000000000000846126a6565b6114bb83690100000000000000000084611c42565b83612b6d576114bb604884901b83808204910615150190565b81604884901b81612b8057612b80613454565b04611cf0565b93508215612b9657600019840293505b5050509392505050565b600080821215612c74576fffffffffffffffffffffffffffffffff8316612bc657600080fd5b600082810390770100000000000000000000000000000000000000000000008210612c1757612c12826901000000000000000000876fffffffffffffffffffffffffffffffff166126a6565b612c45565b612c4569010000000000000000008302866fffffffffffffffffffffffffffffffff16808204910615150190565b9050612c6b612c666fffffffffffffffffffffffffffffffff881683612f27565b612f33565b92505050611c3b565b6000770100000000000000000000000000000000000000000000008310612cc157612cbc836901000000000000000000866fffffffffffffffffffffffffffffffff16611c42565b612cf0565b836fffffffffffffffffffffffffffffffff166901000000000000000000840281612cee57612cee613454565b045b9050612d11612c666fffffffffffffffffffffffffffffffff871683612f55565b95945050505050565b600081612d28575082611c3b565b6000808312612d375782612d3c565b826000035b90506fffffffffffffffffffffffffffffffff8516810278ffffffffffffffffffffffffffffffff000000000000000000604886901b16600080861315612e6557876fffffffffffffffffffffffffffffffff16848481612d9f57612d9f613454565b04148015612db1575050818101818110155b15612e23576fffffffffffffffffffffffffffffffff87811690891602770100000000000000000000000000000000000000000000008110612e0757612e02816901000000000000000000846126a6565b612e1b565b612e1b604882901b83808204910615150190565b955050612f1c565b612e5e82612e53868b6fffffffffffffffffffffffffffffffff168681612e4c57612e4c613454565b0490612f55565b808204910615150190565b9450612f1c565b876fffffffffffffffffffffffffffffffff16848481612e8757612e87613454565b0414612e9257600080fd5b5081810381811115612ea357600080fd5b80612ead57600080fd5b6fffffffffffffffffffffffffffffffff87811690891602770100000000000000000000000000000000000000000000008110612f0157612efc612c66826901000000000000000000856126a6565b612f18565b612f18612c66604883901b84808204910615150190565b9550505b505050509392505050565b6000611c3b82846133a5565b60006fffffffffffffffffffffffffffffffff821115611d2257611d2261381d565b6000611c3b828461384c565b6040518060c001604052806006905b6040805160608101825260008082526020808301829052928201528252600019909201910181612f705790505090565b6040518060c001604052806006906020820280368337509192915050565b60008083601f840112612fd057600080fd5b50813567ffffffffffffffff811115612fe857600080fd5b60208301915083602082850101111561300057600080fd5b9250929050565b60008060006040848603121561301c57600080fd5b833567ffffffffffffffff81111561303357600080fd5b61303f86828701612fbe565b909790965060209590950135949350505050565b600081518084526020808501945080840160005b8381101561308357815187529582019590820190600101613067565b509495945050505050565b8051825260208101516020830152604081015160408301526000606082015160a060608501526130c160a0850182613053565b905060808301518482036080860152612d118282613053565b600060608201858352602085818501526060604085015281855180845260808601915060808160051b870101935082870160005b8281101561315a577fffffffffffffffffffffffffffffffffffffffffffffffffffffffffffffff8088870301845261314886835161308e565b9550928401929084019060010161310e565b50939998505050505050505050565b803573ffffffffffffffffffffffffffffffffffffffff8116811461318d57600080fd5b919050565b60008060008060008060a087890312156131ab57600080fd5b6131b487613169565b95506131c260208801613169565b94506040870135935060608701359250608087013567ffffffffffffffff8111156131ec57600080fd5b6131f889828a01612fbe565b979a9699509497509295939492505050565b6000806000806080858703121561322057600080fd5b61322985613169565b935061323760208601613169565b93969395505050506040820135916060013590565b602081526000611c3b602083018461308e565b7f4e487b7100000000000000000000000000000000000000000000000000000000600052604160045260246000fd5b6000815180845260005b818110156132b457602081850181015186830182015201613298565b818111156132c6576000602083870101525b50601f01601f19169290920160200192915050565b602081526000825160c060208401526132f760e084018261328e565b90506020840151604084015273ffffffffffffffffffffffffffffffffffffffff604085015116606084015260608401516080840152608084015160a084015260a0840151601f198483030160c0850152612d11828261328e565b6000806040838503121561336557600080fd5b505080516020909101519092909150565b7f4e487b7100000000000000000000000000000000000000000000000000000000600052601160045260246000fd5b6000828210156133b7576133b7613376565b500390565b7f4e487b7100000000000000000000000000000000000000000000000000000000600052603260045260246000fd5b600061010073ffffffffffffffffffffffffffffffffffffffff808c168452808b1660208501528960408501528860608501528088166080850152508560a08401528460c08401528060e08401526134458184018561328e565b9b9a5050505050505050505050565b7f4e487b7100000000000000000000000000000000000000000000000000000000600052601260045260246000fd5b604051610100810167ffffffffffffffff811182821017156134a7576134a761325f565b60405290565b604051610120810167ffffffffffffffff811182821017156134a7576134a761325f565b604051601f8201601f1916810167ffffffffffffffff811182821017156134fa576134fa61325f565b604052919050565b80516fffffffffffffffffffffffffffffffff8116811461318d57600080fd5b8051600281900b811461318d57600080fd5b805169ffffffffffffffffffff8116811461318d57600080fd5b6000602080838503121561356157600080fd5b825167ffffffffffffffff8082111561357957600080fd5b818501915085601f83011261358d57600080fd5b81518181111561359f5761359f61325f565b6135ad848260051b016134d1565b818152848101925060089190911b8301840190878211156135cd57600080fd5b928401925b818410156136925761010084890312156135ec5760008081fd5b6135f4613483565b6135fd85613502565b815261360a868601613502565b8682015260408086015162ffffff811681146136265760008081fd5b908201526060613637868201613522565b908201526080613648868201613522565b9082015260a0613659868201613522565b9082015260c061366a868201613534565b9082015260e061367b868201613534565b9082015283526101009390930192918401916135d2565b979650505050505050565b805160ff8116811461318d57600080fd5b600080604083850312156136c157600080fd5b6136ca8361369d565b91506136d86020840161369d565b90509250929050565b6000808312837f80000000000000000000000000000000000000000000000000000000000000000183128115161561371b5761371b613376565b837f7fffffffffffffffffffffffffffffffffffffffffffffffffffffffffffffff01831381161561374f5761374f613376565b50500390565b6000808212827f7fffffffffffffffffffffffffffffffffffffffffffffffffffffffffffffff0384138115161561378f5761378f613376565b827f80000000000000000000000000000000000000000000000000000000000000000384128116156137c3576137c3613376565b50500190565b60006000198214156137dd576137dd613376565b5060010190565b60007f800000000000000000000000000000000000000000000000000000000000000082141561381657613816613376565b5060000390565b7f4e487b7100000000000000000000000000000000000000000000000000000000600052600160045260246000fd5b6000821982111561385f5761385f613376565b500190565b80516bffffffffffffffffffffffff8116811461318d57600080fd5b8051801515811461318d57600080fd5b600061012082840312156138a357600080fd5b6138ab6134ad565b6138b483613864565b81526138c260208401613864565b60208201526138d360408401613522565b60408201526138e460608401613522565b60608201526138f560808401613880565b608082015261390660a08401613880565b60a082015261391760c08401613534565b60c082015261392860e08401613534565b60e082015261010061393b818501613864565b90820152939250505056fea164736f6c634300080a000a",
  "linkReferences": {},
  "deployedLinkReferences": {}
}