{
  "_format": "hh-sol-artifact-1",
  "contractName": "Quoter",
  "sourceName": "contracts/periphery/lens/Quoter.sol",
  "abi": [
    {
      "inputs": [
        {
          "internalType": "address",
          "name": "_hub",
          "type": "address"
        }
      ],
      "stateMutability": "nonpayable",
      "type": "constructor"
    },
    {
      "inputs": [],
      "name": "InvalidAmount",
      "type": "error"
    },
    {
      "inputs": [],
      "name": "InvalidSwapPath",
      "type": "error"
    },
    {
      "inputs": [],
      "name": "InvalidTierChoices",
      "type": "error"
    },
    {
      "inputs": [],
      "name": "NotEnoughIntermediateOutput",
      "type": "error"
    },
    {
      "inputs": [],
      "name": "hub",
      "outputs": [
        {
          "internalType": "contract IMuffinHub",
          "name": "",
          "type": "address"
        }
      ],
      "stateMutability": "view",
      "type": "function"
    },
    {
      "inputs": [
        {
          "internalType": "bytes",
          "name": "path",
          "type": "bytes"
        },
        {
          "internalType": "int256",
          "name": "amountDesired",
          "type": "int256"
        }
      ],
      "name": "quote",
      "outputs": [
        {
          "internalType": "uint256",
          "name": "amountIn",
          "type": "uint256"
        },
        {
          "internalType": "uint256",
          "name": "amountOut",
          "type": "uint256"
        },
        {
          "internalType": "uint256",
          "name": "gasUsed",
          "type": "uint256"
        }
      ],
      "stateMutability": "nonpayable",
      "type": "function"
    },
    {
      "inputs": [
        {
          "internalType": "address",
          "name": "tokenIn",
          "type": "address"
        },
        {
          "internalType": "address",
          "name": "tokenOut",
          "type": "address"
        },
        {
          "internalType": "uint256",
          "name": "tierChoices",
          "type": "uint256"
        },
        {
          "internalType": "int256",
          "name": "amountDesired",
          "type": "int256"
        }
      ],
      "name": "quoteSingle",
      "outputs": [
        {
          "internalType": "uint256",
          "name": "amountIn",
          "type": "uint256"
        },
        {
          "internalType": "uint256",
          "name": "amountOut",
          "type": "uint256"
        },
        {
          "internalType": "uint256",
          "name": "gasUsed",
          "type": "uint256"
        }
      ],
      "stateMutability": "nonpayable",
      "type": "function"
    },
    {
      "inputs": [
        {
          "internalType": "bytes",
          "name": "path",
          "type": "bytes"
        },
        {
          "internalType": "int256",
          "name": "amountDesired",
          "type": "int256"
        }
      ],
      "name": "simulate",
      "outputs": [
        {
          "internalType": "uint256",
          "name": "amountIn",
          "type": "uint256"
        },
        {
          "internalType": "uint256",
          "name": "amountOut",
          "type": "uint256"
        },
        {
          "components": [
            {
              "internalType": "uint256",
              "name": "amountIn",
              "type": "uint256"
            },
            {
              "internalType": "uint256",
              "name": "amountOut",
              "type": "uint256"
            },
            {
              "internalType": "uint256",
              "name": "protocolFeeAmt",
              "type": "uint256"
            },
            {
              "internalType": "uint256[]",
              "name": "tierAmountsIn",
              "type": "uint256[]"
            },
            {
              "internalType": "uint256[]",
              "name": "tierData",
              "type": "uint256[]"
            }
          ],
          "internalType": "struct Quoter.Hop[]",
          "name": "hops",
          "type": "tuple[]"
        }
      ],
      "stateMutability": "view",
      "type": "function"
    },
    {
      "inputs": [
        {
          "internalType": "address",
          "name": "tokenIn",
          "type": "address"
        },
        {
          "internalType": "address",
          "name": "tokenOut",
          "type": "address"
        },
        {
          "internalType": "uint256",
          "name": "tierChoices",
          "type": "uint256"
        },
        {
          "internalType": "int256",
          "name": "amountDesired",
          "type": "int256"
        }
      ],
      "name": "simulateSingle",
      "outputs": [
        {
          "components": [
            {
              "internalType": "uint256",
              "name": "amountIn",
              "type": "uint256"
            },
            {
              "internalType": "uint256",
              "name": "amountOut",
              "type": "uint256"
            },
            {
              "internalType": "uint256",
              "name": "protocolFeeAmt",
              "type": "uint256"
            },
            {
              "internalType": "uint256[]",
              "name": "tierAmountsIn",
              "type": "uint256[]"
            },
            {
              "internalType": "uint256[]",
              "name": "tierData",
              "type": "uint256[]"
            }
          ],
          "internalType": "struct Quoter.Hop",
          "name": "hop",
          "type": "tuple"
        }
      ],
      "stateMutability": "view",
      "type": "function"
    },
    {
      "inputs": [
        {
          "internalType": "address",
          "name": "",
          "type": "address"
        },
        {
          "internalType": "address",
          "name": "",
          "type": "address"
        },
        {
          "internalType": "uint256",
          "name": "amountIn",
          "type": "uint256"
        },
        {
          "internalType": "uint256",
          "name": "amountOut",
          "type": "uint256"
        },
        {
          "internalType": "bytes",
          "name": "",
          "type": "bytes"
        }
      ],
      "name": "swapCallback",
      "outputs": [],
      "stateMutability": "pure",
      "type": "function"
    }
  ],
  "bytecode": "0x60a06040523480156200001157600080fd5b50604051620039cd380380620039cd833981016040819052620000349162000046565b6001600160a01b031660805262000078565b6000602082840312156200005957600080fd5b81516001600160a01b03811681146200007157600080fd5b9392505050565b608051613917620000b66000396000818160af0152818161016b015281816107c401528181610afa01528181610d07015261188201526139176000f3fe608060405234801561001057600080fd5b50600436106100725760003560e01c806345fc75ad1161005057806345fc75ad1461011857806392d31cd41461012d578063a7aa8dd91461014057600080fd5b80630d75172414610077578063365a86fc146100aa57806343ba86f9146100f6575b600080fd5b61008a610085366004612fcb565b610160565b604080519384526020840192909252908201526060015b60405180910390f35b6100d17f000000000000000000000000000000000000000000000000000000000000000081565b60405173ffffffffffffffffffffffffffffffffffffffff90911681526020016100a1565b610109610104366004612fcb565b6102ec565b6040516100a19392919061309e565b61012b610126366004613156565b610790565b005b61008a61013b3660046131ce565b6107a4565b61015361014e3660046131ce565b6108de565b6040516100a19190613210565b6000806000805a90507f000000000000000000000000000000000000000000000000000000000000000073ffffffffffffffffffffffffffffffffffffffff1663c6883ec56040518060c001604052808a8a8080601f016020809104026020016040519081016040528093929190818152602001838380828437600092018290525093855250505060208083018b90523060408085019190915260608401839052608084018390528051928352908201815260a090920152517fffffffff0000000000000000000000000000000000000000000000000000000060e084901b16815261024f919060040161329f565b60408051808303816000875af1925050508015610289575060408051601f3d908101601f1916820190925261028691810190613316565b60015b6102df573d8080156102b7576040519150601f19603f3d011682016040523d82523d6000602084013e6102bc565b606091505b505a6102c89083613369565b92506102d381610a09565b90955093506102e29050565b50505b5093509350939050565b600080606061033086868080601f016020809104026020016040519081016040528093929190818152602001838380828437600092019190915250610a3b92505050565b15610367576040517f3378279300000000000000000000000000000000000000000000000000000000815260040160405180910390fd5b6000808513905060006103af88888080601f016020809104026020016040519081016040528093929190818152602001838380828437600092019190915250610a7b92505050565b67ffffffffffffffff8111156103c7576103c7613223565b6040519080825280602002602001820160405280156103f0578160200160208202803683370190505b509050805167ffffffffffffffff81111561040d5761040d613223565b60405190808252806020026020018201604052801561047057816020015b61045d6040518060a0016040528060008152602001600081526020016000815260200160608152602001606081525090565b81526020019060019003908161042b5790505b5092508560005b82518110156106fa5760008060006104ca84888f8f8080601f016020809104026020016040519081016040528093929190818152602001838380828437600092019190915250929493925050610a839050565b9250925092508173ffffffffffffffffffffffffffffffffffffffff168373ffffffffffffffffffffffffffffffffffffffff161061054b576040805173ffffffffffffffffffffffffffffffffffffffff80851660208301528516918101919091526060016040516020818303038152906040528051906020012061058f565b6040805173ffffffffffffffffffffffffffffffffffffffff8086166020830152841691810191909152606001604051602081830303815290604052805190602001205b8685815181106105a1576105a1613380565b6020026020010181815250506106218685815181106105c2576105c2613380565b60200260200101518373ffffffffffffffffffffffffffffffffffffffff168573ffffffffffffffffffffffffffffffffffffffff1610151560008813151514898061060c575086155b610619576064880361061b565b875b84610ac1565b88858151811061063357610633613380565b602002602001018190525060008089868151811061065357610653613380565b6020026020010151600001518a878151811061067157610671613380565b602002602001015160200151915091508815610698578561069057819b505b8096506106e9565b856106a557809a506106e2565b866000038110156106e2576040517f4b5f1a1e00000000000000000000000000000000000000000000000000000000815260040160405180910390fd5b8160000396505b505060019093019250610477915050565b50821561070957809450610710565b8060000395505b5061071a81610f2b565b15610785576040517f08c379a000000000000000000000000000000000000000000000000000000000815260206004820152600d60248201527f504f4f4c5f524550454154454400000000000000000000000000000000000000604482015260640160405180910390fd5b505093509350939050565b604051846000820152836020820152604081fd5b6000806000805a905073ffffffffffffffffffffffffffffffffffffffff7f000000000000000000000000000000000000000000000000000000000000000016632ec31fbc8989898930600080806040519080825280601f01601f19166020018201604052801561081c576020820181803683370190505b506040518963ffffffff1660e01b81526004016108409897969594939291906133af565b60408051808303816000875af192505050801561087a575060408051601f3d908101601f1916820190925261087791810190613316565b60015b6108d0573d8080156108a8576040519150601f19603f3d011682016040523d82523d6000602084013e6108ad565b606091505b505a6108b99083613369565b92506108c481610a09565b90955093506108d39050565b50505b509450945094915050565b6109106040518060a0016040528060008152602001600081526020016000815260200160608152602001606081525090565b60008473ffffffffffffffffffffffffffffffffffffffff168673ffffffffffffffffffffffffffffffffffffffff161061098d576040805173ffffffffffffffffffffffffffffffffffffffff8088166020830152881691810191909152606001604051602081830303815290604052805190602001206109d1565b6040805173ffffffffffffffffffffffffffffffffffffffff8089166020830152871691810191909152606001604051602081830303815290604052805190602001205b90506109ff816000851373ffffffffffffffffffffffffffffffffffffffff808916908a1610148587610ac1565b9695505050505050565b600080825160401415610a335782806020019051810190610a2a9190613316565b91509150915091565b825183602001fd5b80516000906115141080610a75575081516015907fffffffffffffffffffffffffffffffffffffffffffffffffffffffffffffffec010615155b92915050565b516015900490565b6000808060158502610a988782016014015190565b8782016029810151601590910151919550935060ff169150846102e25750909591945092509050565b610af36040518060a0016040528060008152602001600081526020016000815260200160608152602001606081525090565b60008060007f000000000000000000000000000000000000000000000000000000000000000073ffffffffffffffffffffffffffffffffffffffff166335d603f5896040518263ffffffff1660e01b8152600401610b5391815260200190565b600060405180830381865afa158015610b70573d6000803e3d6000fd5b505050506040513d6000823e601f3d908101601f19168201604052610b989190810190613512565b9050610ba2612f25565b861580610bce57507f7fffffffffffffffffffffffffffffffffffffffffffffffffffffffffffffff87145b15610c05576040517f2c5211c600000000000000000000000000000000000000000000000000000000815260040160405180910390fd5b603f861180610c1e5750600182516001901b0386166000145b15610c55576040517fd2a0a82900000000000000000000000000000000000000000000000000000000815260040160405180910390fd5b6040805160e0810182526000808a138b15158114835260208301529181018290526060810182905283516080820190610c939060019081901b613369565b891681526020016040518060400160405280627fffff60020b815260200160006fffffffffffffffffffffffffffffffff1681525081526020016040518060c001604052806000815260200160008152602001600081526020016000815260200160008152602001600081525081525090507f000000000000000000000000000000000000000000000000000000000000000073ffffffffffffffffffffffffffffffffffffffff1663aa5976c18b6040518263ffffffff1660e01b8152600401610d6091815260200190565b6040805180830381865afa158015610d7c573d6000803e3d6000fd5b505050506040513d601f19601f82011682018060405250810190610da09190613672565b60ff166040830152505b60008813610dcc57610dc7838a610dc1888c6136a5565b8a610f99565b610de1565b610de1838a610ddb888c6136a5565b8a611249565b60c082015260005b8351811015610e6457600080610e328d8d86888760068110610e0d57610e0d613380565b60200201518a8881518110610e2457610e24613380565b6020026020010151886115b2565b9092509050610e418289613719565b9750610e4d8188613719565b965050508080610e5c9061378d565b915050610de9565b506000610e71868a6136a5565b905060008913610ea4577fffffffffffffffffffffffffffffffffffffffffffffffffffffffffffffff9c811215610eaa565b60648113155b80610eb757506080820151155b15610ec25750610ec8565b50610daa565b60608101516040870152610eeb828460008b13610ee557866119e1565b876119e1565b6080880152606087015260008813610f0c5783610f07866137a8565b610f16565b84610f16856137a8565b60208801528652509398975050505050505050565b6000610f3682611ba2565b60015b8251811015610f9057828181518110610f5457610f54613380565b6020026020010151836001830381518110610f7157610f71613380565b60200260200101511415610f885750600192915050565b600101610f39565b50600092915050565b610fa1612f64565b60008312610fb157610fb16137e1565b610fb9612f64565b610fc1612f64565b60008060005b8951811015611106576001811b8716611017577f7fffffffffffffffffffffffffffffffffffffffffffffffffffffffffffffff86826006811061100d5761100d613380565b60200201526110fe565b60008a828151811061102b5761102b613380565b60200260200101519050600081600001516fffffffffffffffffffffffffffffffff169050816040015162ffffff1681620186a0028161106d5761106d613418565b0487846006811061108057611080613380565b6020020181815250850194508a6110b25760208201516fffffffffffffffffffffffffffffffff16810260481c6110dd565b81602001516fffffffffffffffffffffffffffffffff16604882901b816110db576110db613418565b045b8684600681106110ef576110ef613380565b60200201818152508401935050505b600101610fc7565b506111118782613719565b905060005b895181101561123c577f7fffffffffffffffffffffffffffffffffffffffffffffffffffffffffffffff86826006811061115257611152613380565b60200201511461123457600061119f85836006811061117357611173613380565b60200201516111998589866006811061118e5761118e613380565b602002015188611bf1565b90611c2a565b8783600681106111b1576111b1613380565b602002018190521315611234577f7fffffffffffffffffffffffffffffffffffffffffffffffffffffffffffffff8682600681106111f1576111f1613380565b602002015284816006811061120857611208613380565b60200201518303925083816006811061122357611223613380565b602002015190910390506000611116565b600101611116565b5050505050949350505050565b611251612f64565b60008313611261576112616137e1565b611269612f64565b611271612f64565b60008060005b89518110156113ee576001811b87166112c7577f7fffffffffffffffffffffffffffffffffffffffffffffffffffffffffffffff8682600681106112bd576112bd613380565b60200201526113e6565b60008a82815181106112db576112db613380565b6020908102919091010151805160408201519192506fffffffffffffffffffffffffffffffff169061131d620186a0830262ffffff8316808204910615150190565b88856006811061132f5761132f613380565b6020020181815250860195508b611388576020830151611383906fffffffffffffffffffffffffffffffff1683026402540be40062ffffff8416800269010000000000000000000204808204910615150190565b6113c4565b60208301516fffffffffffffffffffffffffffffffff1662ffffff8216908102026d02540be40000000000000000000083028181049190061515015b8785600681106113d6576113d6613380565b6020020181815250850194505050505b600101611277565b506113f98782613810565b905081810260008383838161141057611410613418565b0414801561143e57507f7fffffffffffffffffffffffffffffffffffffffffffffffffffffffffffffff8211155b905060005b8b518110156115a3577f7fffffffffffffffffffffffffffffffffffffffffffffffffffffffffffffff88826006811061147f5761147f613380565b60200201511461159b5760006115068783600681106114a0576114a0613380565b6020020151846114d8576114d36114ce888c87600681106114c3576114c3613380565b60200201518b611c3d565b611ceb565b611199565b878a85600681106114eb576114eb613380565b60200201518802816114ff576114ff613418565b0490611c2a565b89836006811061151857611518613380565b60200201819052121561159b577f7fffffffffffffffffffffffffffffffffffffffffffffffffffffffffffffff88826006811061155857611558613380565b602002015286816006811061156f5761156f613380565b60200201518503945085816006811061158a5761158a613380565b602002015190930392506000611443565b600101611443565b50505050505050949350505050565b6000807f7fffffffffffffffffffffffffffffffffffffffffffffffffffffffffffffff8660c0015184600681106115ec576115ec613380565b60200201511415611602575060009050806119d6565b84516fffffffffffffffffffffffffffffffff166116545761163f8660a001518760000151611635578560a00151611d21565b8560800151611d21565b6fffffffffffffffffffffffffffffffff1685525b60006116938888602001518960c00151876006811061167557611675613380565b602002015188602001518a600001518a600001518b60400151611d6f565b6fffffffffffffffffffffffffffffffff9091166020890152919450925090507f7fffffffffffffffffffffffffffffffffffffffffffffffffffffffffffffff8314156116e85760008092509250506119d6565b86602001516116f757816116f9565b825b60208701805191909101905260408781015160608901805160ff92831685029290920491820190528651928190039290916000916fffffffffffffffffffffffffffffffff169084901b8161175057611750613418565b0490508860000151156117785760c087018051820169ffffffffffffffffffff16905261178f565b60e087018051820169ffffffffffffffffffff1690525b50505084600001516fffffffffffffffffffffffffffffffff1684602001516fffffffffffffffffffffffffffffffff1614156119d65785516000906117d9578460a001516117df565b84608001515b9050600281900b7ffffffffffffffffffffffffffffffffffffffffffffffffffffffffffff4275514806118195750600281900b620bd8ab145b1561183257506080860180516001851b191690526119d6565b60008087526001604080890191909152517fe3642509000000000000000000000000000000000000000000000000000000008152600481018b905260ff86166024820152600283900b60448201527f000000000000000000000000000000000000000000000000000000000000000073ffffffffffffffffffffffffffffffffffffffff169063e36425099060640161012060405180830381865afa1580156118df573d6000803e3d6000fd5b505050506040513d601f19601f820116820180604052508101906119039190613854565b805160208201518a519293506bffffffffffffffffffffffff918216929116901561197f57875170ffffffffffffffffffffffffffffffff00600884811b82169084901b90911691909101036fffffffffffffffffffffffffffffffff1688526040830151600290810b60808a015284900b60a08901526119d1565b875170ffffffffffffffffffffffffffffffff00600883811b82169085901b90911691909101036fffffffffffffffffffffffffffffffff168852600284810b60808a01526060840151900b60a08901525b505050505b965096945050505050565b606080835167ffffffffffffffff8111156119fe576119fe613223565b604051908082528060200260200182016040528015611a27578160200160208202803683370190505b509050835167ffffffffffffffff811115611a4457611a44613223565b604051908082528060200260200182016040528015611a6d578160200160208202803683370190505b50915060005b84518160ff161015611b99576000868260ff1660068110611a9657611a96613380565b60200201519050600081602001511180611ab1575080604001515b15611b90576000868360ff1681518110611acd57611acd613380565b60200260200101519050611ae48160200151611fa7565b600290810b6060830181905260a083015190910b1415611b0e576060810180516000190160020b90525b80600001516fffffffffffffffffffffffffffffffff16608082602001516fffffffffffffffffffffffffffffffff16901b17848460ff1681518110611b5657611b56613380565b60209081029190910101528515611b8e578160200151858460ff1681518110611b8157611b81613380565b6020026020010181815250505b505b50600101611a73565b50935093915050565b6000815111611bb057600080fd5b7f7fffffffffffffffffffffffffffffffffffffffffffffffffffffffffffffff81511115611bde57600080fd5b611bee816000600184510361252a565b50565b6000808412611c0d57611c086114ce858585612678565b611c22565b611c1e6114ce856000038585611c3d565b6000035b949350505050565b6000611c3682846136a5565b9392505050565b600080806000198587098587029250828110838203039150508060001415611c775760008411611c6c57600080fd5b508290049050611c36565b808411611c8357600080fd5b600084868809600260036001881981018916988990049182028318808302840302808302840302808302840302808302840302808302840302918202909203026000889003889004909101858311909403939093029303949094049190911702949350505050565b60007f7fffffffffffffffffffffffffffffffffffffffffffffffffffffffffffffff821115611d1d57611d1d6137e1565b5090565b6000826000015160020b8260020b1415611d4057506020820151610a75565b611d49826126b3565b6fffffffffffffffffffffffffffffffff8116602085015260029290920b909252919050565b846000808080808c611d8b57611d868a8a8a6129ed565b611d96565b611d968a8a8a612a8a565b905062ffffff871680028c15611e9c577b6df37f675ef6eadf5ab9a2072d44268d97df837e6748956e5c6c21178712611dd857806402540be400880402611de3565b6402540be400878202045b925081831215611e14578d611e0257611dfd8b8a85612b6d565b611e0d565b611e0d8b8a85612cde565b9450611e70565b899450819250611e6d7b6df37f675ef6eadf5ab9a2072d44268d97df837e6748956e5c6c21178412611e56578184061515828504015b6402540be40002611ceb565b6114ce846402540be4000283808204910615150190565b96505b8d611e8557611e808b868b612a8a565b611e90565b611e908b868b6129ed565b95508287039350611f30565b81871315611ecb578d611eb957611eb48b8a89612b6d565b611ec4565b611ec48b8a89612cde565b9450611ed2565b8994508196505b8d611ee757611ee28b868b612a8a565b611ef2565b611ef28b868b6129ed565b9250611f287b6df37f675ef6eadf5ab9a2072d44268d97df837e6748956e5c6c21178412611e5657818406151582850401611e4a565b955082860393505b82158015611f625750896fffffffffffffffffffffffffffffffff16856fffffffffffffffffffffffffffffffff1614155b15611f96577f7fffffffffffffffffffffffffffffffffffffffffffffffffffffffffffffff9650600095508a9450600093505b505050975097509750979350505050565b60006fffffffffffffffffffffffffffffffff82166201000311801590611ff057506ffffdd8371ce3ef742f98c78a4732240d6fffffffffffffffffffffffffffffffff831611155b611ff957600080fd5b6fffffffffffffffffffffffffffffffff821680600068010000000000000000821061202757604091821c91015b640100000000821061203b57602091821c91015b62010000821061204d57601091821c91015b610100821061205e57600891821c91015b6010821061206e57600491821c91015b6004821061207e57600291821c91015b6002821061208e57600191821c91015b7fffffffffffffffffffffffffffffffffffffffffffffffffffffffffffffffb8810160401b607f82810385901b8002901c70010000000000000000000000000000000081106120ea57678000000000000000919091179060011c5b8002607f1c700100000000000000000000000000000000811061211957674000000000000000919091179060011c5b8002607f1c700100000000000000000000000000000000811061214857672000000000000000919091179060011c5b8002607f1c700100000000000000000000000000000000811061217757671000000000000000919091179060011c5b8002607f1c70010000000000000000000000000000000081106121a657670800000000000000919091179060011c5b8002607f1c70010000000000000000000000000000000081106121d557670400000000000000919091179060011c5b8002607f1c700100000000000000000000000000000000811061220457670200000000000000919091179060011c5b8002607f1c700100000000000000000000000000000000811061223357670100000000000000919091179060011c5b8002607f1c7001000000000000000000000000000000008110612261576680000000000000919091179060011c5b8002607f1c700100000000000000000000000000000000811061228f576640000000000000919091179060011c5b8002607f1c70010000000000000000000000000000000081106122bd576620000000000000919091179060011c5b8002607f1c70010000000000000000000000000000000081106122eb576610000000000000919091179060011c5b8002607f1c7001000000000000000000000000000000008110612319576608000000000000919091179060011c5b8002607f1c7001000000000000000000000000000000008110612347576604000000000000919091179060011c5b8002607f1c7001000000000000000000000000000000008110612375576602000000000000919091179060011c5b8002607f1c70010000000000000000000000000000000081106123a3576601000000000000919091179060011c5b8002607f1c70010000000000000000000000000000000081106123d05765800000000000919091179060011c5b8002607f1c70010000000000000000000000000000000081106123fd5765400000000000919091179060011c5b693627a301d71055774c8591909102906f0d89e7aecf44b7384157000000000001820160801d60007ffffffffffffffffffffffffffff5adf50000000000000000000000000000000084126124a8577ffffffffffffffffffffffffffff8bb3500000000000000000000000000000000841261247d57608084901d6124cf565b7fffffffffffffffffffffffffffffffffff9a58f534e18c8f54aaffffffffffff840160801d6124cf565b7fffffffffffffffffffffffffffffffffb5d6bb93c93a19febd193fffffffffff840160801d5b90508060020b8260020b148061251157506124e9826126b3565b6fffffffffffffffffffffffffffffffff16896fffffffffffffffffffffffffffffffff1610155b61251b578061251d565b815b9998505050505050505050565b81818082141561253b575050505050565b60008560028686030586018151811061255657612556613380565b602002602001015190505b81831361264a575b8086848151811061257c5761257c613380565b6020026020010151101561259557600190920191612569565b8582815181106125a7576125a7613380565b60200260200101518110156125c25760001990910190612595565b818313612645578582815181106125db576125db613380565b60200260200101518684815181106125f5576125f5613380565b602002602001015187858151811061260f5761260f613380565b6020026020010188858151811061262857612628613380565b602090810291909101019190915252600190920191600019909101905b612561565b8185121561265d5761265d86868461252a565b838312156126705761267086848661252a565b505050505050565b6000612685848484611c3d565b90506000828061269757612697613418565b8486091115611c3657806126aa8161378d565b95945050505050565b6000600282900b7ffffffffffffffffffffffffffffffffffffffffffffffffffffffffffff42755138015906126f05750620bd8ab600283900b13155b6126f957600080fd5b6000808360020b1261270b5782612710565b826000035b62ffffff811691507001000000000000000000000000000000009060011615612749576ffffcb933bd6fad37aa2d162d1a5940010260801c5b6002821615612768576ffff97272373d413259a46990580e213a0260801c5b6004821615612787576ffff2e50f5f656932ef12357cf3c7fdcc0260801c5b60088216156127a6576fffe5caca7e10e4e61c3624eaa0941cd00260801c5b60108216156127c5576fffcb9843d60f6159c9db58835c9266440260801c5b60208216156127e4576fff973b41fa98c081472e6896dfb254c00260801c5b6040821615612803576fff2ea16466c96a3843ec78b326b528610260801c5b6080821615612822576ffe5dee046a99a2a811c461f1969c30530260801c5b610100821615612842576ffcbe86c7900a88aedcffc83b479aa3a40260801c5b610200821615612862576ff987a7253ac413176f2b074cf7815e540260801c5b610400821615612882576ff3392b0822b70005940c7a398e4b70f30260801c5b6108008216156128a2576fe7159475a2c29b7443b29c7fa6e889d90260801c5b6110008216156128c2576fd097f3bdfd2022b8845ad8f792aa58250260801c5b6120008216156128e2576fa9f746462d870fdf8a65dc1f90e061e50260801c5b614000821615612902576f70d869a156d2a1b890bb3df62baf32f70260801c5b618000821615612922576f31be135f97d08fd981231505542fcfa60260801c5b62010000821615612943576f09aa508b5b7a84e1c677de54f3e99bc90260801c5b62020000821615612963576e5d6af8dedb81196699c329225ee6040260801c5b62040000821615612982576d2216e584f5fa1ea926041bedfe980260801c5b6208000082161561299f576b048a170391f7dc42444e8fa20260801c5b60008460020b126129bf5780600019816129bb576129bb613418565b0490505b60006701000000000000008206116129d85760006129db565b60015b60ff16603882901c0192505050919050565b60006fffffffffffffffffffffffffffffffff808516908416108015612a11579293925b60008585036fffffffffffffffffffffffffffffffff16846fffffffffffffffffffffffffffffffff16029050612a7182612a675768ffffffffffffffffff821615156901000000000000000000830401611ceb565b604882901c611ceb565b92508115612a8157600019830292505b50509392505050565b60006fffffffffffffffffffffffffffffffff808516908416118015612aae579293925b6fffffffffffffffffffffffffffffffff8381168587038216029080871690861602612b53770100000000000000000000000000000000000000000000008310612b215783612b0c576114ce83690100000000000000000084612678565b6114ce83690100000000000000000084611c3d565b83612b3a576114ce604884901b83808204910615150190565b81604884901b81612b4d57612b4d613418565b04611ceb565b93508215612b6357600019840293505b5050509392505050565b600080821215612c41576fffffffffffffffffffffffffffffffff8316612b9357600080fd5b600082810390770100000000000000000000000000000000000000000000008210612be457612bdf826901000000000000000000876fffffffffffffffffffffffffffffffff16612678565b612c12565b612c1269010000000000000000008302866fffffffffffffffffffffffffffffffff16808204910615150190565b9050612c38612c336fffffffffffffffffffffffffffffffff881683612eeb565b612ef7565b92505050611c36565b6000770100000000000000000000000000000000000000000000008310612c8e57612c89836901000000000000000000866fffffffffffffffffffffffffffffffff16611c3d565b612cbd565b836fffffffffffffffffffffffffffffffff166901000000000000000000840281612cbb57612cbb613418565b045b90506126aa612c336fffffffffffffffffffffffffffffffff871683612f19565b600081612cec575082611c36565b6000808312612cfb5782612d00565b826000035b90506fffffffffffffffffffffffffffffffff8516810278ffffffffffffffffffffffffffffffff000000000000000000604886901b16600080861315612e2957876fffffffffffffffffffffffffffffffff16848481612d6357612d63613418565b04148015612d75575050818101818110155b15612de7576fffffffffffffffffffffffffffffffff87811690891602770100000000000000000000000000000000000000000000008110612dcb57612dc681690100000000000000000084612678565b612ddf565b612ddf604882901b83808204910615150190565b955050612ee0565b612e2282612e17868b6fffffffffffffffffffffffffffffffff168681612e1057612e10613418565b0490612f19565b808204910615150190565b9450612ee0565b876fffffffffffffffffffffffffffffffff16848481612e4b57612e4b613418565b0414612e5657600080fd5b5081810381811115612e6757600080fd5b80612e7157600080fd5b6fffffffffffffffffffffffffffffffff87811690891602770100000000000000000000000000000000000000000000008110612ec557612ec0612c3382690100000000000000000085612678565b612edc565b612edc612c33604883901b84808204910615150190565b9550505b505050509392505050565b6000611c368284613369565b60006fffffffffffffffffffffffffffffffff821115611d1d57611d1d6137e1565b6000611c368284613810565b6040518060c001604052806006905b6040805160608101825260008082526020808301829052928201528252600019909201910181612f345790505090565b6040518060c001604052806006906020820280368337509192915050565b60008083601f840112612f9457600080fd5b50813567ffffffffffffffff811115612fac57600080fd5b602083019150836020828501011115612fc457600080fd5b9250929050565b600080600060408486031215612fe057600080fd5b833567ffffffffffffffff811115612ff757600080fd5b61300386828701612f82565b909790965060209590950135949350505050565b600081518084526020808501945080840160005b838110156130475781518752958201959082019060010161302b565b509495945050505050565b8051825260208101516020830152604081015160408301526000606082015160a0606085015261308560a0850182613017565b9050608083015184820360808601526126aa8282613017565b600060608201858352602085818501526060604085015281855180845260808601915060808160051b870101935082870160005b8281101561311e577fffffffffffffffffffffffffffffffffffffffffffffffffffffffffffffff8088870301845261310c868351613052565b955092840192908401906001016130d2565b50939998505050505050505050565b803573ffffffffffffffffffffffffffffffffffffffff8116811461315157600080fd5b919050565b60008060008060008060a0878903121561316f57600080fd5b6131788761312d565b95506131866020880161312d565b94506040870135935060608701359250608087013567ffffffffffffffff8111156131b057600080fd5b6131bc89828a01612f82565b979a9699509497509295939492505050565b600080600080608085870312156131e457600080fd5b6131ed8561312d565b93506131fb6020860161312d565b93969395505050506040820135916060013590565b602081526000611c366020830184613052565b7f4e487b7100000000000000000000000000000000000000000000000000000000600052604160045260246000fd5b6000815180845260005b818110156132785760208185018101518683018201520161325c565b8181111561328a576000602083870101525b50601f01601f19169290920160200192915050565b602081526000825160c060208401526132bb60e0840182613252565b90506020840151604084015273ffffffffffffffffffffffffffffffffffffffff604085015116606084015260608401516080840152608084015160a084015260a0840151601f198483030160c08501526126aa8282613252565b6000806040838503121561332957600080fd5b505080516020909101519092909150565b7f4e487b7100000000000000000000000000000000000000000000000000000000600052601160045260246000fd5b60008282101561337b5761337b61333a565b500390565b7f4e487b7100000000000000000000000000000000000000000000000000000000600052603260045260246000fd5b600061010073ffffffffffffffffffffffffffffffffffffffff808c168452808b1660208501528960408501528860608501528088166080850152508560a08401528460c08401528060e084015261340981840185613252565b9b9a5050505050505050505050565b7f4e487b7100000000000000000000000000000000000000000000000000000000600052601260045260246000fd5b604051610100810167ffffffffffffffff8111828210171561346b5761346b613223565b60405290565b604051610120810167ffffffffffffffff8111828210171561346b5761346b613223565b604051601f8201601f1916810167ffffffffffffffff811182821017156134be576134be613223565b604052919050565b80516fffffffffffffffffffffffffffffffff8116811461315157600080fd5b8051600281900b811461315157600080fd5b805169ffffffffffffffffffff8116811461315157600080fd5b6000602080838503121561352557600080fd5b825167ffffffffffffffff8082111561353d57600080fd5b818501915085601f83011261355157600080fd5b81518181111561356357613563613223565b613571848260051b01613495565b818152848101925060089190911b83018401908782111561359157600080fd5b928401925b818410156136565761010084890312156135b05760008081fd5b6135b8613447565b6135c1856134c6565b81526135ce8686016134c6565b8682015260408086015162ffffff811681146135ea5760008081fd5b9082015260606135fb8682016134e6565b90820152608061360c8682016134e6565b9082015260a061361d8682016134e6565b9082015260c061362e8682016134f8565b9082015260e061363f8682016134f8565b908201528352610100939093019291840191613596565b979650505050505050565b805160ff8116811461315157600080fd5b6000806040838503121561368557600080fd5b61368e83613661565b915061369c60208401613661565b90509250929050565b6000808312837f8000000000000000000000000000000000000000000000000000000000000000018312811516156136df576136df61333a565b837f7fffffffffffffffffffffffffffffffffffffffffffffffffffffffffffffff0183138116156137135761371361333a565b50500390565b6000808212827f7fffffffffffffffffffffffffffffffffffffffffffffffffffffffffffffff038413811516156137535761375361333a565b827f80000000000000000000000000000000000000000000000000000000000000000384128116156137875761378761333a565b50500190565b60006000198214156137a1576137a161333a565b5060010190565b60007f80000000000000000000000000000000000000000000000000000000000000008214156137da576137da61333a565b5060000390565b7f4e487b7100000000000000000000000000000000000000000000000000000000600052600160045260246000fd5b600082198211156138235761382361333a565b500190565b80516bffffffffffffffffffffffff8116811461315157600080fd5b8051801515811461315157600080fd5b6000610120828403121561386757600080fd5b61386f613471565b61387883613828565b815261388660208401613828565b6020820152613897604084016134e6565b60408201526138a8606084016134e6565b60608201526138b960808401613844565b60808201526138ca60a08401613844565b60a08201526138db60c084016134f8565b60c08201526138ec60e084016134f8565b60e08201526101006138ff818501613828565b90820152939250505056fea164736f6c634300080a000a",
  "linkReferences": {},
  "deployedLinkReferences": {}
}