{
  "_format": "hh-sol-artifact-1",
  "contractName": "Quoter",
  "sourceName": "contracts/periphery/lens/Quoter.sol",
  "abi": [
    {
      "inputs": [
        {
          "internalType": "address",
          "name": "_hub",
          "type": "address"
        }
      ],
      "stateMutability": "nonpayable",
      "type": "constructor"
    },
    {
      "inputs": [
        {
          "internalType": "bytes[]",
          "name": "data",
          "type": "bytes[]"
        }
      ],
      "name": "batch",
      "outputs": [
        {
          "internalType": "uint256",
          "name": "blockNumber",
          "type": "uint256"
        },
        {
          "components": [
            {
              "internalType": "bool",
              "name": "success",
              "type": "bool"
            },
            {
              "internalType": "bytes",
              "name": "returnData",
              "type": "bytes"
            }
          ],
          "internalType": "struct Quoter.Result[]",
          "name": "results",
          "type": "tuple[]"
        }
      ],
      "stateMutability": "nonpayable",
      "type": "function"
    },
    {
      "inputs": [],
      "name": "hub",
      "outputs": [
        {
          "internalType": "address",
          "name": "",
          "type": "address"
        }
      ],
      "stateMutability": "view",
      "type": "function"
    },
    {
      "inputs": [
        {
          "internalType": "bytes",
          "name": "path",
          "type": "bytes"
        },
        {
          "internalType": "int256",
          "name": "amountDesired",
          "type": "int256"
        }
      ],
      "name": "quote",
      "outputs": [
        {
          "internalType": "uint256",
          "name": "amountIn",
          "type": "uint256"
        },
        {
          "internalType": "uint256",
          "name": "amountOut",
          "type": "uint256"
        },
        {
          "internalType": "uint256",
          "name": "gasUsed",
          "type": "uint256"
        }
      ],
      "stateMutability": "nonpayable",
      "type": "function"
    },
    {
      "inputs": [
        {
          "internalType": "address",
          "name": "tokenIn",
          "type": "address"
        },
        {
          "internalType": "address",
          "name": "tokenOut",
          "type": "address"
        },
        {
          "internalType": "uint256",
          "name": "tierChoices",
          "type": "uint256"
        },
        {
          "internalType": "int256",
          "name": "amountDesired",
          "type": "int256"
        }
      ],
      "name": "quoteSingle",
      "outputs": [
        {
          "internalType": "uint256",
          "name": "amountIn",
          "type": "uint256"
        },
        {
          "internalType": "uint256",
          "name": "amountOut",
          "type": "uint256"
        },
        {
          "internalType": "uint256",
          "name": "gasUsed",
          "type": "uint256"
        }
      ],
      "stateMutability": "nonpayable",
      "type": "function"
    },
    {
      "inputs": [
        {
          "internalType": "address",
          "name": "",
          "type": "address"
        },
        {
          "internalType": "address",
          "name": "",
          "type": "address"
        },
        {
          "internalType": "uint256",
          "name": "amountIn",
          "type": "uint256"
        },
        {
          "internalType": "uint256",
          "name": "amountOut",
          "type": "uint256"
        },
        {
          "internalType": "bytes",
          "name": "",
          "type": "bytes"
        }
      ],
      "name": "swapCallback",
      "outputs": [],
      "stateMutability": "pure",
      "type": "function"
    }
  ],
  "bytecode": "0x60a060405234801561001057600080fd5b50604051610ba6380380610ba683398101604081905261002f91610040565b6001600160a01b0316608052610070565b60006020828403121561005257600080fd5b81516001600160a01b038116811461006957600080fd5b9392505050565b608051610b0e6100986000396000818160c50152818161013f015261042a0152610b0e6000f3fe608060405234801561001057600080fd5b50600436106100675760003560e01c8063365a86fc11610050578063365a86fc146100c057806345fc75ad1461010c57806392d31cd41461012157600080fd5b80630d7517241461006c5780631e897afb1461009f575b600080fd5b61007f61007a3660046105a6565b610134565b604080519384526020840192909252908201526060015b60405180910390f35b6100b26100ad36600461065b565b6102ba565b60405161009692919061071d565b6100e77f000000000000000000000000000000000000000000000000000000000000000081565b60405173ffffffffffffffffffffffffffffffffffffffff9091168152602001610096565b61011f61011a3660046107e2565b6103f6565b005b61007f61012f366004610888565b61040a565b6000806000805a90507f000000000000000000000000000000000000000000000000000000000000000073ffffffffffffffffffffffffffffffffffffffff1663c6883ec56040518060c001604052808981526020018881526020013073ffffffffffffffffffffffffffffffffffffffff1681526020016000815260200160008152602001600067ffffffffffffffff8111156101d4576101d4610577565b6040519080825280601f01601f1916602001820160405280156101fe576020820181803683370190505b508152506040518263ffffffff1660e01b815260040161021e91906108ca565b60408051808303816000875af1925050508015610258575060408051601f3d908101601f191682019092526102559181019061094a565b60015b6102af573d808015610286576040519150601f19603f3d011682016040523d82523d6000602084013e61028b565b606091505b50815a610298919061099d565b92506102a381610545565b90955093506102b29050565b50505b509250925092565b4360608267ffffffffffffffff8111156102d6576102d6610577565b60405190808252806020026020018201604052801561031c57816020015b6040805180820190915260008152606060208201528152602001906001900390816102f45790505b50905060005b838110156103ee5760008030878785818110610340576103406109b4565b905060200281019061035291906109e3565b604051610360929190610a4f565b600060405180830381855af49150503d806000811461039b576040519150601f19603f3d011682016040523d82523d6000602084013e6103a0565b606091505b509150915060405180604001604052808315158152602001828152508484815181106103ce576103ce6109b4565b6020026020010181905250505080806103e690610a5f565b915050610322565b509250929050565b604051846000820152836020820152604081fd5b6000806000805a905073ffffffffffffffffffffffffffffffffffffffff7f000000000000000000000000000000000000000000000000000000000000000016632ec31fbc8989898930600080806040519080825280601f01601f191660200182016040528015610482576020820181803683370190505b506040518963ffffffff1660e01b81526004016104a6989796959493929190610a98565b60408051808303816000875af19250505080156104e0575060408051601f3d908101601f191682019092526104dd9181019061094a565b60015b610537573d80801561050e576040519150601f19603f3d011682016040523d82523d6000602084013e610513565b606091505b50815a610520919061099d565b925061052b81610545565b909550935061053a9050565b50505b509450945094915050565b60008082516040141561056f5782806020019051810190610566919061094a565b91509150915091565b825183602001fd5b7f4e487b7100000000000000000000000000000000000000000000000000000000600052604160045260246000fd5b600080604083850312156105b957600080fd5b823567ffffffffffffffff808211156105d157600080fd5b818501915085601f8301126105e557600080fd5b8135818111156105f7576105f7610577565b604051601f8201601f19908116603f0116810190838211818310171561061f5761061f610577565b8160405282815288602084870101111561063857600080fd5b826020860160208301376000602093820184015298969091013596505050505050565b6000806020838503121561066e57600080fd5b823567ffffffffffffffff8082111561068657600080fd5b818501915085601f83011261069a57600080fd5b8135818111156106a957600080fd5b8660208260051b85010111156106be57600080fd5b60209290920196919550909350505050565b6000815180845260005b818110156106f6576020818501810151868301820152016106da565b81811115610708576000602083870101525b50601f01601f19169290920160200192915050565b600060408083018584526020828186015281865180845260608701915060608160051b880101935082880160005b828110156107aa578886037fffffffffffffffffffffffffffffffffffffffffffffffffffffffffffffffa00184528151805115158752850151858701889052610797888801826106d0565b965050928401929084019060010161074b565b50939998505050505050505050565b803573ffffffffffffffffffffffffffffffffffffffff811681146107dd57600080fd5b919050565b60008060008060008060a087890312156107fb57600080fd5b610804876107b9565b9550610812602088016107b9565b94506040870135935060608701359250608087013567ffffffffffffffff8082111561083d57600080fd5b818901915089601f83011261085157600080fd5b81358181111561086057600080fd5b8a602082850101111561087257600080fd5b6020830194508093505050509295509295509295565b6000806000806080858703121561089e57600080fd5b6108a7856107b9565b93506108b5602086016107b9565b93969395505050506040820135916060013590565b602081526000825160c060208401526108e660e08401826106d0565b90506020840151604084015273ffffffffffffffffffffffffffffffffffffffff604085015116606084015260608401516080840152608084015160a084015260a0840151601f198483030160c085015261094182826106d0565b95945050505050565b6000806040838503121561095d57600080fd5b505080516020909101519092909150565b7f4e487b7100000000000000000000000000000000000000000000000000000000600052601160045260246000fd5b6000828210156109af576109af61096e565b500390565b7f4e487b7100000000000000000000000000000000000000000000000000000000600052603260045260246000fd5b60008083357fffffffffffffffffffffffffffffffffffffffffffffffffffffffffffffffe1843603018112610a1857600080fd5b83018035915067ffffffffffffffff821115610a3357600080fd5b602001915036819003821315610a4857600080fd5b9250929050565b8183823760009101908152919050565b60007fffffffffffffffffffffffffffffffffffffffffffffffffffffffffffffffff821415610a9157610a9161096e565b5060010190565b600061010073ffffffffffffffffffffffffffffffffffffffff808c168452808b1660208501528960408501528860608501528088166080850152508560a08401528460c08401528060e0840152610af2818401856106d0565b9b9a505050505050505050505056fea164736f6c634300080a000a",
  "linkReferences": {},
  "deployedLinkReferences": {}
}