{
  "_format": "hh-sol-artifact-1",
  "contractName": "Manager",
  "sourceName": "contracts/periphery/Manager.sol",
  "abi": [
    {
      "inputs": [
        {
          "internalType": "address",
          "name": "_hub",
          "type": "address"
        },
        {
          "internalType": "address",
          "name": "_WETH9",
          "type": "address"
        }
      ],
      "stateMutability": "nonpayable",
      "type": "constructor"
    },
    {
      "inputs": [],
      "name": "DeadlinePassed",
      "type": "error"
    },
    {
      "inputs": [],
      "name": "FailedTransferETH",
      "type": "error"
    },
    {
      "inputs": [],
      "name": "FailedTransferFrom",
      "type": "error"
    },
    {
      "anonymous": false,
      "inputs": [
        {
          "indexed": true,
          "internalType": "address",
          "name": "owner",
          "type": "address"
        },
        {
          "indexed": true,
          "internalType": "address",
          "name": "approved",
          "type": "address"
        },
        {
          "indexed": true,
          "internalType": "uint256",
          "name": "tokenId",
          "type": "uint256"
        }
      ],
      "name": "Approval",
      "type": "event"
    },
    {
      "anonymous": false,
      "inputs": [
        {
          "indexed": true,
          "internalType": "address",
          "name": "owner",
          "type": "address"
        },
        {
          "indexed": true,
          "internalType": "address",
          "name": "operator",
          "type": "address"
        },
        {
          "indexed": false,
          "internalType": "bool",
          "name": "approved",
          "type": "bool"
        }
      ],
      "name": "ApprovalForAll",
      "type": "event"
    },
    {
      "anonymous": false,
      "inputs": [
        {
          "indexed": true,
          "internalType": "address",
          "name": "from",
          "type": "address"
        },
        {
          "indexed": true,
          "internalType": "address",
          "name": "to",
          "type": "address"
        },
        {
          "indexed": true,
          "internalType": "uint256",
          "name": "tokenId",
          "type": "uint256"
        }
      ],
      "name": "Transfer",
      "type": "event"
    },
    {
      "inputs": [],
      "name": "DOMAIN_SEPARATOR",
      "outputs": [
        {
          "internalType": "bytes32",
          "name": "domainSeperator",
          "type": "bytes32"
        }
      ],
      "stateMutability": "view",
      "type": "function"
    },
    {
      "inputs": [],
      "name": "PERMIT_TYPEHASH",
      "outputs": [
        {
          "internalType": "bytes32",
          "name": "",
          "type": "bytes32"
        }
      ],
      "stateMutability": "view",
      "type": "function"
    },
    {
      "inputs": [],
      "name": "WETH9",
      "outputs": [
        {
          "internalType": "address",
          "name": "",
          "type": "address"
        }
      ],
      "stateMutability": "view",
      "type": "function"
    },
    {
      "inputs": [
        {
          "components": [
            {
              "internalType": "uint256",
              "name": "tokenId",
              "type": "uint256"
            },
            {
              "internalType": "uint256",
              "name": "amount0Desired",
              "type": "uint256"
            },
            {
              "internalType": "uint256",
              "name": "amount1Desired",
              "type": "uint256"
            },
            {
              "internalType": "uint256",
              "name": "amount0Min",
              "type": "uint256"
            },
            {
              "internalType": "uint256",
              "name": "amount1Min",
              "type": "uint256"
            },
            {
              "internalType": "bool",
              "name": "useAccount",
              "type": "bool"
            }
          ],
          "internalType": "struct PositionManager.AddLiquidityParams",
          "name": "params",
          "type": "tuple"
        }
      ],
      "name": "addLiquidity",
      "outputs": [
        {
          "internalType": "uint96",
          "name": "liquidityD8",
          "type": "uint96"
        },
        {
          "internalType": "uint256",
          "name": "amount0",
          "type": "uint256"
        },
        {
          "internalType": "uint256",
          "name": "amount1",
          "type": "uint256"
        }
      ],
      "stateMutability": "payable",
      "type": "function"
    },
    {
      "inputs": [
        {
          "internalType": "address",
          "name": "to",
          "type": "address"
        },
        {
          "internalType": "uint256",
          "name": "tokenId",
          "type": "uint256"
        }
      ],
      "name": "approve",
      "outputs": [],
      "stateMutability": "nonpayable",
      "type": "function"
    },
    {
      "inputs": [
        {
          "internalType": "address",
          "name": "owner",
          "type": "address"
        }
      ],
      "name": "balanceOf",
      "outputs": [
        {
          "internalType": "uint256",
          "name": "",
          "type": "uint256"
        }
      ],
      "stateMutability": "view",
      "type": "function"
    },
    {
      "inputs": [
        {
          "internalType": "uint256[]",
          "name": "tokenIds",
          "type": "uint256[]"
        }
      ],
      "name": "burn",
      "outputs": [],
      "stateMutability": "payable",
      "type": "function"
    },
    {
      "inputs": [
        {
          "internalType": "address",
          "name": "token0",
          "type": "address"
        },
        {
          "internalType": "address",
          "name": "token1",
          "type": "address"
        },
        {
          "internalType": "uint24",
          "name": "sqrtGamma",
          "type": "uint24"
        },
        {
          "internalType": "uint128",
          "name": "sqrtPrice",
          "type": "uint128"
        }
      ],
      "name": "createPool",
      "outputs": [],
      "stateMutability": "payable",
      "type": "function"
    },
    {
      "inputs": [
        {
          "internalType": "address",
          "name": "recipient",
          "type": "address"
        },
        {
          "internalType": "address",
          "name": "token",
          "type": "address"
        },
        {
          "internalType": "uint256",
          "name": "amount",
          "type": "uint256"
        }
      ],
      "name": "deposit",
      "outputs": [],
      "stateMutability": "payable",
      "type": "function"
    },
    {
      "inputs": [
        {
          "internalType": "address",
          "name": "token",
          "type": "address"
        },
        {
          "internalType": "uint256",
          "name": "amount",
          "type": "uint256"
        },
        {
          "internalType": "bytes",
          "name": "data",
          "type": "bytes"
        }
      ],
      "name": "depositCallback",
      "outputs": [],
      "stateMutability": "nonpayable",
      "type": "function"
    },
    {
      "inputs": [
        {
          "internalType": "address",
          "name": "recipient",
          "type": "address"
        },
        {
          "internalType": "uint256",
          "name": "recipientAccRefId",
          "type": "uint256"
        },
        {
          "internalType": "address",
          "name": "token",
          "type": "address"
        },
        {
          "internalType": "uint256",
          "name": "amount",
          "type": "uint256"
        }
      ],
      "name": "depositToExternal",
      "outputs": [],
      "stateMutability": "payable",
      "type": "function"
    },
    {
      "inputs": [
        {
          "internalType": "bytes",
          "name": "path",
          "type": "bytes"
        },
        {
          "internalType": "uint256",
          "name": "amountIn",
          "type": "uint256"
        },
        {
          "internalType": "uint256",
          "name": "amountOutMinimum",
          "type": "uint256"
        },
        {
          "internalType": "address",
          "name": "recipient",
          "type": "address"
        },
        {
          "internalType": "bool",
          "name": "fromAccount",
          "type": "bool"
        },
        {
          "internalType": "bool",
          "name": "toAccount",
          "type": "bool"
        },
        {
          "internalType": "uint256",
          "name": "deadline",
          "type": "uint256"
        }
      ],
      "name": "exactIn",
      "outputs": [
        {
          "internalType": "uint256",
          "name": "amountOut",
          "type": "uint256"
        }
      ],
      "stateMutability": "payable",
      "type": "function"
    },
    {
      "inputs": [
        {
          "internalType": "address",
          "name": "tokenIn",
          "type": "address"
        },
        {
          "internalType": "address",
          "name": "tokenOut",
          "type": "address"
        },
        {
          "internalType": "uint256",
          "name": "tierChoices",
          "type": "uint256"
        },
        {
          "internalType": "uint256",
          "name": "amountIn",
          "type": "uint256"
        },
        {
          "internalType": "uint256",
          "name": "amountOutMinimum",
          "type": "uint256"
        },
        {
          "internalType": "address",
          "name": "recipient",
          "type": "address"
        },
        {
          "internalType": "bool",
          "name": "fromAccount",
          "type": "bool"
        },
        {
          "internalType": "bool",
          "name": "toAccount",
          "type": "bool"
        },
        {
          "internalType": "uint256",
          "name": "deadline",
          "type": "uint256"
        }
      ],
      "name": "exactInSingle",
      "outputs": [
        {
          "internalType": "uint256",
          "name": "amountOut",
          "type": "uint256"
        }
      ],
      "stateMutability": "payable",
      "type": "function"
    },
    {
      "inputs": [
        {
          "internalType": "bytes",
          "name": "path",
          "type": "bytes"
        },
        {
          "internalType": "uint256",
          "name": "amountOut",
          "type": "uint256"
        },
        {
          "internalType": "uint256",
          "name": "amountInMaximum",
          "type": "uint256"
        },
        {
          "internalType": "address",
          "name": "recipient",
          "type": "address"
        },
        {
          "internalType": "bool",
          "name": "fromAccount",
          "type": "bool"
        },
        {
          "internalType": "bool",
          "name": "toAccount",
          "type": "bool"
        },
        {
          "internalType": "uint256",
          "name": "deadline",
          "type": "uint256"
        }
      ],
      "name": "exactOut",
      "outputs": [
        {
          "internalType": "uint256",
          "name": "amountIn",
          "type": "uint256"
        }
      ],
      "stateMutability": "payable",
      "type": "function"
    },
    {
      "inputs": [
        {
          "internalType": "address",
          "name": "tokenIn",
          "type": "address"
        },
        {
          "internalType": "address",
          "name": "tokenOut",
          "type": "address"
        },
        {
          "internalType": "uint256",
          "name": "tierChoices",
          "type": "uint256"
        },
        {
          "internalType": "uint256",
          "name": "amountOut",
          "type": "uint256"
        },
        {
          "internalType": "uint256",
          "name": "amountInMaximum",
          "type": "uint256"
        },
        {
          "internalType": "address",
          "name": "recipient",
          "type": "address"
        },
        {
          "internalType": "bool",
          "name": "fromAccount",
          "type": "bool"
        },
        {
          "internalType": "bool",
          "name": "toAccount",
          "type": "bool"
        },
        {
          "internalType": "uint256",
          "name": "deadline",
          "type": "uint256"
        }
      ],
      "name": "exactOutSingle",
      "outputs": [
        {
          "internalType": "uint256",
          "name": "amountIn",
          "type": "uint256"
        }
      ],
      "stateMutability": "payable",
      "type": "function"
    },
    {
      "inputs": [
        {
          "internalType": "uint256",
          "name": "tokenId",
          "type": "uint256"
        }
      ],
      "name": "getApproved",
      "outputs": [
        {
          "internalType": "address",
          "name": "",
          "type": "address"
        }
      ],
      "stateMutability": "view",
      "type": "function"
    },
    {
      "inputs": [
        {
          "internalType": "uint256",
          "name": "tokenId",
          "type": "uint256"
        }
      ],
      "name": "getPosition",
      "outputs": [
        {
          "internalType": "address",
          "name": "owner",
          "type": "address"
        },
        {
          "internalType": "address",
          "name": "token0",
          "type": "address"
        },
        {
          "internalType": "address",
          "name": "token1",
          "type": "address"
        },
        {
          "internalType": "uint8",
          "name": "tierId",
          "type": "uint8"
        },
        {
          "internalType": "int24",
          "name": "tickLower",
          "type": "int24"
        },
        {
          "internalType": "int24",
          "name": "tickUpper",
          "type": "int24"
        },
        {
          "components": [
            {
              "internalType": "uint96",
              "name": "liquidityD8",
              "type": "uint96"
            },
            {
              "internalType": "uint80",
              "name": "feeGrowthInside0Last",
              "type": "uint80"
            },
            {
              "internalType": "uint80",
              "name": "feeGrowthInside1Last",
              "type": "uint80"
            },
            {
              "internalType": "uint8",
              "name": "limitOrderType",
              "type": "uint8"
            },
            {
              "internalType": "uint32",
              "name": "settlementSnapshotId",
              "type": "uint32"
            }
          ],
          "internalType": "struct Positions.Position",
          "name": "position",
          "type": "tuple"
        }
      ],
      "stateMutability": "view",
      "type": "function"
    },
    {
      "inputs": [],
      "name": "hub",
      "outputs": [
        {
          "internalType": "address",
          "name": "",
          "type": "address"
        }
      ],
      "stateMutability": "view",
      "type": "function"
    },
    {
      "inputs": [
        {
          "internalType": "address",
          "name": "owner",
          "type": "address"
        },
        {
          "internalType": "address",
          "name": "operator",
          "type": "address"
        }
      ],
      "name": "isApprovedForAll",
      "outputs": [
        {
          "internalType": "bool",
          "name": "",
          "type": "bool"
        }
      ],
      "stateMutability": "view",
      "type": "function"
    },
    {
      "inputs": [
        {
          "components": [
            {
              "internalType": "address",
              "name": "token0",
              "type": "address"
            },
            {
              "internalType": "address",
              "name": "token1",
              "type": "address"
            },
            {
              "internalType": "uint8",
              "name": "tierId",
              "type": "uint8"
            },
            {
              "internalType": "int24",
              "name": "tickLower",
              "type": "int24"
            },
            {
              "internalType": "int24",
              "name": "tickUpper",
              "type": "int24"
            },
            {
              "internalType": "uint256",
              "name": "amount0Desired",
              "type": "uint256"
            },
            {
              "internalType": "uint256",
              "name": "amount1Desired",
              "type": "uint256"
            },
            {
              "internalType": "uint256",
              "name": "amount0Min",
              "type": "uint256"
            },
            {
              "internalType": "uint256",
              "name": "amount1Min",
              "type": "uint256"
            },
            {
              "internalType": "address",
              "name": "recipient",
              "type": "address"
            },
            {
              "internalType": "bool",
              "name": "useAccount",
              "type": "bool"
            }
          ],
          "internalType": "struct PositionManager.MintParams",
          "name": "params",
          "type": "tuple"
        }
      ],
      "name": "mint",
      "outputs": [
        {
          "internalType": "uint256",
          "name": "tokenId",
          "type": "uint256"
        },
        {
          "internalType": "uint96",
          "name": "liquidityD8",
          "type": "uint96"
        },
        {
          "internalType": "uint256",
          "name": "amount0",
          "type": "uint256"
        },
        {
          "internalType": "uint256",
          "name": "amount1",
          "type": "uint256"
        }
      ],
      "stateMutability": "payable",
      "type": "function"
    },
    {
      "inputs": [
        {
          "internalType": "address",
          "name": "token0",
          "type": "address"
        },
        {
          "internalType": "address",
          "name": "token1",
          "type": "address"
        },
        {
          "internalType": "uint256",
          "name": "amount0",
          "type": "uint256"
        },
        {
          "internalType": "uint256",
          "name": "amount1",
          "type": "uint256"
        },
        {
          "internalType": "bytes",
          "name": "data",
          "type": "bytes"
        }
      ],
      "name": "mintCallback",
      "outputs": [],
      "stateMutability": "nonpayable",
      "type": "function"
    },
    {
      "inputs": [
        {
          "internalType": "bytes[]",
          "name": "data",
          "type": "bytes[]"
        }
      ],
      "name": "multicall",
      "outputs": [
        {
          "internalType": "bytes[]",
          "name": "results",
          "type": "bytes[]"
        }
      ],
      "stateMutability": "payable",
      "type": "function"
    },
    {
      "inputs": [],
      "name": "name",
      "outputs": [
        {
          "internalType": "string",
          "name": "",
          "type": "string"
        }
      ],
      "stateMutability": "view",
      "type": "function"
    },
    {
      "inputs": [
        {
          "internalType": "uint256",
          "name": "",
          "type": "uint256"
        }
      ],
      "name": "nonces",
      "outputs": [
        {
          "internalType": "uint256",
          "name": "",
          "type": "uint256"
        }
      ],
      "stateMutability": "view",
      "type": "function"
    },
    {
      "inputs": [
        {
          "internalType": "uint256",
          "name": "tokenId",
          "type": "uint256"
        }
      ],
      "name": "ownerOf",
      "outputs": [
        {
          "internalType": "address",
          "name": "",
          "type": "address"
        }
      ],
      "stateMutability": "view",
      "type": "function"
    },
    {
      "inputs": [
        {
          "internalType": "bytes32",
          "name": "",
          "type": "bytes32"
        }
      ],
      "name": "pairIdsByPoolId",
      "outputs": [
        {
          "internalType": "uint40",
          "name": "",
          "type": "uint40"
        }
      ],
      "stateMutability": "view",
      "type": "function"
    },
    {
      "inputs": [
        {
          "internalType": "uint40",
          "name": "",
          "type": "uint40"
        }
      ],
      "name": "pairs",
      "outputs": [
        {
          "internalType": "address",
          "name": "token0",
          "type": "address"
        },
        {
          "internalType": "address",
          "name": "token1",
          "type": "address"
        }
      ],
      "stateMutability": "view",
      "type": "function"
    },
    {
      "inputs": [
        {
          "internalType": "address",
          "name": "spender",
          "type": "address"
        },
        {
          "internalType": "uint256",
          "name": "tokenId",
          "type": "uint256"
        },
        {
          "internalType": "uint256",
          "name": "deadline",
          "type": "uint256"
        },
        {
          "internalType": "uint8",
          "name": "v",
          "type": "uint8"
        },
        {
          "internalType": "bytes32",
          "name": "r",
          "type": "bytes32"
        },
        {
          "internalType": "bytes32",
          "name": "s",
          "type": "bytes32"
        }
      ],
      "name": "permit",
      "outputs": [],
      "stateMutability": "payable",
      "type": "function"
    },
    {
      "inputs": [
        {
          "internalType": "uint256",
          "name": "",
          "type": "uint256"
        }
      ],
      "name": "positionsByTokenId",
      "outputs": [
        {
          "internalType": "address",
          "name": "owner",
          "type": "address"
        },
        {
          "internalType": "uint40",
          "name": "pairId",
          "type": "uint40"
        },
        {
          "internalType": "uint8",
          "name": "tierId",
          "type": "uint8"
        },
        {
          "internalType": "int24",
          "name": "tickLower",
          "type": "int24"
        },
        {
          "internalType": "int24",
          "name": "tickUpper",
          "type": "int24"
        }
      ],
      "stateMutability": "view",
      "type": "function"
    },
    {
      "inputs": [],
      "name": "refundETH",
      "outputs": [],
      "stateMutability": "payable",
      "type": "function"
    },
    {
      "inputs": [
        {
          "components": [
            {
              "internalType": "uint256",
              "name": "tokenId",
              "type": "uint256"
            },
            {
              "internalType": "uint96",
              "name": "liquidityD8",
              "type": "uint96"
            },
            {
              "internalType": "uint256",
              "name": "amount0Min",
              "type": "uint256"
            },
            {
              "internalType": "uint256",
              "name": "amount1Min",
              "type": "uint256"
            },
            {
              "internalType": "address",
              "name": "withdrawTo",
              "type": "address"
            },
            {
              "internalType": "bool",
              "name": "collectAllFees",
              "type": "bool"
            },
            {
              "internalType": "bool",
              "name": "settled",
              "type": "bool"
            }
          ],
          "internalType": "struct PositionManager.RemoveLiquidityParams",
          "name": "params",
          "type": "tuple"
        }
      ],
      "name": "removeLiquidity",
      "outputs": [
        {
          "internalType": "uint256",
          "name": "amount0",
          "type": "uint256"
        },
        {
          "internalType": "uint256",
          "name": "amount1",
          "type": "uint256"
        },
        {
          "internalType": "uint256",
          "name": "feeAmount0",
          "type": "uint256"
        },
        {
          "internalType": "uint256",
          "name": "feeAmount1",
          "type": "uint256"
        }
      ],
      "stateMutability": "payable",
      "type": "function"
    },
    {
      "inputs": [
        {
          "internalType": "address",
          "name": "from",
          "type": "address"
        },
        {
          "internalType": "address",
          "name": "to",
          "type": "address"
        },
        {
          "internalType": "uint256",
          "name": "tokenId",
          "type": "uint256"
        }
      ],
      "name": "safeTransferFrom",
      "outputs": [],
      "stateMutability": "nonpayable",
      "type": "function"
    },
    {
      "inputs": [
        {
          "internalType": "address",
          "name": "from",
          "type": "address"
        },
        {
          "internalType": "address",
          "name": "to",
          "type": "address"
        },
        {
          "internalType": "uint256",
          "name": "tokenId",
          "type": "uint256"
        },
        {
          "internalType": "bytes",
          "name": "_data",
          "type": "bytes"
        }
      ],
      "name": "safeTransferFrom",
      "outputs": [],
      "stateMutability": "nonpayable",
      "type": "function"
    },
    {
      "inputs": [
        {
          "internalType": "address",
          "name": "token",
          "type": "address"
        },
        {
          "internalType": "uint256",
          "name": "value",
          "type": "uint256"
        },
        {
          "internalType": "uint256",
          "name": "deadline",
          "type": "uint256"
        },
        {
          "internalType": "uint8",
          "name": "v",
          "type": "uint8"
        },
        {
          "internalType": "bytes32",
          "name": "r",
          "type": "bytes32"
        },
        {
          "internalType": "bytes32",
          "name": "s",
          "type": "bytes32"
        }
      ],
      "name": "selfPermit",
      "outputs": [],
      "stateMutability": "payable",
      "type": "function"
    },
    {
      "inputs": [
        {
          "internalType": "address",
          "name": "token",
          "type": "address"
        },
        {
          "internalType": "uint256",
          "name": "nonce",
          "type": "uint256"
        },
        {
          "internalType": "uint256",
          "name": "expiry",
          "type": "uint256"
        },
        {
          "internalType": "uint8",
          "name": "v",
          "type": "uint8"
        },
        {
          "internalType": "bytes32",
          "name": "r",
          "type": "bytes32"
        },
        {
          "internalType": "bytes32",
          "name": "s",
          "type": "bytes32"
        }
      ],
      "name": "selfPermitAllowed",
      "outputs": [],
      "stateMutability": "payable",
      "type": "function"
    },
    {
      "inputs": [
        {
          "internalType": "address",
          "name": "operator",
          "type": "address"
        },
        {
          "internalType": "bool",
          "name": "approved",
          "type": "bool"
        }
      ],
      "name": "setApprovalForAll",
      "outputs": [],
      "stateMutability": "nonpayable",
      "type": "function"
    },
    {
      "inputs": [
        {
          "internalType": "uint256",
          "name": "tokenId",
          "type": "uint256"
        },
        {
          "internalType": "uint8",
          "name": "limitOrderType",
          "type": "uint8"
        }
      ],
      "name": "setLimitOrderType",
      "outputs": [],
      "stateMutability": "payable",
      "type": "function"
    },
    {
      "inputs": [
        {
          "internalType": "address",
          "name": "descriptor",
          "type": "address"
        }
      ],
      "name": "setTokenDescriptor",
      "outputs": [],
      "stateMutability": "nonpayable",
      "type": "function"
    },
    {
      "inputs": [
        {
          "internalType": "address",
          "name": "setter",
          "type": "address"
        }
      ],
      "name": "setTokenDescriptorSetter",
      "outputs": [],
      "stateMutability": "nonpayable",
      "type": "function"
    },
    {
      "inputs": [
        {
          "internalType": "bytes4",
          "name": "interfaceId",
          "type": "bytes4"
        }
      ],
      "name": "supportsInterface",
      "outputs": [
        {
          "internalType": "bool",
          "name": "",
          "type": "bool"
        }
      ],
      "stateMutability": "view",
      "type": "function"
    },
    {
      "inputs": [
        {
          "internalType": "address",
          "name": "tokenIn",
          "type": "address"
        },
        {
          "internalType": "address",
          "name": "tokenOut",
          "type": "address"
        },
        {
          "internalType": "uint256",
          "name": "amountIn",
          "type": "uint256"
        },
        {
          "internalType": "uint256",
          "name": "amountOut",
          "type": "uint256"
        },
        {
          "internalType": "bytes",
          "name": "data",
          "type": "bytes"
        }
      ],
      "name": "swapCallback",
      "outputs": [],
      "stateMutability": "nonpayable",
      "type": "function"
    },
    {
      "inputs": [],
      "name": "symbol",
      "outputs": [
        {
          "internalType": "string",
          "name": "",
          "type": "string"
        }
      ],
      "stateMutability": "view",
      "type": "function"
    },
    {
      "inputs": [],
      "name": "tokenDescriptor",
      "outputs": [
        {
          "internalType": "address",
          "name": "",
          "type": "address"
        }
      ],
      "stateMutability": "view",
      "type": "function"
    },
    {
      "inputs": [],
      "name": "tokenDescriptorSetter",
      "outputs": [
        {
          "internalType": "address",
          "name": "",
          "type": "address"
        }
      ],
      "stateMutability": "view",
      "type": "function"
    },
    {
      "inputs": [
        {
          "internalType": "uint256",
          "name": "tokenId",
          "type": "uint256"
        }
      ],
      "name": "tokenURI",
      "outputs": [
        {
          "internalType": "string",
          "name": "",
          "type": "string"
        }
      ],
      "stateMutability": "view",
      "type": "function"
    },
    {
      "inputs": [],
      "name": "totalSupply",
      "outputs": [
        {
          "internalType": "uint256",
          "name": "",
          "type": "uint256"
        }
      ],
      "stateMutability": "view",
      "type": "function"
    },
    {
      "inputs": [
        {
          "internalType": "address",
          "name": "from",
          "type": "address"
        },
        {
          "internalType": "address",
          "name": "to",
          "type": "address"
        },
        {
          "internalType": "uint256",
          "name": "tokenId",
          "type": "uint256"
        }
      ],
      "name": "transferFrom",
      "outputs": [],
      "stateMutability": "nonpayable",
      "type": "function"
    },
    {
      "inputs": [
        {
          "internalType": "uint256",
          "name": "amountMinimum",
          "type": "uint256"
        },
        {
          "internalType": "address",
          "name": "recipient",
          "type": "address"
        }
      ],
      "name": "unwrapWETH",
      "outputs": [],
      "stateMutability": "payable",
      "type": "function"
    },
    {
      "inputs": [
        {
          "internalType": "address",
          "name": "recipient",
          "type": "address"
        },
        {
          "internalType": "address",
          "name": "token",
          "type": "address"
        },
        {
          "internalType": "uint256",
          "name": "amount",
          "type": "uint256"
        }
      ],
      "name": "withdraw",
      "outputs": [],
      "stateMutability": "payable",
      "type": "function"
    },
    {
      "stateMutability": "payable",
      "type": "receive"
    }
  ],
  "bytecode": "0x60e0604052600a805464ffffffffff191660011790553480156200002257600080fd5b506040516200625e3803806200625e8339810160408190526200004591620001bb565b604080518082018252600f81526e26bab33334b7102837b9b4ba34b7b760891b60208083019182528351808501909452600a8452694d554646494e2d504f5360b01b908401526001600160a01b0380861660a0528416608052815191929183918391620000b591600091620000f8565b508051620000cb906001906020840190620000f8565b5050825160209093019290922060c0525050600680546001600160a01b0319163317905550620002309050565b8280546200010690620001f3565b90600052602060002090601f0160209004810192826200012a576000855562000175565b82601f106200014557805160ff191683800117855562000175565b8280016001018555821562000175579182015b828111156200017557825182559160200191906001019062000158565b506200018392915062000187565b5090565b5b8082111562000183576000815560010162000188565b80516001600160a01b0381168114620001b657600080fd5b919050565b60008060408385031215620001cf57600080fd5b620001da836200019e565b9150620001ea602084016200019e565b90509250929050565b600181811c908216806200020857607f821691505b602082108114156200022a57634e487b7160e01b600052602260045260246000fd5b50919050565b60805160a05160c051615f3a620003246000396000818161056a0152611dea0152600081816105f501528181611058015281816111bf01528181611305015281816114470152818161156e015281816117440152818161196101528181611a0e01528181611bc80152818161245e0152818161260101528181612a3401528181612c46015281816130a10152818161310801528181613474015281816135bf01528181613e1301528181613eba01528181613fb401526140c00152600081816103320152818161068f015281816131cb015281816132c501528181613d2e01528181613d740152613e420152615f3a6000f3fe6080604052600436106103225760003560e01c80636352211e116101a5578063b88d4fde116100ec578063d9caed1211610095578063eb02c3011161006f578063eb02c30114610ac1578063f0db800c14610b87578063f3995c6714610be8578063f5a9817514610bfb57600080fd5b8063d9caed1214610a52578063e16d9ce514610a65578063e985e9c514610a7857600080fd5b8063c87b56dd116100c6578063c87b56dd146109e2578063ce3fa4dd14610a02578063d9899ff014610a3f57600080fd5b8063b88d4fde146108b8578063bb01881a146108d8578063c2814b0c146108f857600080fd5b8063a22cb4651161014e578063ae4bf64b11610128578063ae4bf64b14610865578063b6dc7ea314610885578063b80f55c9146108a557600080fd5b8063a22cb46514610812578063a73970cf14610832578063ac9650d81461084557600080fd5b80637c2d10fd1161017f5780637c2d10fd146107aa5780638340f549146107ea57806395d89b41146107fd57600080fd5b80636352211e1461075757806370a08231146107775780637ac2ff7b1461079757600080fd5b80633644e515116102695780634aa4a4fc116102125780635325261c116101ec5780635325261c146106f15780635a9d7a68146107245780635dd582041461074457600080fd5b80634aa4a4fc1461067d5780634f594557146106b157806351149742146106d157600080fd5b806342842e0e1161024357806342842e0e1461062a57806345fc75ad1461064a5780634659a4941461066a57600080fd5b80633644e5151461052e578063365a86fc146105e35780633b0812141461061757600080fd5b806318160ddd116102cb5780632e85d3ae116102a55780632e85d3ae1461049d5780632f8bc1ec146104b057806330adf81f146104fa57600080fd5b806318160ddd1461045557806323b872dd1461046a5780632809a6591461048a57600080fd5b8063095ea7b3116102fc578063095ea7b3146103f257806312210e8a14610412578063141a468c1461041a57600080fd5b806301ffc9a71461036357806306fdde0314610398578063081812fc146103ba57600080fd5b3661035e57336001600160a01b037f0000000000000000000000000000000000000000000000000000000000000000161461035c57600080fd5b005b600080fd5b34801561036f57600080fd5b5061038361037e366004614e40565b610c0e565b60405190151581526020015b60405180910390f35b3480156103a457600080fd5b506103ad610cf3565b60405161038f9190614eb5565b3480156103c657600080fd5b506103da6103d5366004614ec8565b610d85565b6040516001600160a01b03909116815260200161038f565b3480156103fe57600080fd5b5061035c61040d366004614ef6565b610e30565b61035c610f62565b34801561042657600080fd5b50610447610435366004614ec8565b60076020526000908152604090205481565b60405190815260200161038f565b34801561046157600080fd5b50610447610f74565b34801561047657600080fd5b5061035c610485366004614f22565b610fc3565b610447610498366004614f71565b61104a565b6104476104ab366004614f71565b6111b1565b3480156104bc57600080fd5b506104e46104cb366004614ec8565b600c6020526000908152604090205464ffffffffff1681565b60405164ffffffffff909116815260200161038f565b34801561050657600080fd5b506104477f49ecf333e5b8c95c40fdafc95c1ad136e8914a8fb55e9dc8bb01eaa83a2df9ad81565b34801561053a57600080fd5b50610447604080517f8b73c3c69bb8fe3d512ecc4cf759cc79239f7b179b0ffacaa9a75d522b39400f60208201527f0000000000000000000000000000000000000000000000000000000000000000918101919091527fc89efdaa54c0f20c7adf612882df0950f5a951637e0307cdcb4c672f298b8bc660608201524660808201523060a082015260009060c00160405160208183030381529060405280519060200120905090565b3480156105ef57600080fd5b506103da7f000000000000000000000000000000000000000000000000000000000000000081565b61035c610625366004615038565b611301565b34801561063657600080fd5b5061035c610645366004614f22565b611548565b34801561065657600080fd5b5061035c6106653660046150dd565b611563565b61035c610678366004615168565b6115b4565b34801561068957600080fd5b506103da7f000000000000000000000000000000000000000000000000000000000000000081565b3480156106bd57600080fd5b5061035c6106cc3660046151c4565b6116f3565b3480156106dd57600080fd5b5061035c6106ec3660046150dd565b611739565b6107046106ff3660046151e1565b6117a0565b60408051948552602085019390935291830152606082015260800161038f565b34801561073057600080fd5b506005546103da906001600160a01b031681565b61035c6107523660046151f3565b611b83565b34801561076357600080fd5b506103da610772366004614ec8565b611c44565b34801561078357600080fd5b506104476107923660046151c4565b611ccf565b61035c6107a5366004615168565b611d69565b6107bd6107b836600461523b565b6121cd565b604080519485526bffffffffffffffffffffffff909316602085015291830152606082015260800161038f565b61035c6107f8366004614f22565b61245c565b34801561080957600080fd5b506103ad612501565b34801561081e57600080fd5b5061035c61082d36600461524e565b612510565b610447610840366004615287565b6125f3565b610858610853366004615365565b6127bb565b60405161038f91906153a7565b34801561087157600080fd5b506006546103da906001600160a01b031681565b34801561089157600080fd5b5061035c6108a03660046151c4565b6128d9565b61035c6108b3366004615365565b61291f565b3480156108c457600080fd5b5061035c6108d3366004615496565b612bad565b3480156108e457600080fd5b5061035c6108f3366004615545565b612c3b565b34801561090457600080fd5b5061099e610913366004614ec8565b6009602052600090815260409020546001600160a01b0381169064ffffffffff740100000000000000000000000000000000000000008204169060ff790100000000000000000000000000000000000000000000000000820416907a0100000000000000000000000000000000000000000000000000008104600290810b91600160e81b9004900b85565b604080516001600160a01b03909616865264ffffffffff909416602086015260ff90921692840192909252600291820b6060840152900b608082015260a00161038f565b3480156109ee57600080fd5b506103ad6109fd366004614ec8565b612c8c565b610a15610a103660046155a1565b612da8565b604080516bffffffffffffffffffffffff909416845260208401929092529082015260600161038f565b61035c610a4d3660046155b3565b612f59565b61035c610a60366004614f22565b613106565b61035c610a733660046155d8565b61319a565b348015610a8457600080fd5b50610383610a933660046155fd565b6001600160a01b03918216600090815260046020908152604080832093909416825291909152205460ff1690565b348015610acd57600080fd5b50610ae1610adc366004614ec8565b613333565b604080516001600160a01b039889168152968816602080890191909152979095168686015260ff938416606080880191909152600293840b6080808901919091529290930b60a087015280516bffffffffffffffffffffffff1660c08701529586015169ffffffffffffffffffff90811660e087015293860151909316610100850152840151166101208301529091015163ffffffff166101408201526101600161038f565b348015610b9357600080fd5b50610bc8610ba236600461562b565b600b60205260009081526040902080546001909101546001600160a01b03918216911682565b604080516001600160a01b0393841681529290911660208301520161038f565b61035c610bf6366004615168565b613560565b610447610c09366004615287565b6135b1565b60007fffffffff0000000000000000000000000000000000000000000000000000000082167f80ac58cd000000000000000000000000000000000000000000000000000000001480610ca157507fffffffff0000000000000000000000000000000000000000000000000000000082167f5b5e139f00000000000000000000000000000000000000000000000000000000145b80610ced57507f01ffc9a7000000000000000000000000000000000000000000000000000000007fffffffff000000000000000000000000000000000000000000000000000000008316145b92915050565b606060008054610d0290615652565b80601f0160208091040260200160405190810160405280929190818152602001828054610d2e90615652565b8015610d7b5780601f10610d5057610100808354040283529160200191610d7b565b820191906000526020600020905b815481529060010190602001808311610d5e57829003601f168201915b5050505050905090565b6000818152600960205260408120546001600160a01b0316610e145760405162461bcd60e51b815260206004820152602c60248201527f4552433732313a20617070726f76656420717565727920666f72206e6f6e657860448201527f697374656e7420746f6b656e000000000000000000000000000000000000000060648201526084015b60405180910390fd5b506000908152600360205260409020546001600160a01b031690565b6000610e3b82611c44565b9050806001600160a01b0316836001600160a01b03161415610ec55760405162461bcd60e51b815260206004820152602160248201527f4552433732313a20617070726f76616c20746f2063757272656e74206f776e6560448201527f72000000000000000000000000000000000000000000000000000000000000006064820152608401610e0b565b336001600160a01b0382161480610ee15750610ee18133610a93565b610f535760405162461bcd60e51b815260206004820152603860248201527f4552433732313a20617070726f76652063616c6c6572206973206e6f74206f7760448201527f6e6572206e6f7220617070726f76656420666f7220616c6c00000000000000006064820152608401610e0b565b610f5d8383613763565b505050565b4715610f7257610f7233476137de565b565b600854600090610fac906fffffffffffffffffffffffffffffffff70010000000000000000000000000000000082048116911661569d565b6fffffffffffffffffffffffffffffffff16905090565b610fcd3382613823565b61103f5760405162461bcd60e51b815260206004820152603160248201527f4552433732313a207472616e736665722063616c6c6572206973206e6f74206f60448201527f776e6572206e6f7220617070726f7665640000000000000000000000000000006064820152608401610e0b565b610f5d83838361392b565b60008161105681613b21565b7f00000000000000000000000000000000000000000000000000000000000000006001600160a01b0316632ec31fbc8c8c8c6110918d613b5e565b61109a906156ce565b896110a5578b6110a7565b305b8a6110b35760006110bc565b6110bc8d613b94565b8c6110c85760006110d1565b6110d133613b94565b60408051336020820152016040516020818303038152906040526040518963ffffffff1660e01b815260040161110e989796959493929190615707565b60408051808303816000875af115801561112c573d6000803e3d6000fd5b505050506040513d601f19601f820116820180604052508101906111509190615763565b509150868211156111a35760405162461bcd60e51b815260206004820152601260248201527f544f4f5f4d5543485f52455155455354454400000000000000000000000000006044820152606401610e0b565b509998505050505050505050565b6000816111bd81613b21565b7f00000000000000000000000000000000000000000000000000000000000000006001600160a01b0316632ec31fbc8c8c8c6111f88d613b5e565b89611203578b611205565b305b8a61121157600061121a565b61121a8d613b94565b8c61122657600061122f565b61122f33613b94565b60408051336020820152016040516020818303038152906040526040518963ffffffff1660e01b815260040161126c989796959493929190615707565b60408051808303816000875af115801561128a573d6000803e3d6000fd5b505050506040513d601f19601f820116820180604052508101906112ae9190615763565b925050868210156111a35760405162461bcd60e51b815260206004820152601360248201527f544f4f5f4c4954544c455f5245434549564544000000000000000000000000006044820152606401610e0b565b60007f00000000000000000000000000000000000000000000000000000000000000006001600160a01b031663aa5976c1868660405160200161135a9291906001600160a01b0392831681529116602082015260400190565b604051602081830303815290604052805190602001206040518263ffffffff1660e01b815260040161138e91815260200190565b6040805180830381865afa1580156113aa573d6000803e3d6000fd5b505050506040513d601f19601f820116820180604052508101906113ce9190615787565b50905060ff81166115365761140b33866107f86a64000000000000000000006fffffffffffffffffffffffffffffffff8716808204910615150190565b61144533856107f86114306fffffffffffffffffffffffffffffffff871660646157b6565b68010000000000000000808204910615150190565b7f00000000000000000000000000000000000000000000000000000000000000006001600160a01b031663775dfc828686868661148133613b94565b6040517fffffffff0000000000000000000000000000000000000000000000000000000060e088901b1681526001600160a01b03958616600482015294909316602485015262ffffff90911660448401526fffffffffffffffffffffffffffffffff166064830152608482015260a4016020604051808303816000875af1158015611510573d6000803e3d6000fd5b505050506040513d601f19601f8201168201806040525081019061153491906157d5565b505b6115408585613bf0565b505050505050565b610f5d83838360405180602001604052806000815250612bad565b336001600160a01b037f0000000000000000000000000000000000000000000000000000000000000000161461159857600080fd5b831561154057611540866115ae838501856151c4565b86613d2c565b6040513360248201523060448201526064810186905260848101859052600160a482015260ff841660c482015260e4810183905261010481018290526000906001600160a01b03881690638fcbaf0c90610124015b6040516020818303038152906040529060e01b6020820180517bffffffffffffffffffffffffffffffffffffffffffffffffffffffff838183161783525050505060405161165791906157ee565b6000604051808303816000865af19150503d8060008114611694576040519150601f19603f3d011682016040523d82523d6000602084013e611699565b606091505b50509050806116ea5760405162461bcd60e51b815260206004820152600d60248201527f5045524d49545f4641494c4544000000000000000000000000000000000000006044820152606401610e0b565b50505050505050565b6006546001600160a01b0316331461170a57600080fd5b6006805473ffffffffffffffffffffffffffffffffffffffff19166001600160a01b0392909216919091179055565b336001600160a01b037f0000000000000000000000000000000000000000000000000000000000000000161461176e57600080fd5b600061177c828401846151c4565b9050841561178f5761178f878287613d2c565b83156116ea576116ea868286613d2c565b600080808084356117b081613edf565b85356000908152600960209081526040808320815160a0808201845291546001600160a01b03808216835264ffffffffff7401000000000000000000000000000000000000000083041683870181905260ff790100000000000000000000000000000000000000000000000000840481168588019081527a0100000000000000000000000000000000000000000000000000008504600290810b6060808901918252600160e81b909704820b6080808a01918252958d52600b8c528a8d208b51808d018d52815489168152600191909101548816818e019081528c5161012081018e5282518a1681529051909816888e01529351909416868b015251810b95850195909552905190930b9082015291959094909391928301916118d891908d01908d01615824565b6bffffffffffffffffffffffff1681526020018a6000013581526020016119028560000151613b94565b815260200161191760c08c0160a08d01615841565b15159052905061192d60e08a0160c08b01615841565b6119de576040517fdec980ec0000000000000000000000000000000000000000000000000000000081526001600160a01b037f0000000000000000000000000000000000000000000000000000000000000000169063dec980ec9061199690849060040161585e565b6080604051808303816000875af11580156119b5573d6000803e3d6000fd5b505050506040513d601f19601f820116820180604052508101906119d99190615911565b611a86565b6040517fadcef3680000000000000000000000000000000000000000000000000000000081526001600160a01b037f0000000000000000000000000000000000000000000000000000000000000000169063adcef36890611a4390849060040161585e565b6080604051808303816000875af1158015611a62573d6000803e3d6000fd5b505050506040513d601f19601f82011682018060405250810190611a869190615911565b929a509098509650945060408901358810801590611aa8575088606001358710155b611af45760405162461bcd60e51b815260206004820152600e60248201527f507269636520736c6970706167650000000000000000000000000000000000006044820152606401610e0b565b6000611b0660a08b0160808c016151c4565b6001600160a01b031614611b78576000611b20878a615947565b90506000611b2e878a615947565b90508115611b5157611b51611b4960a08d0160808e016151c4565b855184613106565b8015611b7557611b75611b6a60a08d0160808e016151c4565b856020015183613106565b50505b505050509193509193565b604080513360208083019190915282518083039091018152818301928390527faaa9acd2000000000000000000000000000000000000000000000000000000009092527f00000000000000000000000000000000000000000000000000000000000000006001600160a01b03169163aaa9acd291611c0c9188918891889188919060440161595f565b600060405180830381600087803b158015611c2657600080fd5b505af1158015611c3a573d6000803e3d6000fd5b5050505050505050565b6000818152600960205260408120546001600160a01b031680610ced5760405162461bcd60e51b815260206004820152602960248201527f4552433732313a206f776e657220717565727920666f72206e6f6e657869737460448201527f656e7420746f6b656e00000000000000000000000000000000000000000000006064820152608401610e0b565b60006001600160a01b038216611d4d5760405162461bcd60e51b815260206004820152602a60248201527f4552433732313a2062616c616e636520717565727920666f7220746865207a6560448201527f726f2061646472657373000000000000000000000000000000000000000000006064820152608401610e0b565b506001600160a01b031660009081526002602052604090205490565b42841015611db95760405162461bcd60e51b815260206004820152600e60248201527f5065726d697420457870697265640000000000000000000000000000000000006044820152606401610e0b565b6000611e63604080517f8b73c3c69bb8fe3d512ecc4cf759cc79239f7b179b0ffacaa9a75d522b39400f60208201527f0000000000000000000000000000000000000000000000000000000000000000918101919091527fc89efdaa54c0f20c7adf612882df0950f5a951637e0307cdcb4c672f298b8bc660608201524660808201523060a082015260009060c00160405160208183030381529060405280519060200120905090565b600087815260076020526040812080547f49ecf333e5b8c95c40fdafc95c1ad136e8914a8fb55e9dc8bb01eaa83a2df9ad928b928b9291611ea383615997565b909155506040805160208101959095526001600160a01b03909316928401929092526060830152608082015260a0810187905260c00160405160208183030381529060405280519060200120604051602001611f319291907f190100000000000000000000000000000000000000000000000000000000000081526002810192909252602282015260420190565b6040516020818303038152906040528051906020012090506000611f5487611c44565b9050803b156120a957604080516020810186905280820185905260f887901b7fff000000000000000000000000000000000000000000000000000000000000001660608201528151604181830301815260618201928390527f1626ba7e000000000000000000000000000000000000000000000000000000009092526001600160a01b03831691631626ba7e91611fef9186916065016159b2565b602060405180830381865afa15801561200c573d6000803e3d6000fd5b505050506040513d601f19601f8201168201806040525081019061203091906159cb565b7bffffffffffffffffffffffffffffffffffffffffffffffffffffffff1916631626ba7e60e01b146120a45760405162461bcd60e51b815260206004820152600c60248201527f556e617574686f72697a656400000000000000000000000000000000000000006044820152606401610e0b565b6121c3565b6040805160008082526020820180845285905260ff881692820192909252606081018690526080810185905260019060a0016020604051602081039080840390855afa1580156120fd573d6000803e3d6000fd5b5050604051601f1901519150506001600160a01b0381166121605760405162461bcd60e51b815260206004820152601160248201527f496e76616c6964207369676e61747572650000000000000000000000000000006044820152606401610e0b565b816001600160a01b0316816001600160a01b0316146121c15760405162461bcd60e51b815260206004820152600c60248201527f556e617574686f72697a656400000000000000000000000000000000000000006044820152606401610e0b565b505b611c3a8888613763565b60008080806121ec6121e7610140870161012088016151c4565b613f69565b935060006040518060a001604052808761012001602081019061220f91906151c4565b6001600160a01b0316815260209081019061224590612230908a018a6151c4565b61224060408b0160208c016151c4565b613bf0565b64ffffffffff1681526020016122616060890160408a016159e8565b60ff1681526020016122796080890160608a01615a14565b60020b815260200161229160a0890160808a01615a14565b60020b9052600086815260096020908152604091829020835181548584015186860151606088015160808901516001600160a01b039095167fffffffffffffff00000000000000000000000000000000000000000000000000909416939093177401000000000000000000000000000000000000000064ffffffffff90931692909202919091177fffffff00000000ffffffffffffffffffffffffffffffffffffffffffffffffff1679010000000000000000000000000000000000000000000000000060ff909216919091027fffffff000000ffffffffffffffffffffffffffffffffffffffffffffffffffff16177a01000000000000000000000000000000000000000000000000000062ffffff92831602177cffffffffffffffffffffffffffffffffffffffffffffffffffffffffff16600160e81b9190921602179055815180830190925291925061244e9183919081906123f2908b018b6151c4565b6001600160a01b0316815260200189602001602081019061241391906151c4565b6001600160a01b0316815250878960a001358a60c001358b60e001358c61010001358d6101400160208101906124499190615841565b613faa565b969891975095945092505050565b7f00000000000000000000000000000000000000000000000000000000000000006001600160a01b031663aaa9acd23061249586613b94565b6040805133602082015287918791016040516020818303038152906040526040518663ffffffff1660e01b81526004016124d395949392919061595f565b600060405180830381600087803b1580156124ed57600080fd5b505af11580156116ea573d6000803e3d6000fd5b606060018054610d0290615652565b6001600160a01b0382163314156125695760405162461bcd60e51b815260206004820152601960248201527f4552433732313a20617070726f766520746f2063616c6c6572000000000000006044820152606401610e0b565b3360008181526004602090815260408083206001600160a01b0387168085529083529281902080547fffffffffffffffffffffffffffffffffffffffffffffffffffffffffffffff001686151590811790915590519081529192917f17307eab39ab6107e8899845ad3d59bd9653f200f220920489ca2b5937696c31910160405180910390a35050565b6000816125ff81613b21565b7f00000000000000000000000000000000000000000000000000000000000000006001600160a01b031663c6883ec56040518060c001604052808d8d8080601f01602080910402602001604051908101604052809392919081815260200183838082843760009201919091525050509082525060200161267e8c613b5e565b612687906156ce565b8152602001876126975789612699565b305b6001600160a01b03168152602001876126b35760006126bc565b6126bc8a613b94565b8152602001886126cd5760006126d6565b6126d633613b94565b8152604080513360208281019190915290920191016040516020818303038152906040528152506040518263ffffffff1660e01b81526004016127199190615a31565b60408051808303816000875af1158015612737573d6000803e3d6000fd5b505050506040513d601f19601f8201168201806040525081019061275b9190615763565b509150868211156127ae5760405162461bcd60e51b815260206004820152601260248201527f544f4f5f4d5543485f52455155455354454400000000000000000000000000006044820152606401610e0b565b5098975050505050505050565b60608167ffffffffffffffff8111156127d6576127d6615427565b60405190808252806020026020018201604052801561280957816020015b60608152602001906001900390816127f45790505b50905060005b828110156128d2576000803086868581811061282d5761282d615aa4565b905060200281019061283f9190615aba565b60405161284d929190615b1f565b600060405180830381855af49150503d8060008114612888576040519150601f19603f3d011682016040523d82523d6000602084013e61288d565b606091505b5091509150816128aa5780516128a257600080fd5b805181602001fd5b808484815181106128bd576128bd615aa4565b6020908102919091010152505060010161280f565b5092915050565b6006546001600160a01b031633146128f057600080fd5b6005805473ffffffffffffffffffffffffffffffffffffffff19166001600160a01b0392909216919091179055565b60005b81811015610f5d57600083838381811061293e5761293e615aa4565b90506020020135905061295081613edf565b6000818152600960209081526040808320815160a08101835290546001600160a01b03808216835274010000000000000000000000000000000000000000820464ffffffffff16838601819052790100000000000000000000000000000000000000000000000000830460ff16848601527a0100000000000000000000000000000000000000000000000000008304600290810b606080870191909152600160e81b909404900b60808501528652600b85528386208451808601865281548316808252600190920154831681880181905286519788019290925294860152919492937f00000000000000000000000000000000000000000000000000000000000000009092169163c625e3c3910160408051601f19818403018152828252805160209091012090870151606088015160808901517fffffffff0000000000000000000000000000000000000000000000000000000060e087901b1685526004850193909352306024850152604484018a905260ff9091166064840152600290810b60848401520b60a482015260c40160a060405180830381865afa158015612afc573d6000803e3d6000fd5b505050506040513d601f19601f82011682018060405250810190612b209190615b49565b80519091506bffffffffffffffffffffffff1615612b805760405162461bcd60e51b815260206004820152600960248201527f4e4f545f454d50545900000000000000000000000000000000000000000000006044820152606401610e0b565b612b8984614278565b50505060009081526009602052604081205580612ba581615997565b915050612922565b612bb73383613823565b612c295760405162461bcd60e51b815260206004820152603160248201527f4552433732313a207472616e736665722063616c6c6572206973206e6f74206f60448201527f776e6572206e6f7220617070726f7665640000000000000000000000000000006064820152608401610e0b565b612c358484848461432c565b50505050565b336001600160a01b037f00000000000000000000000000000000000000000000000000000000000000001614612c7057600080fd5b8215612c3557612c3584612c86838501856151c4565b85613d2c565b6000818152600960205260409020546060906001600160a01b0316612cf35760405162461bcd60e51b815260206004820152600f60248201527f746f6b656e206e6f7420657869737400000000000000000000000000000000006044820152606401610e0b565b6005546001600160a01b0316612d185760405180602001604052806000815250610ced565b6005546040517fe9dc6375000000000000000000000000000000000000000000000000000000008152306004820152602481018490526001600160a01b039091169063e9dc637590604401600060405180830381865afa158015612d80573d6000803e3d6000fd5b505050506040513d6000823e601f3d908101601f19168201604052610ced9190810190615be6565b600080808335612db781613edf565b600060096000876000013581526020019081526020016000206040518060a00160405290816000820160009054906101000a90046001600160a01b03166001600160a01b03166001600160a01b031681526020016000820160149054906101000a900464ffffffffff1664ffffffffff1664ffffffffff1681526020016000820160199054906101000a900460ff1660ff1660ff16815260200160008201601a9054906101000a900460020b60020b60020b815260200160008201601d9054906101000a900460020b60020b60020b815250509050612f4a81600b6000846020015164ffffffffff1664ffffffffff1681526020019081526020016000206040518060400160405290816000820160009054906101000a90046001600160a01b03166001600160a01b03166001600160a01b031681526020016001820160009054906101000a90046001600160a01b03166001600160a01b03166001600160a01b031681525050886000013589602001358a604001358b606001358c608001358d60a00160208101906124499190615841565b91989097509095509350505050565b81612f6381613edf565b6000838152600960209081526040808320815160a08101835290546001600160a01b03808216835264ffffffffff7401000000000000000000000000000000000000000083041683860181905260ff790100000000000000000000000000000000000000000000000000840481168587019081527a0100000000000000000000000000000000000000000000000000008504600290810b60608801908152600160e81b909604810b60808801908152938a52600b895298879020875180890189528154861680825260019092015486169981018a905291519551935197517f8e9059d600000000000000000000000000000000000000000000000000000000815260048101919091526024810198909852938116604488015290870b60648701529390950b608485015260a4840188905291861660c48401529290917f000000000000000000000000000000000000000000000000000000000000000090911690638e9059d69060e401600060405180830381600087803b1580156130e757600080fd5b505af11580156130fb573d6000803e3d6000fd5b505050505050505050565b7f00000000000000000000000000000000000000000000000000000000000000006001600160a01b0316634b2084e38461313f33613b94565b6040517fffffffff0000000000000000000000000000000000000000000000000000000060e085901b1681526001600160a01b03928316600482015260248101919091529085166044820152606481018490526084016124d3565b6040517f70a082310000000000000000000000000000000000000000000000000000000081523060048201526000907f00000000000000000000000000000000000000000000000000000000000000006001600160a01b0316906370a0823190602401602060405180830381865afa15801561321a573d6000803e3d6000fd5b505050506040513d601f19601f8201168201806040525081019061323e91906157d5565b9050828110156132905760405162461bcd60e51b815260206004820152601160248201527f496e73756666696369656e7420574554480000000000000000000000000000006044820152606401610e0b565b8015610f5d576040517f2e1a7d4d000000000000000000000000000000000000000000000000000000008152600481018290527f00000000000000000000000000000000000000000000000000000000000000006001600160a01b031690632e1a7d4d90602401600060405180830381600087803b15801561331157600080fd5b505af1158015613325573d6000803e3d6000fd5b50505050610f5d82826137de565b6040805160a0810182526000808252602080830182905282840182905260608301829052608083018290528482526009905291822080546001600160a01b03811693928392790100000000000000000000000000000000000000000000000000830460ff16927a0100000000000000000000000000000000000000000000000000008104600290810b93600160e81b909204900b91876134155760405162461bcd60e51b815260206004820152600a60248201527f4e4f545f455849535453000000000000000000000000000000000000000000006044820152606401610e0b565b805474010000000000000000000000000000000000000000900464ffffffffff166000908152600b60209081526040918290208054600182015484516001600160a01b03928316948101859052908216948101859052929a50929850917f0000000000000000000000000000000000000000000000000000000000000000169063c625e3c39060600160408051601f198184030181529082905280516020909101207fffffffff0000000000000000000000000000000000000000000000000000000060e084901b1682526004820152306024820152604481018d905260ff89166064820152600288810b608483015287900b60a482015260c40160a060405180830381865afa15801561352d573d6000803e3d6000fd5b505050506040513d601f19601f820116820180604052508101906135519190615b49565b92505050919395979092949650565b604051336024820152306044820152606481018690526084810185905260ff841660a482015260c4810183905260e481018290526000906001600160a01b0388169063d505accf9061010401611609565b6000816135bd81613b21565b7f00000000000000000000000000000000000000000000000000000000000000006001600160a01b031663c6883ec56040518060c001604052808d8d8080601f01602080910402602001604051908101604052809392919081815260200183838082843760009201919091525050509082525060200161363c8c613b5e565b81526020018761364c578961364e565b305b6001600160a01b0316815260200187613668576000613671565b6136718a613b94565b81526020018861368257600061368b565b61368b33613b94565b8152604080513360208281019190915290920191016040516020818303038152906040528152506040518263ffffffff1660e01b81526004016136ce9190615a31565b60408051808303816000875af11580156136ec573d6000803e3d6000fd5b505050506040513d601f19601f820116820180604052508101906137109190615763565b925050868210156127ae5760405162461bcd60e51b815260206004820152601360248201527f544f4f5f4c4954544c455f5245434549564544000000000000000000000000006044820152606401610e0b565b6000818152600360205260409020805473ffffffffffffffffffffffffffffffffffffffff19166001600160a01b03841690811790915581906137a582611c44565b6001600160a01b03167f8c5be1e5ebec7d5bd14f71427d1e84f3dd0314c0f7b2291e5b200ac8c7c3b92560405160405180910390a45050565b600080600080600085875af1905080610f5d576040517fe293b56b00000000000000000000000000000000000000000000000000000000815260040160405180910390fd5b6000818152600960205260408120546001600160a01b03166138ad5760405162461bcd60e51b815260206004820152602c60248201527f4552433732313a206f70657261746f7220717565727920666f72206e6f6e657860448201527f697374656e7420746f6b656e00000000000000000000000000000000000000006064820152608401610e0b565b60006138b883611c44565b9050806001600160a01b0316846001600160a01b031614806138f35750836001600160a01b03166138e884610d85565b6001600160a01b0316145b8061392357506001600160a01b0380821660009081526004602090815260408083209388168352929052205460ff165b949350505050565b826001600160a01b031661393e82611c44565b6001600160a01b0316146139ba5760405162461bcd60e51b815260206004820152602960248201527f4552433732313a207472616e73666572206f6620746f6b656e2074686174206960448201527f73206e6f74206f776e00000000000000000000000000000000000000000000006064820152608401610e0b565b6001600160a01b038216613a355760405162461bcd60e51b8152602060048201526024808201527f4552433732313a207472616e7366657220746f20746865207a65726f2061646460448201527f72657373000000000000000000000000000000000000000000000000000000006064820152608401610e0b565b613a408383836143b5565b613a4b600082613763565b6001600160a01b0383166000908152600260205260408120805460019290613a74908490615c54565b90915550506001600160a01b0382166000908152600260205260408120805460019290613aa2908490615947565b90915550506000818152600960205260409020805473ffffffffffffffffffffffffffffffffffffffff19166001600160a01b03841617905580826001600160a01b0316846001600160a01b03167fddf252ad1be2c89b69c2b068fc378daa952ba7f163c4a11628f55a4df523b3ef60405160405180910390a4505050565b80421115613b5b576040517f70f65caa00000000000000000000000000000000000000000000000000000000815260040160405180910390fd5b50565b60007f7fffffffffffffffffffffffffffffffffffffffffffffffffffffffffffffff821115613b9057613b90615c6b565b5090565b6001600160a01b03811680613beb5760405162461bcd60e51b815260206004820152600f60248201527f5a45524f5f4143435f5245465f494400000000000000000000000000000000006044820152606401610e0b565b919050565b6000808383604051602001613c1b9291906001600160a01b0392831681529116602082015260400190565b60408051601f1981840301815291815281516020928301206000818152600c90935291205464ffffffffff1692509050816128d257600a805464ffffffffff16906000613c6783615c81565b82546101009290920a64ffffffffff8181021990931691831602179091556000928352600c6020908152604080852080547fffffffffffffffffffffffffffffffffffffffffffffffffffffff0000000000169385169384179055805180820182526001600160a01b039889168152968816878301908152928552600b9091529092209351845473ffffffffffffffffffffffffffffffffffffffff199081169187169190911785559151600194909401805490921693909416929092179091555090565b7f00000000000000000000000000000000000000000000000000000000000000006001600160a01b0316836001600160a01b0316148015613d6d5750804710155b15613eb3577f00000000000000000000000000000000000000000000000000000000000000006001600160a01b031663d0e30db0826040518263ffffffff1660e01b81526004016000604051808303818588803b158015613dcd57600080fd5b505af1158015613de1573d6000803e3d6000fd5b50506040517fa9059cbb0000000000000000000000000000000000000000000000000000000081526001600160a01b037f000000000000000000000000000000000000000000000000000000000000000081166004830152602482018690527f000000000000000000000000000000000000000000000000000000000000000016935063a9059cbb925060440190506020604051808303816000875af1158015613e8f573d6000803e3d6000fd5b505050506040513d601f19601f82011682018060405250810190612c359190615ca6565b610f5d83837f00000000000000000000000000000000000000000000000000000000000000008461449d565b6000818152600960205260409020546001600160a01b0316331480613f1d5750613f0881610d85565b6001600160a01b0316336001600160a01b0316145b613b5b5760405162461bcd60e51b815260206004820152600c60248201527f4e4f545f415050524f56454400000000000000000000000000000000000000006044820152606401610e0b565b600854600090613f8c906fffffffffffffffffffffffffffffffff166001615cc3565b6fffffffffffffffffffffffffffffffff169050613beb828261453d565b60008060006140bc7f00000000000000000000000000000000000000000000000000000000000000006001600160a01b031663dc6574658c600001518d602001516040516020016140119291906001600160a01b0392831681529116602082015260400190565b604051602081830303815290604052805190602001208e604001516040518363ffffffff1660e01b815260040161405592919091825260ff16602082015260400190565b61010060405180830381865afa158015614073573d6000803e3d6000fd5b505050506040513d601f19601f820116820180604052508101906140979190615d18565b602001516140a88d606001516146a2565b6140b58e608001516146a2565b8b8b6149dc565b92507f00000000000000000000000000000000000000000000000000000000000000006001600160a01b0316632fb07eac6040518061014001604052808d600001516001600160a01b031681526020018d602001516001600160a01b031681526020018e6040015160ff1681526020018e6060015160020b81526020018e6080015160020b8152602001866bffffffffffffffffffffffff168152602001306001600160a01b031681526020018c81526020018761417b576000614184565b61418433613b94565b8152604080513360208281019190915290920191016040516020818303038152906040528152506040518263ffffffff1660e01b81526004016141c79190615de2565b60408051808303816000875af11580156141e5573d6000803e3d6000fd5b505050506040513d601f19601f820116820180604052508101906142099190615763565b909250905085821080159061421e5750848110155b61426a5760405162461bcd60e51b815260206004820152600e60248201527f507269636520736c6970706167650000000000000000000000000000000000006044820152606401610e0b565b985098509895505050505050565b600061428382611c44565b9050614291816000846143b5565b61429c600083613763565b6001600160a01b03811660009081526002602052604081208054600192906142c5908490615c54565b9091555050600082815260096020526040808220805473ffffffffffffffffffffffffffffffffffffffff19169055518391906001600160a01b038416907fddf252ad1be2c89b69c2b068fc378daa952ba7f163c4a11628f55a4df523b3ef908390a45050565b61433784848461392b565b61434384848484614b64565b612c355760405162461bcd60e51b815260206004820152603260248201527f4552433732313a207472616e7366657220746f206e6f6e20455243373231526560448201527f63656976657220696d706c656d656e74657200000000000000000000000000006064820152608401610e0b565b6001600160a01b03831661441d57600880546fffffffffffffffffffffffffffffffff169060006143e583615eb5565b91906101000a8154816fffffffffffffffffffffffffffffffff02191690836fffffffffffffffffffffffffffffffff160217905550505b6001600160a01b038216610f5d576008805470010000000000000000000000000000000090046fffffffffffffffffffffffffffffffff1690601061446183615eb5565b91906101000a8154816fffffffffffffffffffffffffffffffff02191690836fffffffffffffffffffffffffffffffff16021790555050505050565b60006040517f23b872dd0000000000000000000000000000000000000000000000000000000081526001600160a01b03851660048201526001600160a01b038416602482015282604482015260008060648360008a5af191505061450081614cfa565b614536576040517fa83c475400000000000000000000000000000000000000000000000000000000815260040160405180910390fd5b5050505050565b6001600160a01b0382166145935760405162461bcd60e51b815260206004820181905260248201527f4552433732313a206d696e7420746f20746865207a65726f20616464726573736044820152606401610e0b565b6000818152600960205260409020546001600160a01b0316156145f85760405162461bcd60e51b815260206004820152601c60248201527f4552433732313a20746f6b656e20616c7265616479206d696e746564000000006044820152606401610e0b565b614604600083836143b5565b6001600160a01b038216600090815260026020526040812080546001929061462d908490615947565b90915550506000818152600960205260409020805473ffffffffffffffffffffffffffffffffffffffff19166001600160a01b03841617905560405181906001600160a01b038416906000907fddf252ad1be2c89b69c2b068fc378daa952ba7f163c4a11628f55a4df523b3ef908290a45050565b6000600282900b7ffffffffffffffffffffffffffffffffffffffffffffffffffffffffffff42755138015906146df5750620bd8ab600283900b13155b6146e857600080fd5b6000808360020b126146fa57826146ff565b826000035b62ffffff811691507001000000000000000000000000000000009060011615614738576ffffcb933bd6fad37aa2d162d1a5940010260801c5b6002821615614757576ffff97272373d413259a46990580e213a0260801c5b6004821615614776576ffff2e50f5f656932ef12357cf3c7fdcc0260801c5b6008821615614795576fffe5caca7e10e4e61c3624eaa0941cd00260801c5b60108216156147b4576fffcb9843d60f6159c9db58835c9266440260801c5b60208216156147d3576fff973b41fa98c081472e6896dfb254c00260801c5b60408216156147f2576fff2ea16466c96a3843ec78b326b528610260801c5b6080821615614811576ffe5dee046a99a2a811c461f1969c30530260801c5b610100821615614831576ffcbe86c7900a88aedcffc83b479aa3a40260801c5b610200821615614851576ff987a7253ac413176f2b074cf7815e540260801c5b610400821615614871576ff3392b0822b70005940c7a398e4b70f30260801c5b610800821615614891576fe7159475a2c29b7443b29c7fa6e889d90260801c5b6110008216156148b1576fd097f3bdfd2022b8845ad8f792aa58250260801c5b6120008216156148d1576fa9f746462d870fdf8a65dc1f90e061e50260801c5b6140008216156148f1576f70d869a156d2a1b890bb3df62baf32f70260801c5b618000821615614911576f31be135f97d08fd981231505542fcfa60260801c5b62010000821615614932576f09aa508b5b7a84e1c677de54f3e99bc90260801c5b62020000821615614952576e5d6af8dedb81196699c329225ee6040260801c5b62040000821615614971576d2216e584f5fa1ea926041bedfe980260801c5b6208000082161561498e576b048a170391f7dc42444e8fa20260801c5b60008460020b126149ae5780600019816149aa576149aa615edb565b0490505b60006701000000000000008206116149c75760006149ca565b60015b60ff16603882901c0192505050919050565b600080856fffffffffffffffffffffffffffffffff16876fffffffffffffffffffffffffffffffff1611614a6257614a5b84866fffffffffffffffffffffffffffffffff16886fffffffffffffffffffffffffffffffff160269010000000000000000008989036fffffffffffffffffffffffffffffffff1602614d3f565b9050614b4c565b846fffffffffffffffffffffffffffffffff16876fffffffffffffffffffffffffffffffff1610614ab657614a5b8369010000000000000000008888036fffffffffffffffffffffffffffffffff16614d3f565b6000614b0985876fffffffffffffffffffffffffffffffff168a6fffffffffffffffffffffffffffffffff160269010000000000000000008b8a036fffffffffffffffffffffffffffffffff1602614d3f565b90506000614b368569010000000000000000008a8c036fffffffffffffffffffffffffffffffff16614d3f565b9050808210614b455780614b47565b815b925050505b614b59600882901c614df4565b979650505050505050565b60006001600160a01b0384163b15614cef576040517f150b7a020000000000000000000000000000000000000000000000000000000081526001600160a01b0385169063150b7a0290614bc1903390899088908890600401615ef1565b6020604051808303816000875af1925050508015614bfc575060408051601f3d908101601f19168201909252614bf9918101906159cb565b60015b614ca4573d808015614c2a576040519150601f19603f3d011682016040523d82523d6000602084013e614c2f565b606091505b5080516128a25760405162461bcd60e51b815260206004820152603260248201527f4552433732313a207472616e7366657220746f206e6f6e20455243373231526560448201527f63656976657220696d706c656d656e74657200000000000000000000000000006064820152608401610e0b565b7fffffffff00000000000000000000000000000000000000000000000000000000167f150b7a0200000000000000000000000000000000000000000000000000000000149050613923565b506001949350505050565b600081614d0b573d6000803e3d6000fd5b3d60208114614d23578015614d345760009150614d39565b3d6000803e60005115159150614d39565b600191505b50919050565b600080806000198587098587029250828110838203039150508060001415614d795760008411614d6e57600080fd5b508290049050614ded565b808411614d8557600080fd5b600084868809851960019081018716968790049682860381900495909211909303600082900391909104909201919091029190911760038402600290811880860282030280860282030280860282030280860282030280860282030280860290910302029150505b9392505050565b60006bffffffffffffffffffffffff821115613b9057613b90615c6b565b7fffffffff0000000000000000000000000000000000000000000000000000000081168114613b5b57600080fd5b600060208284031215614e5257600080fd5b8135614ded81614e12565b60005b83811015614e78578181015183820152602001614e60565b83811115612c355750506000910152565b60008151808452614ea1816020860160208601614e5d565b601f01601f19169290920160200192915050565b602081526000614ded6020830184614e89565b600060208284031215614eda57600080fd5b5035919050565b6001600160a01b0381168114613b5b57600080fd5b60008060408385031215614f0957600080fd5b8235614f1481614ee1565b946020939093013593505050565b600080600060608486031215614f3757600080fd5b8335614f4281614ee1565b92506020840135614f5281614ee1565b929592945050506040919091013590565b8015158114613b5b57600080fd5b60008060008060008060008060006101208a8c031215614f9057600080fd5b8935614f9b81614ee1565b985060208a0135614fab81614ee1565b975060408a0135965060608a0135955060808a0135945060a08a0135614fd081614ee1565b935060c08a0135614fe081614f63565b925060e08a0135614ff081614f63565b809250506101008a013590509295985092959850929598565b62ffffff81168114613b5b57600080fd5b6fffffffffffffffffffffffffffffffff81168114613b5b57600080fd5b6000806000806080858703121561504e57600080fd5b843561505981614ee1565b9350602085013561506981614ee1565b9250604085013561507981615009565b915060608501356150898161501a565b939692955090935050565b60008083601f8401126150a657600080fd5b50813567ffffffffffffffff8111156150be57600080fd5b6020830191508360208285010111156150d657600080fd5b9250929050565b60008060008060008060a087890312156150f657600080fd5b863561510181614ee1565b9550602087013561511181614ee1565b94506040870135935060608701359250608087013567ffffffffffffffff81111561513b57600080fd5b61514789828a01615094565b979a9699509497509295939492505050565b60ff81168114613b5b57600080fd5b60008060008060008060c0878903121561518157600080fd5b863561518c81614ee1565b9550602087013594506040870135935060608701356151aa81615159565b9598949750929560808101359460a0909101359350915050565b6000602082840312156151d657600080fd5b8135614ded81614ee1565b600060e08284031215614d3957600080fd5b6000806000806080858703121561520957600080fd5b843561521481614ee1565b935060208501359250604085013561522b81614ee1565b9396929550929360600135925050565b60006101608284031215614d3957600080fd5b6000806040838503121561526157600080fd5b823561526c81614ee1565b9150602083013561527c81614f63565b809150509250929050565b60008060008060008060008060e0898b0312156152a357600080fd5b883567ffffffffffffffff8111156152ba57600080fd5b6152c68b828c01615094565b909950975050602089013595506040890135945060608901356152e881614ee1565b935060808901356152f881614f63565b925060a089013561530881614f63565b8092505060c089013590509295985092959890939650565b60008083601f84011261533257600080fd5b50813567ffffffffffffffff81111561534a57600080fd5b6020830191508360208260051b85010111156150d657600080fd5b6000806020838503121561537857600080fd5b823567ffffffffffffffff81111561538f57600080fd5b61539b85828601615320565b90969095509350505050565b6000602080830181845280855180835260408601915060408160051b870101925083870160005b8281101561541a577fffffffffffffffffffffffffffffffffffffffffffffffffffffffffffffffc0888603018452615408858351614e89565b945092850192908501906001016153ce565b5092979650505050505050565b634e487b7160e01b600052604160045260246000fd5b604051601f8201601f1916810167ffffffffffffffff8111828210171561546657615466615427565b604052919050565b600067ffffffffffffffff82111561548857615488615427565b50601f01601f191660200190565b600080600080608085870312156154ac57600080fd5b84356154b781614ee1565b935060208501356154c781614ee1565b925060408501359150606085013567ffffffffffffffff8111156154ea57600080fd5b8501601f810187136154fb57600080fd5b803561550e6155098261546e565b61543d565b81815288602083850101111561552357600080fd5b8160208401602083013760006020838301015280935050505092959194509250565b6000806000806060858703121561555b57600080fd5b843561556681614ee1565b935060208501359250604085013567ffffffffffffffff81111561558957600080fd5b61559587828801615094565b95989497509550505050565b600060c08284031215614d3957600080fd5b600080604083850312156155c657600080fd5b82359150602083013561527c81615159565b600080604083850312156155eb57600080fd5b82359150602083013561527c81614ee1565b6000806040838503121561561057600080fd5b823561561b81614ee1565b9150602083013561527c81614ee1565b60006020828403121561563d57600080fd5b813564ffffffffff81168114614ded57600080fd5b600181811c9082168061566657607f821691505b60208210811415614d3957634e487b7160e01b600052602260045260246000fd5b634e487b7160e01b600052601160045260246000fd5b60006fffffffffffffffffffffffffffffffff838116908316818110156156c6576156c6615687565b039392505050565b60007f800000000000000000000000000000000000000000000000000000000000000082141561570057615700615687565b5060000390565b60006101006001600160a01b03808c168452808b1660208501528960408501528860608501528088166080850152508560a08401528460c08401528060e084015261575481840185614e89565b9b9a5050505050505050505050565b6000806040838503121561577657600080fd5b505080516020909101519092909150565b6000806040838503121561579a57600080fd5b82516157a581615159565b602084015190925061527c81615159565b60008160001904831182151516156157d0576157d0615687565b500290565b6000602082840312156157e757600080fd5b5051919050565b60008251615800818460208701614e5d565b9190910192915050565b6bffffffffffffffffffffffff81168114613b5b57600080fd5b60006020828403121561583657600080fd5b8135614ded8161580a565b60006020828403121561585357600080fd5b8135614ded81614f63565b6000610120820190506001600160a01b03808451168352806020850151166020840152506040830151615896604084018260ff169052565b5060608301516158ab606084018260020b9052565b5060808301516158c0608084018260020b9052565b5060a08301516158e060a08401826bffffffffffffffffffffffff169052565b5060c083015160c083015260e083015160e0830152610100808401516159098285018215159052565b505092915050565b6000806000806080858703121561592757600080fd5b505082516020840151604085015160609095015191969095509092509050565b6000821982111561595a5761595a615687565b500190565b60006001600160a01b03808816835286602084015280861660408401525083606083015260a06080830152614b5960a0830184614e89565b60006000198214156159ab576159ab615687565b5060010190565b8281526040602082015260006139236040830184614e89565b6000602082840312156159dd57600080fd5b8151614ded81614e12565b6000602082840312156159fa57600080fd5b8135614ded81615159565b8060020b8114613b5b57600080fd5b600060208284031215615a2657600080fd5b8135614ded81615a05565b602081526000825160c06020840152615a4d60e0840182614e89565b9050602084015160408401526001600160a01b03604085015116606084015260608401516080840152608084015160a084015260a0840151601f198483030160c0850152615a9b8282614e89565b95945050505050565b634e487b7160e01b600052603260045260246000fd5b60008083357fffffffffffffffffffffffffffffffffffffffffffffffffffffffffffffffe1843603018112615aef57600080fd5b83018035915067ffffffffffffffff821115615b0a57600080fd5b6020019150368190038213156150d657600080fd5b8183823760009101908152919050565b805169ffffffffffffffffffff81168114613beb57600080fd5b600060a08284031215615b5b57600080fd5b60405160a0810181811067ffffffffffffffff82111715615b7e57615b7e615427565b6040528251615b8c8161580a565b8152615b9a60208401615b2f565b6020820152615bab60408401615b2f565b60408201526060830151615bbe81615159565b6060820152608083015163ffffffff81168114615bda57600080fd5b60808201529392505050565b600060208284031215615bf857600080fd5b815167ffffffffffffffff811115615c0f57600080fd5b8201601f81018413615c2057600080fd5b8051615c2e6155098261546e565b818152856020838501011115615c4357600080fd5b615a9b826020830160208601614e5d565b600082821015615c6657615c66615687565b500390565b634e487b7160e01b600052600160045260246000fd5b600064ffffffffff80831681811415615c9c57615c9c615687565b6001019392505050565b600060208284031215615cb857600080fd5b8151614ded81614f63565b60006fffffffffffffffffffffffffffffffff808316818516808303821115615cee57615cee615687565b01949350505050565b8051613beb8161501a565b8051613beb81615009565b8051613beb81615a05565b6000610100808385031215615d2c57600080fd5b6040519081019067ffffffffffffffff82118183101715615d4f57615d4f615427565b8160405283519150615d608261501a565b818152615d6f60208501615cf7565b6020820152615d8060408501615d02565b6040820152615d9160608501615d0d565b6060820152615da260808501615d0d565b6080820152615db360a08501615d0d565b60a0820152615dc460c08501615b2f565b60c0820152615dd560e08501615b2f565b60e0820152949350505050565b60208152615dfc6020820183516001600160a01b03169052565b60006020830151615e1860408401826001600160a01b03169052565b50604083015160ff81166060840152506060830151615e3c608084018260020b9052565b506080830151615e5160a084018260020b9052565b5060a08301516bffffffffffffffffffffffff811660c08401525060c08301516001600160a01b03811660e08401525060e0830151610100838101919091528301516101208084019190915283015161014080840152613923610160840182614e89565b60006fffffffffffffffffffffffffffffffff80831681811415615c9c57615c9c615687565b634e487b7160e01b600052601260045260246000fd5b60006001600160a01b03808716835280861660208401525083604083015260806060830152615f236080830184614e89565b969550505050505056fea164736f6c634300080a000a",
  "linkReferences": {},
  "deployedLinkReferences": {}
}