{
  "_format": "hh-sol-artifact-1",
  "contractName": "Manager",
  "sourceName": "contracts/periphery/Manager.sol",
  "abi": [
    {
      "inputs": [
        {
          "internalType": "address",
          "name": "_hub",
          "type": "address"
        },
        {
          "internalType": "address",
          "name": "_WETH9",
          "type": "address"
        }
      ],
      "stateMutability": "nonpayable",
      "type": "constructor"
    },
    {
      "inputs": [],
      "name": "DeadlinePassed",
      "type": "error"
    },
    {
      "inputs": [],
      "name": "FailedTransfer",
      "type": "error"
    },
    {
      "inputs": [],
      "name": "FailedTransferETH",
      "type": "error"
    },
    {
      "inputs": [],
      "name": "FailedTransferFrom",
      "type": "error"
    },
    {
      "anonymous": false,
      "inputs": [
        {
          "indexed": true,
          "internalType": "address",
          "name": "owner",
          "type": "address"
        },
        {
          "indexed": true,
          "internalType": "address",
          "name": "approved",
          "type": "address"
        },
        {
          "indexed": true,
          "internalType": "uint256",
          "name": "tokenId",
          "type": "uint256"
        }
      ],
      "name": "Approval",
      "type": "event"
    },
    {
      "anonymous": false,
      "inputs": [
        {
          "indexed": true,
          "internalType": "address",
          "name": "owner",
          "type": "address"
        },
        {
          "indexed": true,
          "internalType": "address",
          "name": "operator",
          "type": "address"
        },
        {
          "indexed": false,
          "internalType": "bool",
          "name": "approved",
          "type": "bool"
        }
      ],
      "name": "ApprovalForAll",
      "type": "event"
    },
    {
      "anonymous": false,
      "inputs": [
        {
          "indexed": true,
          "internalType": "address",
          "name": "from",
          "type": "address"
        },
        {
          "indexed": true,
          "internalType": "address",
          "name": "to",
          "type": "address"
        },
        {
          "indexed": true,
          "internalType": "uint256",
          "name": "tokenId",
          "type": "uint256"
        }
      ],
      "name": "Transfer",
      "type": "event"
    },
    {
      "inputs": [],
      "name": "DOMAIN_SEPARATOR",
      "outputs": [
        {
          "internalType": "bytes32",
          "name": "domainSeperator",
          "type": "bytes32"
        }
      ],
      "stateMutability": "view",
      "type": "function"
    },
    {
      "inputs": [],
      "name": "PERMIT_TYPEHASH",
      "outputs": [
        {
          "internalType": "bytes32",
          "name": "",
          "type": "bytes32"
        }
      ],
      "stateMutability": "view",
      "type": "function"
    },
    {
      "inputs": [],
      "name": "WETH9",
      "outputs": [
        {
          "internalType": "address",
          "name": "",
          "type": "address"
        }
      ],
      "stateMutability": "view",
      "type": "function"
    },
    {
      "inputs": [
        {
          "components": [
            {
              "internalType": "uint256",
              "name": "tokenId",
              "type": "uint256"
            },
            {
              "internalType": "uint256",
              "name": "amount0Desired",
              "type": "uint256"
            },
            {
              "internalType": "uint256",
              "name": "amount1Desired",
              "type": "uint256"
            },
            {
              "internalType": "uint256",
              "name": "amount0Min",
              "type": "uint256"
            },
            {
              "internalType": "uint256",
              "name": "amount1Min",
              "type": "uint256"
            },
            {
              "internalType": "bool",
              "name": "useAccount",
              "type": "bool"
            }
          ],
          "internalType": "struct PositionManager.AddLiquidityParams",
          "name": "params",
          "type": "tuple"
        }
      ],
      "name": "addLiquidity",
      "outputs": [
        {
          "internalType": "uint96",
          "name": "liquidityD8",
          "type": "uint96"
        },
        {
          "internalType": "uint256",
          "name": "amount0",
          "type": "uint256"
        },
        {
          "internalType": "uint256",
          "name": "amount1",
          "type": "uint256"
        }
      ],
      "stateMutability": "payable",
      "type": "function"
    },
    {
      "inputs": [
        {
          "internalType": "address",
          "name": "to",
          "type": "address"
        },
        {
          "internalType": "uint256",
          "name": "tokenId",
          "type": "uint256"
        }
      ],
      "name": "approve",
      "outputs": [],
      "stateMutability": "nonpayable",
      "type": "function"
    },
    {
      "inputs": [
        {
          "internalType": "address",
          "name": "owner",
          "type": "address"
        }
      ],
      "name": "balanceOf",
      "outputs": [
        {
          "internalType": "uint256",
          "name": "",
          "type": "uint256"
        }
      ],
      "stateMutability": "view",
      "type": "function"
    },
    {
      "inputs": [
        {
          "internalType": "uint256[]",
          "name": "tokenIds",
          "type": "uint256[]"
        }
      ],
      "name": "burn",
      "outputs": [],
      "stateMutability": "payable",
      "type": "function"
    },
    {
      "inputs": [
        {
          "internalType": "address",
          "name": "token0",
          "type": "address"
        },
        {
          "internalType": "address",
          "name": "token1",
          "type": "address"
        },
        {
          "internalType": "uint24",
          "name": "sqrtGamma",
          "type": "uint24"
        },
        {
          "internalType": "uint128",
          "name": "sqrtPrice",
          "type": "uint128"
        }
      ],
      "name": "createPool",
      "outputs": [],
      "stateMutability": "payable",
      "type": "function"
    },
    {
      "inputs": [
        {
          "internalType": "address",
          "name": "recipient",
          "type": "address"
        },
        {
          "internalType": "address",
          "name": "token",
          "type": "address"
        },
        {
          "internalType": "uint256",
          "name": "amount",
          "type": "uint256"
        }
      ],
      "name": "deposit",
      "outputs": [],
      "stateMutability": "payable",
      "type": "function"
    },
    {
      "inputs": [
        {
          "internalType": "address",
          "name": "token",
          "type": "address"
        },
        {
          "internalType": "uint256",
          "name": "amount",
          "type": "uint256"
        },
        {
          "internalType": "bytes",
          "name": "data",
          "type": "bytes"
        }
      ],
      "name": "depositCallback",
      "outputs": [],
      "stateMutability": "nonpayable",
      "type": "function"
    },
    {
      "inputs": [
        {
          "internalType": "address",
          "name": "recipient",
          "type": "address"
        },
        {
          "internalType": "uint256",
          "name": "recipientAccRefId",
          "type": "uint256"
        },
        {
          "internalType": "address",
          "name": "token",
          "type": "address"
        },
        {
          "internalType": "uint256",
          "name": "amount",
          "type": "uint256"
        }
      ],
      "name": "depositToExternal",
      "outputs": [],
      "stateMutability": "payable",
      "type": "function"
    },
    {
      "inputs": [
        {
          "internalType": "bytes",
          "name": "path",
          "type": "bytes"
        },
        {
          "internalType": "uint256",
          "name": "amountIn",
          "type": "uint256"
        },
        {
          "internalType": "uint256",
          "name": "amountOutMinimum",
          "type": "uint256"
        },
        {
          "internalType": "address",
          "name": "recipient",
          "type": "address"
        },
        {
          "internalType": "bool",
          "name": "fromAccount",
          "type": "bool"
        },
        {
          "internalType": "bool",
          "name": "toAccount",
          "type": "bool"
        },
        {
          "internalType": "uint256",
          "name": "deadline",
          "type": "uint256"
        }
      ],
      "name": "exactIn",
      "outputs": [
        {
          "internalType": "uint256",
          "name": "amountOut",
          "type": "uint256"
        }
      ],
      "stateMutability": "payable",
      "type": "function"
    },
    {
      "inputs": [
        {
          "internalType": "address",
          "name": "tokenIn",
          "type": "address"
        },
        {
          "internalType": "address",
          "name": "tokenOut",
          "type": "address"
        },
        {
          "internalType": "uint256",
          "name": "tierChoices",
          "type": "uint256"
        },
        {
          "internalType": "uint256",
          "name": "amountIn",
          "type": "uint256"
        },
        {
          "internalType": "uint256",
          "name": "amountOutMinimum",
          "type": "uint256"
        },
        {
          "internalType": "address",
          "name": "recipient",
          "type": "address"
        },
        {
          "internalType": "bool",
          "name": "fromAccount",
          "type": "bool"
        },
        {
          "internalType": "bool",
          "name": "toAccount",
          "type": "bool"
        },
        {
          "internalType": "uint256",
          "name": "deadline",
          "type": "uint256"
        }
      ],
      "name": "exactInSingle",
      "outputs": [
        {
          "internalType": "uint256",
          "name": "amountOut",
          "type": "uint256"
        }
      ],
      "stateMutability": "payable",
      "type": "function"
    },
    {
      "inputs": [
        {
          "internalType": "bytes",
          "name": "path",
          "type": "bytes"
        },
        {
          "internalType": "uint256",
          "name": "amountOut",
          "type": "uint256"
        },
        {
          "internalType": "uint256",
          "name": "amountInMaximum",
          "type": "uint256"
        },
        {
          "internalType": "address",
          "name": "recipient",
          "type": "address"
        },
        {
          "internalType": "bool",
          "name": "fromAccount",
          "type": "bool"
        },
        {
          "internalType": "bool",
          "name": "toAccount",
          "type": "bool"
        },
        {
          "internalType": "uint256",
          "name": "deadline",
          "type": "uint256"
        }
      ],
      "name": "exactOut",
      "outputs": [
        {
          "internalType": "uint256",
          "name": "amountIn",
          "type": "uint256"
        }
      ],
      "stateMutability": "payable",
      "type": "function"
    },
    {
      "inputs": [
        {
          "internalType": "address",
          "name": "tokenIn",
          "type": "address"
        },
        {
          "internalType": "address",
          "name": "tokenOut",
          "type": "address"
        },
        {
          "internalType": "uint256",
          "name": "tierChoices",
          "type": "uint256"
        },
        {
          "internalType": "uint256",
          "name": "amountOut",
          "type": "uint256"
        },
        {
          "internalType": "uint256",
          "name": "amountInMaximum",
          "type": "uint256"
        },
        {
          "internalType": "address",
          "name": "recipient",
          "type": "address"
        },
        {
          "internalType": "bool",
          "name": "fromAccount",
          "type": "bool"
        },
        {
          "internalType": "bool",
          "name": "toAccount",
          "type": "bool"
        },
        {
          "internalType": "uint256",
          "name": "deadline",
          "type": "uint256"
        }
      ],
      "name": "exactOutSingle",
      "outputs": [
        {
          "internalType": "uint256",
          "name": "amountIn",
          "type": "uint256"
        }
      ],
      "stateMutability": "payable",
      "type": "function"
    },
    {
      "inputs": [
        {
          "internalType": "uint256",
          "name": "tokenId",
          "type": "uint256"
        }
      ],
      "name": "getApproved",
      "outputs": [
        {
          "internalType": "address",
          "name": "",
          "type": "address"
        }
      ],
      "stateMutability": "view",
      "type": "function"
    },
    {
      "inputs": [
        {
          "internalType": "uint256",
          "name": "tokenId",
          "type": "uint256"
        }
      ],
      "name": "getPosition",
      "outputs": [
        {
          "internalType": "address",
          "name": "owner",
          "type": "address"
        },
        {
          "internalType": "address",
          "name": "token0",
          "type": "address"
        },
        {
          "internalType": "address",
          "name": "token1",
          "type": "address"
        },
        {
          "internalType": "uint8",
          "name": "tierId",
          "type": "uint8"
        },
        {
          "internalType": "int24",
          "name": "tickLower",
          "type": "int24"
        },
        {
          "internalType": "int24",
          "name": "tickUpper",
          "type": "int24"
        },
        {
          "components": [
            {
              "internalType": "uint96",
              "name": "liquidityD8",
              "type": "uint96"
            },
            {
              "internalType": "uint80",
              "name": "feeGrowthInside0Last",
              "type": "uint80"
            },
            {
              "internalType": "uint80",
              "name": "feeGrowthInside1Last",
              "type": "uint80"
            },
            {
              "internalType": "uint8",
              "name": "limitOrderType",
              "type": "uint8"
            },
            {
              "internalType": "uint32",
              "name": "settlementSnapshotId",
              "type": "uint32"
            }
          ],
          "internalType": "struct Positions.Position",
          "name": "position",
          "type": "tuple"
        }
      ],
      "stateMutability": "view",
      "type": "function"
    },
    {
      "inputs": [],
      "name": "hub",
      "outputs": [
        {
          "internalType": "address",
          "name": "",
          "type": "address"
        }
      ],
      "stateMutability": "view",
      "type": "function"
    },
    {
      "inputs": [
        {
          "internalType": "address",
          "name": "owner",
          "type": "address"
        },
        {
          "internalType": "address",
          "name": "operator",
          "type": "address"
        }
      ],
      "name": "isApprovedForAll",
      "outputs": [
        {
          "internalType": "bool",
          "name": "",
          "type": "bool"
        }
      ],
      "stateMutability": "view",
      "type": "function"
    },
    {
      "inputs": [
        {
          "components": [
            {
              "internalType": "address",
              "name": "token0",
              "type": "address"
            },
            {
              "internalType": "address",
              "name": "token1",
              "type": "address"
            },
            {
              "internalType": "uint8",
              "name": "tierId",
              "type": "uint8"
            },
            {
              "internalType": "int24",
              "name": "tickLower",
              "type": "int24"
            },
            {
              "internalType": "int24",
              "name": "tickUpper",
              "type": "int24"
            },
            {
              "internalType": "uint256",
              "name": "amount0Desired",
              "type": "uint256"
            },
            {
              "internalType": "uint256",
              "name": "amount1Desired",
              "type": "uint256"
            },
            {
              "internalType": "uint256",
              "name": "amount0Min",
              "type": "uint256"
            },
            {
              "internalType": "uint256",
              "name": "amount1Min",
              "type": "uint256"
            },
            {
              "internalType": "address",
              "name": "recipient",
              "type": "address"
            },
            {
              "internalType": "bool",
              "name": "useAccount",
              "type": "bool"
            }
          ],
          "internalType": "struct PositionManager.MintParams",
          "name": "params",
          "type": "tuple"
        }
      ],
      "name": "mint",
      "outputs": [
        {
          "internalType": "uint256",
          "name": "tokenId",
          "type": "uint256"
        },
        {
          "internalType": "uint96",
          "name": "liquidityD8",
          "type": "uint96"
        },
        {
          "internalType": "uint256",
          "name": "amount0",
          "type": "uint256"
        },
        {
          "internalType": "uint256",
          "name": "amount1",
          "type": "uint256"
        }
      ],
      "stateMutability": "payable",
      "type": "function"
    },
    {
      "inputs": [
        {
          "internalType": "address",
          "name": "token0",
          "type": "address"
        },
        {
          "internalType": "address",
          "name": "token1",
          "type": "address"
        },
        {
          "internalType": "uint256",
          "name": "amount0",
          "type": "uint256"
        },
        {
          "internalType": "uint256",
          "name": "amount1",
          "type": "uint256"
        },
        {
          "internalType": "bytes",
          "name": "data",
          "type": "bytes"
        }
      ],
      "name": "mintCallback",
      "outputs": [],
      "stateMutability": "nonpayable",
      "type": "function"
    },
    {
      "inputs": [
        {
          "internalType": "bytes[]",
          "name": "data",
          "type": "bytes[]"
        }
      ],
      "name": "multicall",
      "outputs": [
        {
          "internalType": "bytes[]",
          "name": "results",
          "type": "bytes[]"
        }
      ],
      "stateMutability": "payable",
      "type": "function"
    },
    {
      "inputs": [],
      "name": "name",
      "outputs": [
        {
          "internalType": "string",
          "name": "",
          "type": "string"
        }
      ],
      "stateMutability": "view",
      "type": "function"
    },
    {
      "inputs": [
        {
          "internalType": "uint256",
          "name": "",
          "type": "uint256"
        }
      ],
      "name": "nonces",
      "outputs": [
        {
          "internalType": "uint256",
          "name": "",
          "type": "uint256"
        }
      ],
      "stateMutability": "view",
      "type": "function"
    },
    {
      "inputs": [
        {
          "internalType": "uint256",
          "name": "tokenId",
          "type": "uint256"
        }
      ],
      "name": "ownerOf",
      "outputs": [
        {
          "internalType": "address",
          "name": "",
          "type": "address"
        }
      ],
      "stateMutability": "view",
      "type": "function"
    },
    {
      "inputs": [
        {
          "internalType": "bytes32",
          "name": "",
          "type": "bytes32"
        }
      ],
      "name": "pairIdsByPoolId",
      "outputs": [
        {
          "internalType": "uint40",
          "name": "",
          "type": "uint40"
        }
      ],
      "stateMutability": "view",
      "type": "function"
    },
    {
      "inputs": [
        {
          "internalType": "uint40",
          "name": "",
          "type": "uint40"
        }
      ],
      "name": "pairs",
      "outputs": [
        {
          "internalType": "address",
          "name": "token0",
          "type": "address"
        },
        {
          "internalType": "address",
          "name": "token1",
          "type": "address"
        }
      ],
      "stateMutability": "view",
      "type": "function"
    },
    {
      "inputs": [
        {
          "internalType": "address",
          "name": "spender",
          "type": "address"
        },
        {
          "internalType": "uint256",
          "name": "tokenId",
          "type": "uint256"
        },
        {
          "internalType": "uint256",
          "name": "deadline",
          "type": "uint256"
        },
        {
          "internalType": "uint8",
          "name": "v",
          "type": "uint8"
        },
        {
          "internalType": "bytes32",
          "name": "r",
          "type": "bytes32"
        },
        {
          "internalType": "bytes32",
          "name": "s",
          "type": "bytes32"
        }
      ],
      "name": "permit",
      "outputs": [],
      "stateMutability": "payable",
      "type": "function"
    },
    {
      "inputs": [
        {
          "internalType": "uint256",
          "name": "",
          "type": "uint256"
        }
      ],
      "name": "positionsByTokenId",
      "outputs": [
        {
          "internalType": "address",
          "name": "owner",
          "type": "address"
        },
        {
          "internalType": "uint40",
          "name": "pairId",
          "type": "uint40"
        },
        {
          "internalType": "uint8",
          "name": "tierId",
          "type": "uint8"
        },
        {
          "internalType": "int24",
          "name": "tickLower",
          "type": "int24"
        },
        {
          "internalType": "int24",
          "name": "tickUpper",
          "type": "int24"
        }
      ],
      "stateMutability": "view",
      "type": "function"
    },
    {
      "inputs": [],
      "name": "refundETH",
      "outputs": [],
      "stateMutability": "payable",
      "type": "function"
    },
    {
      "inputs": [
        {
          "components": [
            {
              "internalType": "uint256",
              "name": "tokenId",
              "type": "uint256"
            },
            {
              "internalType": "uint96",
              "name": "liquidityD8",
              "type": "uint96"
            },
            {
              "internalType": "uint256",
              "name": "amount0Min",
              "type": "uint256"
            },
            {
              "internalType": "uint256",
              "name": "amount1Min",
              "type": "uint256"
            },
            {
              "internalType": "address",
              "name": "withdrawTo",
              "type": "address"
            },
            {
              "internalType": "bool",
              "name": "collectAllFees",
              "type": "bool"
            },
            {
              "internalType": "bool",
              "name": "settled",
              "type": "bool"
            }
          ],
          "internalType": "struct PositionManager.RemoveLiquidityParams",
          "name": "params",
          "type": "tuple"
        }
      ],
      "name": "removeLiquidity",
      "outputs": [
        {
          "internalType": "uint256",
          "name": "amount0",
          "type": "uint256"
        },
        {
          "internalType": "uint256",
          "name": "amount1",
          "type": "uint256"
        },
        {
          "internalType": "uint256",
          "name": "feeAmount0",
          "type": "uint256"
        },
        {
          "internalType": "uint256",
          "name": "feeAmount1",
          "type": "uint256"
        }
      ],
      "stateMutability": "payable",
      "type": "function"
    },
    {
      "inputs": [
        {
          "internalType": "address",
          "name": "from",
          "type": "address"
        },
        {
          "internalType": "address",
          "name": "to",
          "type": "address"
        },
        {
          "internalType": "uint256",
          "name": "tokenId",
          "type": "uint256"
        }
      ],
      "name": "safeTransferFrom",
      "outputs": [],
      "stateMutability": "nonpayable",
      "type": "function"
    },
    {
      "inputs": [
        {
          "internalType": "address",
          "name": "from",
          "type": "address"
        },
        {
          "internalType": "address",
          "name": "to",
          "type": "address"
        },
        {
          "internalType": "uint256",
          "name": "tokenId",
          "type": "uint256"
        },
        {
          "internalType": "bytes",
          "name": "_data",
          "type": "bytes"
        }
      ],
      "name": "safeTransferFrom",
      "outputs": [],
      "stateMutability": "nonpayable",
      "type": "function"
    },
    {
      "inputs": [
        {
          "internalType": "address",
          "name": "token",
          "type": "address"
        },
        {
          "internalType": "uint256",
          "name": "value",
          "type": "uint256"
        },
        {
          "internalType": "uint256",
          "name": "deadline",
          "type": "uint256"
        },
        {
          "internalType": "uint8",
          "name": "v",
          "type": "uint8"
        },
        {
          "internalType": "bytes32",
          "name": "r",
          "type": "bytes32"
        },
        {
          "internalType": "bytes32",
          "name": "s",
          "type": "bytes32"
        }
      ],
      "name": "selfPermit",
      "outputs": [],
      "stateMutability": "payable",
      "type": "function"
    },
    {
      "inputs": [
        {
          "internalType": "address",
          "name": "token",
          "type": "address"
        },
        {
          "internalType": "uint256",
          "name": "nonce",
          "type": "uint256"
        },
        {
          "internalType": "uint256",
          "name": "expiry",
          "type": "uint256"
        },
        {
          "internalType": "uint8",
          "name": "v",
          "type": "uint8"
        },
        {
          "internalType": "bytes32",
          "name": "r",
          "type": "bytes32"
        },
        {
          "internalType": "bytes32",
          "name": "s",
          "type": "bytes32"
        }
      ],
      "name": "selfPermitAllowed",
      "outputs": [],
      "stateMutability": "payable",
      "type": "function"
    },
    {
      "inputs": [
        {
          "internalType": "address",
          "name": "operator",
          "type": "address"
        },
        {
          "internalType": "bool",
          "name": "approved",
          "type": "bool"
        }
      ],
      "name": "setApprovalForAll",
      "outputs": [],
      "stateMutability": "nonpayable",
      "type": "function"
    },
    {
      "inputs": [
        {
          "internalType": "uint256",
          "name": "tokenId",
          "type": "uint256"
        },
        {
          "internalType": "uint8",
          "name": "limitOrderType",
          "type": "uint8"
        }
      ],
      "name": "setLimitOrderType",
      "outputs": [],
      "stateMutability": "payable",
      "type": "function"
    },
    {
      "inputs": [
        {
          "internalType": "address",
          "name": "descriptor",
          "type": "address"
        }
      ],
      "name": "setTokenDescriptor",
      "outputs": [],
      "stateMutability": "nonpayable",
      "type": "function"
    },
    {
      "inputs": [
        {
          "internalType": "address",
          "name": "setter",
          "type": "address"
        }
      ],
      "name": "setTokenDescriptorSetter",
      "outputs": [],
      "stateMutability": "nonpayable",
      "type": "function"
    },
    {
      "inputs": [
        {
          "internalType": "bytes4",
          "name": "interfaceId",
          "type": "bytes4"
        }
      ],
      "name": "supportsInterface",
      "outputs": [
        {
          "internalType": "bool",
          "name": "",
          "type": "bool"
        }
      ],
      "stateMutability": "view",
      "type": "function"
    },
    {
      "inputs": [
        {
          "internalType": "address",
          "name": "tokenIn",
          "type": "address"
        },
        {
          "internalType": "address",
          "name": "tokenOut",
          "type": "address"
        },
        {
          "internalType": "uint256",
          "name": "amountIn",
          "type": "uint256"
        },
        {
          "internalType": "uint256",
          "name": "amountOut",
          "type": "uint256"
        },
        {
          "internalType": "bytes",
          "name": "data",
          "type": "bytes"
        }
      ],
      "name": "swapCallback",
      "outputs": [],
      "stateMutability": "nonpayable",
      "type": "function"
    },
    {
      "inputs": [],
      "name": "symbol",
      "outputs": [
        {
          "internalType": "string",
          "name": "",
          "type": "string"
        }
      ],
      "stateMutability": "view",
      "type": "function"
    },
    {
      "inputs": [],
      "name": "tokenDescriptor",
      "outputs": [
        {
          "internalType": "address",
          "name": "",
          "type": "address"
        }
      ],
      "stateMutability": "view",
      "type": "function"
    },
    {
      "inputs": [],
      "name": "tokenDescriptorSetter",
      "outputs": [
        {
          "internalType": "address",
          "name": "",
          "type": "address"
        }
      ],
      "stateMutability": "view",
      "type": "function"
    },
    {
      "inputs": [
        {
          "internalType": "uint256",
          "name": "tokenId",
          "type": "uint256"
        }
      ],
      "name": "tokenURI",
      "outputs": [
        {
          "internalType": "string",
          "name": "",
          "type": "string"
        }
      ],
      "stateMutability": "view",
      "type": "function"
    },
    {
      "inputs": [],
      "name": "totalSupply",
      "outputs": [
        {
          "internalType": "uint256",
          "name": "",
          "type": "uint256"
        }
      ],
      "stateMutability": "view",
      "type": "function"
    },
    {
      "inputs": [
        {
          "internalType": "address",
          "name": "from",
          "type": "address"
        },
        {
          "internalType": "address",
          "name": "to",
          "type": "address"
        },
        {
          "internalType": "uint256",
          "name": "tokenId",
          "type": "uint256"
        }
      ],
      "name": "transferFrom",
      "outputs": [],
      "stateMutability": "nonpayable",
      "type": "function"
    },
    {
      "inputs": [
        {
          "internalType": "uint256",
          "name": "amountMinimum",
          "type": "uint256"
        },
        {
          "internalType": "address",
          "name": "recipient",
          "type": "address"
        }
      ],
      "name": "unwrapWETH",
      "outputs": [],
      "stateMutability": "payable",
      "type": "function"
    },
    {
      "inputs": [
        {
          "internalType": "address",
          "name": "recipient",
          "type": "address"
        },
        {
          "internalType": "address",
          "name": "token",
          "type": "address"
        },
        {
          "internalType": "uint256",
          "name": "amount",
          "type": "uint256"
        }
      ],
      "name": "withdraw",
      "outputs": [],
      "stateMutability": "payable",
      "type": "function"
    },
    {
      "stateMutability": "payable",
      "type": "receive"
    }
  ],
  "bytecode": "0x60e0604052600a805464ffffffffff191660011790553480156200002257600080fd5b50604051620062f2380380620062f28339810160408190526200004591620001a9565b604080518082018252600f81526e26bab33334b7102837b9b4ba34b7b760891b60208083019182528351808501909452600a8452694d554646494e2d504f5360b01b908401526001600160a01b0380861660a0528416608052815191929183918391620000b591600091620000e6565b508051620000cb906001906020840190620000e6565b5050825160209093019290922060c052506200021e92505050565b828054620000f490620001e1565b90600052602060002090601f01602090048101928262000118576000855562000163565b82601f106200013357805160ff191683800117855562000163565b8280016001018555821562000163579182015b828111156200016357825182559160200191906001019062000146565b506200017192915062000175565b5090565b5b8082111562000171576000815560010162000176565b80516001600160a01b0381168114620001a457600080fd5b919050565b60008060408385031215620001bd57600080fd5b620001c8836200018c565b9150620001d8602084016200018c565b90509250929050565b600181811c90821680620001f657607f821691505b602082108114156200021857634e487b7160e01b600052602260045260246000fd5b50919050565b60805160a05160c051615fd9620003196000396000818161056a0152611df50152600081816105f501528181611058015281816111d40152818161132f015281816114790152818161157e015281816117540152818161196c01528181611a1901528181611bd3015281816124690152818161261301528181612a5601528181612c68015281816130c3015281816131750152818161347e015281816135c901528181613dd101528181613e8801528181613eb401528181613fb301526140bf0152600081816103320152818161068f015281816131d5015281816132cf01528181613cec01528181613d320152613e000152615fd96000f3fe6080604052600436106103225760003560e01c80636352211e116101a5578063b88d4fde116100ec578063d9caed1211610095578063eb02c3011161006f578063eb02c30114610ac1578063f0db800c14610b87578063f3995c6714610be8578063f5a9817514610bfb57600080fd5b8063d9caed1214610a52578063e16d9ce514610a65578063e985e9c514610a7857600080fd5b8063c87b56dd116100c6578063c87b56dd146109e2578063ce3fa4dd14610a02578063d9899ff014610a3f57600080fd5b8063b88d4fde146108b8578063bb01881a146108d8578063c2814b0c146108f857600080fd5b8063a22cb4651161014e578063ae4bf64b11610128578063ae4bf64b14610865578063b6dc7ea314610885578063b80f55c9146108a557600080fd5b8063a22cb46514610812578063a73970cf14610832578063ac9650d81461084557600080fd5b80637c2d10fd1161017f5780637c2d10fd146107aa5780638340f549146107ea57806395d89b41146107fd57600080fd5b80636352211e1461075757806370a08231146107775780637ac2ff7b1461079757600080fd5b80633644e515116102695780634aa4a4fc116102125780635325261c116101ec5780635325261c146106f15780635a9d7a68146107245780635dd582041461074457600080fd5b80634aa4a4fc1461067d5780634f594557146106b157806351149742146106d157600080fd5b806342842e0e1161024357806342842e0e1461062a57806345fc75ad1461064a5780634659a4941461066a57600080fd5b80633644e5151461052e578063365a86fc146105e35780633b0812141461061757600080fd5b806318160ddd116102cb5780632e85d3ae116102a55780632e85d3ae1461049d5780632f8bc1ec146104b057806330adf81f146104fa57600080fd5b806318160ddd1461045557806323b872dd1461046a5780632809a6591461048a57600080fd5b8063095ea7b3116102fc578063095ea7b3146103f257806312210e8a14610412578063141a468c1461041a57600080fd5b806301ffc9a71461036357806306fdde0314610398578063081812fc146103ba57600080fd5b3661035e57336001600160a01b037f0000000000000000000000000000000000000000000000000000000000000000161461035c57600080fd5b005b600080fd5b34801561036f57600080fd5b5061038361037e366004614ed9565b610c0e565b60405190151581526020015b60405180910390f35b3480156103a457600080fd5b506103ad610cf3565b60405161038f9190614f4e565b3480156103c657600080fd5b506103da6103d5366004614f61565b610d85565b6040516001600160a01b03909116815260200161038f565b3480156103fe57600080fd5b5061035c61040d366004614f8f565b610e30565b61035c610f62565b34801561042657600080fd5b50610447610435366004614f61565b60076020526000908152604090205481565b60405190815260200161038f565b34801561046157600080fd5b50610447610f74565b34801561047657600080fd5b5061035c610485366004614fbb565b610fc3565b61044761049836600461500a565b61104a565b6104476104ab36600461500a565b6111c6565b3480156104bc57600080fd5b506104e46104cb366004614f61565b600c6020526000908152604090205464ffffffffff1681565b60405164ffffffffff909116815260200161038f565b34801561050657600080fd5b506104477f49ecf333e5b8c95c40fdafc95c1ad136e8914a8fb55e9dc8bb01eaa83a2df9ad81565b34801561053a57600080fd5b50610447604080517f8b73c3c69bb8fe3d512ecc4cf759cc79239f7b179b0ffacaa9a75d522b39400f60208201527f0000000000000000000000000000000000000000000000000000000000000000918101919091527fc89efdaa54c0f20c7adf612882df0950f5a951637e0307cdcb4c672f298b8bc660608201524660808201523060a082015260009060c00160405160208183030381529060405280519060200120905090565b3480156105ef57600080fd5b506103da7f000000000000000000000000000000000000000000000000000000000000000081565b61035c6106253660046150d1565b61132b565b34801561063657600080fd5b5061035c610645366004614fbb565b611558565b34801561065657600080fd5b5061035c610665366004615176565b611573565b61035c610678366004615201565b6115c4565b34801561068957600080fd5b506103da7f000000000000000000000000000000000000000000000000000000000000000081565b3480156106bd57600080fd5b5061035c6106cc36600461525d565b611703565b3480156106dd57600080fd5b5061035c6106ec366004615176565b611749565b6107046106ff36600461527a565b6117b0565b60408051948552602085019390935291830152606082015260800161038f565b34801561073057600080fd5b506005546103da906001600160a01b031681565b61035c610752366004615292565b611b8e565b34801561076357600080fd5b506103da610772366004614f61565b611c4f565b34801561078357600080fd5b5061044761079236600461525d565b611cda565b61035c6107a5366004615201565b611d74565b6107bd6107b83660046152da565b6121d8565b604080519485526bffffffffffffffffffffffff909316602085015291830152606082015260800161038f565b61035c6107f8366004614fbb565b612467565b34801561080957600080fd5b506103ad612513565b34801561081e57600080fd5b5061035c61082d3660046152ed565b612522565b610447610840366004615326565b612605565b610858610853366004615404565b6127dd565b60405161038f9190615446565b34801561087157600080fd5b506006546103da906001600160a01b031681565b34801561089157600080fd5b5061035c6108a036600461525d565b6128fb565b61035c6108b3366004615404565b612941565b3480156108c457600080fd5b5061035c6108d3366004615535565b612bcf565b3480156108e457600080fd5b5061035c6108f33660046155e4565b612c5d565b34801561090457600080fd5b5061099e610913366004614f61565b6009602052600090815260409020546001600160a01b0381169064ffffffffff740100000000000000000000000000000000000000008204169060ff790100000000000000000000000000000000000000000000000000820416907a0100000000000000000000000000000000000000000000000000008104600290810b91600160e81b9004900b85565b604080516001600160a01b03909616865264ffffffffff909416602086015260ff90921692840192909252600291820b6060840152900b608082015260a00161038f565b3480156109ee57600080fd5b506103ad6109fd366004614f61565b612cae565b610a15610a10366004615640565b612dca565b604080516bffffffffffffffffffffffff909416845260208401929092529082015260600161038f565b61035c610a4d366004615652565b612f7b565b61035c610a60366004614fbb565b613128565b61035c610a73366004615677565b6131a4565b348015610a8457600080fd5b50610383610a9336600461569c565b6001600160a01b03918216600090815260046020908152604080832093909416825291909152205460ff1690565b348015610acd57600080fd5b50610ae1610adc366004614f61565b61333d565b604080516001600160a01b039889168152968816602080890191909152979095168686015260ff938416606080880191909152600293840b6080808901919091529290930b60a087015280516bffffffffffffffffffffffff1660c08701529586015169ffffffffffffffffffff90811660e087015293860151909316610100850152840151166101208301529091015163ffffffff166101408201526101600161038f565b348015610b9357600080fd5b50610bc8610ba23660046156ca565b600b60205260009081526040902080546001909101546001600160a01b03918216911682565b604080516001600160a01b0393841681529290911660208301520161038f565b61035c610bf6366004615201565b61356a565b610447610c09366004615326565b6135bb565b60007fffffffff0000000000000000000000000000000000000000000000000000000082167f80ac58cd000000000000000000000000000000000000000000000000000000001480610ca157507fffffffff0000000000000000000000000000000000000000000000000000000082167f5b5e139f00000000000000000000000000000000000000000000000000000000145b80610ced57507f01ffc9a7000000000000000000000000000000000000000000000000000000007fffffffff000000000000000000000000000000000000000000000000000000008316145b92915050565b606060008054610d02906156f1565b80601f0160208091040260200160405190810160405280929190818152602001828054610d2e906156f1565b8015610d7b5780601f10610d5057610100808354040283529160200191610d7b565b820191906000526020600020905b815481529060010190602001808311610d5e57829003601f168201915b5050505050905090565b6000818152600960205260408120546001600160a01b0316610e145760405162461bcd60e51b815260206004820152602c60248201527f4552433732313a20617070726f76656420717565727920666f72206e6f6e657860448201527f697374656e7420746f6b656e000000000000000000000000000000000000000060648201526084015b60405180910390fd5b506000908152600360205260409020546001600160a01b031690565b6000610e3b82611c4f565b9050806001600160a01b0316836001600160a01b03161415610ec55760405162461bcd60e51b815260206004820152602160248201527f4552433732313a20617070726f76616c20746f2063757272656e74206f776e6560448201527f72000000000000000000000000000000000000000000000000000000000000006064820152608401610e0b565b336001600160a01b0382161480610ee15750610ee18133610a93565b610f535760405162461bcd60e51b815260206004820152603860248201527f4552433732313a20617070726f76652063616c6c6572206973206e6f74206f7760448201527f6e6572206e6f7220617070726f76656420666f7220616c6c00000000000000006064820152608401610e0b565b610f5d838361377d565b505050565b4715610f7257610f7233476137f8565b565b600854600090610fac906fffffffffffffffffffffffffffffffff70010000000000000000000000000000000082048116911661573c565b6fffffffffffffffffffffffffffffffff16905090565b610fcd338261383d565b61103f5760405162461bcd60e51b815260206004820152603160248201527f4552433732313a207472616e736665722063616c6c6572206973206e6f74206f60448201527f776e6572206e6f7220617070726f7665640000000000000000000000000000006064820152608401610e0b565b610f5d838383613945565b60008161105681613b3b565b7f00000000000000000000000000000000000000000000000000000000000000006001600160a01b0316632ec31fbc8c8c8c6110918d613b78565b61109a9061576d565b896110a5578b6110a7565b305b8a6110b35760006110be565b6001600160a01b038d165b8c6110ca5760006110cc565b335b8d6110f0576040805133602082015201604051602081830303815290604052611100565b6040805160008152602081019091525b6040518963ffffffff1660e01b81526004016111239897969594939291906157a6565b60408051808303816000875af1158015611141573d6000803e3d6000fd5b505050506040513d601f19601f820116820180604052508101906111659190615802565b509150868211156111b85760405162461bcd60e51b815260206004820152601260248201527f544f4f5f4d5543485f52455155455354454400000000000000000000000000006044820152606401610e0b565b509998505050505050505050565b6000816111d281613b3b565b7f00000000000000000000000000000000000000000000000000000000000000006001600160a01b0316632ec31fbc8c8c8c61120d8d613b78565b89611218578b61121a565b305b8a611226576000611231565b6001600160a01b038d165b8c61123d57600061123f565b335b8d611263576040805133602082015201604051602081830303815290604052611273565b6040805160008152602081019091525b6040518963ffffffff1660e01b81526004016112969897969594939291906157a6565b60408051808303816000875af11580156112b4573d6000803e3d6000fd5b505050506040513d601f19601f820116820180604052508101906112d89190615802565b925050868210156111b85760405162461bcd60e51b815260206004820152601360248201527f544f4f5f4c4954544c455f5245434549564544000000000000000000000000006044820152606401610e0b565b60007f00000000000000000000000000000000000000000000000000000000000000006001600160a01b031663aa5976c186866040516020016113849291906001600160a01b0392831681529116602082015260400190565b604051602081830303815290604052805190602001206040518263ffffffff1660e01b81526004016113b891815260200190565b6040805180830381865afa1580156113d4573d6000803e3d6000fd5b505050506040513d601f19601f820116820180604052508101906113f89190615826565b50905060ff81166115465761143533866107f86a64000000000000000000006fffffffffffffffffffffffffffffffff8716808204910615150190565b61146f33856107f861145a6fffffffffffffffffffffffffffffffff87166064615855565b68010000000000000000808204910615150190565b6001600160a01b037f00000000000000000000000000000000000000000000000000000000000000001663775dfc8286868686336040517fffffffff0000000000000000000000000000000000000000000000000000000060e088901b1681526001600160a01b03958616600482015294909316602485015262ffffff90911660448401526fffffffffffffffffffffffffffffffff166064830152608482015260a401600060405180830381600087803b15801561152d57600080fd5b505af1158015611541573d6000803e3d6000fd5b505050505b6115508585613bae565b505050505050565b610f5d83838360405180602001604052806000815250612bcf565b336001600160a01b037f000000000000000000000000000000000000000000000000000000000000000016146115a857600080fd5b831561155057611550866115be8385018561525d565b86613cea565b6040513360248201523060448201526064810186905260848101859052600160a482015260ff841660c482015260e4810183905261010481018290526000906001600160a01b03881690638fcbaf0c90610124015b6040516020818303038152906040529060e01b6020820180517bffffffffffffffffffffffffffffffffffffffffffffffffffffffff83818316178352505050506040516116679190615874565b6000604051808303816000865af19150503d80600081146116a4576040519150601f19603f3d011682016040523d82523d6000602084013e6116a9565b606091505b50509050806116fa5760405162461bcd60e51b815260206004820152600d60248201527f5045524d49545f4641494c4544000000000000000000000000000000000000006044820152606401610e0b565b50505050505050565b6006546001600160a01b0316331461171a57600080fd5b6006805473ffffffffffffffffffffffffffffffffffffffff19166001600160a01b0392909216919091179055565b336001600160a01b037f0000000000000000000000000000000000000000000000000000000000000000161461177e57600080fd5b600061178c8284018461525d565b9050841561179f5761179f878287613cea565b83156116fa576116fa868286613cea565b600080808084356117c081613ed9565b85356000908152600960209081526040808320815160a0808201845291546001600160a01b03808216835264ffffffffff7401000000000000000000000000000000000000000083041683870181905260ff790100000000000000000000000000000000000000000000000000840481168588019081527a0100000000000000000000000000000000000000000000000000008504600290810b6060808901918252600160e81b909704820b6080808a01918252958d52600b8c528a8d208b51808d018d52815489168152600191909101548816818e019081528c5161012081018e5282518a1681529051909816888e01529351909416868b015251810b95850195909552905190930b9082015291959094909391928301916118e891908d01908d016158aa565b6bffffffffffffffffffffffff1681528a35602082015284516001600160a01b0316604082015260600161192260c08c0160a08d016158c7565b15159052905061193860e08a0160c08b016158c7565b6119e9576040517fdec980ec0000000000000000000000000000000000000000000000000000000081526001600160a01b037f0000000000000000000000000000000000000000000000000000000000000000169063dec980ec906119a19084906004016158e4565b6080604051808303816000875af11580156119c0573d6000803e3d6000fd5b505050506040513d601f19601f820116820180604052508101906119e49190615997565b611a91565b6040517fadcef3680000000000000000000000000000000000000000000000000000000081526001600160a01b037f0000000000000000000000000000000000000000000000000000000000000000169063adcef36890611a4e9084906004016158e4565b6080604051808303816000875af1158015611a6d573d6000803e3d6000fd5b505050506040513d601f19601f82011682018060405250810190611a919190615997565b929a509098509650945060408901358810801590611ab3575088606001358710155b611aff5760405162461bcd60e51b815260206004820152600e60248201527f507269636520736c6970706167650000000000000000000000000000000000006044820152606401610e0b565b6000611b1160a08b0160808c0161525d565b6001600160a01b031614611b83576000611b2b878a6159cd565b90506000611b39878a6159cd565b90508115611b5c57611b5c611b5460a08d0160808e0161525d565b855184613128565b8015611b8057611b80611b7560a08d0160808e0161525d565b856020015183613128565b50505b505050509193509193565b604080513360208083019190915282518083039091018152818301928390527faaa9acd2000000000000000000000000000000000000000000000000000000009092527f00000000000000000000000000000000000000000000000000000000000000006001600160a01b03169163aaa9acd291611c17918891889188918891906044016159e5565b600060405180830381600087803b158015611c3157600080fd5b505af1158015611c45573d6000803e3d6000fd5b5050505050505050565b6000818152600960205260408120546001600160a01b031680610ced5760405162461bcd60e51b815260206004820152602960248201527f4552433732313a206f776e657220717565727920666f72206e6f6e657869737460448201527f656e7420746f6b656e00000000000000000000000000000000000000000000006064820152608401610e0b565b60006001600160a01b038216611d585760405162461bcd60e51b815260206004820152602a60248201527f4552433732313a2062616c616e636520717565727920666f7220746865207a6560448201527f726f2061646472657373000000000000000000000000000000000000000000006064820152608401610e0b565b506001600160a01b031660009081526002602052604090205490565b42841015611dc45760405162461bcd60e51b815260206004820152600e60248201527f5065726d697420457870697265640000000000000000000000000000000000006044820152606401610e0b565b6000611e6e604080517f8b73c3c69bb8fe3d512ecc4cf759cc79239f7b179b0ffacaa9a75d522b39400f60208201527f0000000000000000000000000000000000000000000000000000000000000000918101919091527fc89efdaa54c0f20c7adf612882df0950f5a951637e0307cdcb4c672f298b8bc660608201524660808201523060a082015260009060c00160405160208183030381529060405280519060200120905090565b600087815260076020526040812080547f49ecf333e5b8c95c40fdafc95c1ad136e8914a8fb55e9dc8bb01eaa83a2df9ad928b928b9291611eae83615a1d565b909155506040805160208101959095526001600160a01b03909316928401929092526060830152608082015260a0810187905260c00160405160208183030381529060405280519060200120604051602001611f3c9291907f190100000000000000000000000000000000000000000000000000000000000081526002810192909252602282015260420190565b6040516020818303038152906040528051906020012090506000611f5f87611c4f565b9050803b156120b457604080516020810186905280820185905260f887901b7fff000000000000000000000000000000000000000000000000000000000000001660608201528151604181830301815260618201928390527f1626ba7e000000000000000000000000000000000000000000000000000000009092526001600160a01b03831691631626ba7e91611ffa918691606501615a38565b602060405180830381865afa158015612017573d6000803e3d6000fd5b505050506040513d601f19601f8201168201806040525081019061203b9190615a51565b7bffffffffffffffffffffffffffffffffffffffffffffffffffffffff1916631626ba7e60e01b146120af5760405162461bcd60e51b815260206004820152600c60248201527f556e617574686f72697a656400000000000000000000000000000000000000006044820152606401610e0b565b6121ce565b6040805160008082526020820180845285905260ff881692820192909252606081018690526080810185905260019060a0016020604051602081039080840390855afa158015612108573d6000803e3d6000fd5b5050604051601f1901519150506001600160a01b03811661216b5760405162461bcd60e51b815260206004820152601160248201527f496e76616c6964207369676e61747572650000000000000000000000000000006044820152606401610e0b565b816001600160a01b0316816001600160a01b0316146121cc5760405162461bcd60e51b815260206004820152600c60248201527f556e617574686f72697a656400000000000000000000000000000000000000006044820152606401610e0b565b505b611c45888861377d565b60008080806121f76121f26101408701610120880161525d565b613f63565b935060006040518060a001604052808761012001602081019061221a919061525d565b6001600160a01b031681526020908101906122509061223b908a018a61525d565b61224b60408b0160208c0161525d565b613bae565b64ffffffffff16815260200161226c6060890160408a01615a6e565b60ff1681526020016122846080890160608a01615a9a565b60020b815260200161229c60a0890160808a01615a9a565b60020b9052600086815260096020908152604091829020835181548584015186860151606088015160808901516001600160a01b039095167fffffffffffffff00000000000000000000000000000000000000000000000000909416939093177401000000000000000000000000000000000000000064ffffffffff90931692909202919091177fffffff00000000ffffffffffffffffffffffffffffffffffffffffffffffffff1679010000000000000000000000000000000000000000000000000060ff909216919091027fffffff000000ffffffffffffffffffffffffffffffffffffffffffffffffffff16177a01000000000000000000000000000000000000000000000000000062ffffff92831602177cffffffffffffffffffffffffffffffffffffffffffffffffffffffffff16600160e81b919092160217905581518083019092529192506124599183919081906123fd908b018b61525d565b6001600160a01b0316815260200189602001602081019061241e919061525d565b6001600160a01b0316815250878960a001358a60c001358b60e001358c61010001358d61014001602081019061245491906158c7565b613fa9565b969891975095945092505050565b7f00000000000000000000000000000000000000000000000000000000000000006001600160a01b031663aaa9acd2306124a7866001600160a01b031690565b6040805133602082015287918791016040516020818303038152906040526040518663ffffffff1660e01b81526004016124e59594939291906159e5565b600060405180830381600087803b1580156124ff57600080fd5b505af11580156116fa573d6000803e3d6000fd5b606060018054610d02906156f1565b6001600160a01b03821633141561257b5760405162461bcd60e51b815260206004820152601960248201527f4552433732313a20617070726f766520746f2063616c6c6572000000000000006044820152606401610e0b565b3360008181526004602090815260408083206001600160a01b0387168085529083529281902080547fffffffffffffffffffffffffffffffffffffffffffffffffffffffffffffff001686151590811790915590519081529192917f17307eab39ab6107e8899845ad3d59bd9653f200f220920489ca2b5937696c31910160405180910390a35050565b60008161261181613b3b565b7f00000000000000000000000000000000000000000000000000000000000000006001600160a01b031663c6883ec56040518060c001604052808d8d8080601f0160208091040260200160405190810160405280939291908181526020018383808284376000920191909152505050908252506020016126908c613b78565b6126999061576d565b8152602001876126a957896126ab565b305b6001600160a01b03168152602001876126c55760006126d0565b6001600160a01b038a165b8152602001886126e15760006126e3565b335b81526020018861270c57604080513360208201520160405160208183030381529060405261271c565b6040805160008152602081019091525b8152506040518263ffffffff1660e01b815260040161273b9190615ab7565b60408051808303816000875af1158015612759573d6000803e3d6000fd5b505050506040513d601f19601f8201168201806040525081019061277d9190615802565b509150868211156127d05760405162461bcd60e51b815260206004820152601260248201527f544f4f5f4d5543485f52455155455354454400000000000000000000000000006044820152606401610e0b565b5098975050505050505050565b60608167ffffffffffffffff8111156127f8576127f86154c6565b60405190808252806020026020018201604052801561282b57816020015b60608152602001906001900390816128165790505b50905060005b828110156128f4576000803086868581811061284f5761284f615b2a565b90506020028101906128619190615b40565b60405161286f929190615ba5565b600060405180830381855af49150503d80600081146128aa576040519150601f19603f3d011682016040523d82523d6000602084013e6128af565b606091505b5091509150816128cc5780516128c457600080fd5b805181602001fd5b808484815181106128df576128df615b2a565b60209081029190910101525050600101612831565b5092915050565b6006546001600160a01b0316331461291257600080fd5b6005805473ffffffffffffffffffffffffffffffffffffffff19166001600160a01b0392909216919091179055565b60005b81811015610f5d57600083838381811061296057612960615b2a565b90506020020135905061297281613ed9565b6000818152600960209081526040808320815160a08101835290546001600160a01b03808216835274010000000000000000000000000000000000000000820464ffffffffff16838601819052790100000000000000000000000000000000000000000000000000830460ff16848601527a0100000000000000000000000000000000000000000000000000008304600290810b606080870191909152600160e81b909404900b60808501528652600b85528386208451808601865281548316808252600190920154831681880181905286519788019290925294860152919492937f00000000000000000000000000000000000000000000000000000000000000009092169163c625e3c3910160408051601f19818403018152828252805160209091012090870151606088015160808901517fffffffff0000000000000000000000000000000000000000000000000000000060e087901b1685526004850193909352306024850152604484018a905260ff9091166064840152600290810b60848401520b60a482015260c40160a060405180830381865afa158015612b1e573d6000803e3d6000fd5b505050506040513d601f19601f82011682018060405250810190612b429190615bcf565b80519091506bffffffffffffffffffffffff1615612ba25760405162461bcd60e51b815260206004820152600960248201527f4e4f545f454d50545900000000000000000000000000000000000000000000006044820152606401610e0b565b612bab84614285565b50505060009081526009602052604081205580612bc781615a1d565b915050612944565b612bd9338361383d565b612c4b5760405162461bcd60e51b815260206004820152603160248201527f4552433732313a207472616e736665722063616c6c6572206973206e6f74206f60448201527f776e6572206e6f7220617070726f7665640000000000000000000000000000006064820152608401610e0b565b612c5784848484614339565b50505050565b336001600160a01b037f00000000000000000000000000000000000000000000000000000000000000001614612c9257600080fd5b8215612c5757612c5784612ca88385018561525d565b85613cea565b6000818152600960205260409020546060906001600160a01b0316612d155760405162461bcd60e51b815260206004820152600f60248201527f746f6b656e206e6f7420657869737400000000000000000000000000000000006044820152606401610e0b565b6005546001600160a01b0316612d3a5760405180602001604052806000815250610ced565b6005546040517fe9dc6375000000000000000000000000000000000000000000000000000000008152306004820152602481018490526001600160a01b039091169063e9dc637590604401600060405180830381865afa158015612da2573d6000803e3d6000fd5b505050506040513d6000823e601f3d908101601f19168201604052610ced9190810190615c6c565b600080808335612dd981613ed9565b600060096000876000013581526020019081526020016000206040518060a00160405290816000820160009054906101000a90046001600160a01b03166001600160a01b03166001600160a01b031681526020016000820160149054906101000a900464ffffffffff1664ffffffffff1664ffffffffff1681526020016000820160199054906101000a900460ff1660ff1660ff16815260200160008201601a9054906101000a900460020b60020b60020b815260200160008201601d9054906101000a900460020b60020b60020b815250509050612f6c81600b6000846020015164ffffffffff1664ffffffffff1681526020019081526020016000206040518060400160405290816000820160009054906101000a90046001600160a01b03166001600160a01b03166001600160a01b031681526020016001820160009054906101000a90046001600160a01b03166001600160a01b03166001600160a01b031681525050886000013589602001358a604001358b606001358c608001358d60a001602081019061245491906158c7565b91989097509095509350505050565b81612f8581613ed9565b6000838152600960209081526040808320815160a08101835290546001600160a01b03808216835264ffffffffff7401000000000000000000000000000000000000000083041683860181905260ff790100000000000000000000000000000000000000000000000000840481168587019081527a0100000000000000000000000000000000000000000000000000008504600290810b60608801908152600160e81b909604810b60808801908152938a52600b895298879020875180890189528154861680825260019092015486169981018a905291519551935197517f8e9059d600000000000000000000000000000000000000000000000000000000815260048101919091526024810198909852938116604488015290870b60648701529390950b608485015260a4840188905291861660c48401529290917f000000000000000000000000000000000000000000000000000000000000000090911690638e9059d69060e401600060405180830381600087803b15801561310957600080fd5b505af115801561311d573d6000803e3d6000fd5b505050505050505050565b6040517f4b2084e30000000000000000000000000000000000000000000000000000000081526001600160a01b0384811660048301523360248301528381166044830152606482018390527f00000000000000000000000000000000000000000000000000000000000000001690634b2084e3906084016124e5565b6040517f70a082310000000000000000000000000000000000000000000000000000000081523060048201526000907f00000000000000000000000000000000000000000000000000000000000000006001600160a01b0316906370a0823190602401602060405180830381865afa158015613224573d6000803e3d6000fd5b505050506040513d601f19601f820116820180604052508101906132489190615cda565b90508281101561329a5760405162461bcd60e51b815260206004820152601160248201527f496e73756666696369656e7420574554480000000000000000000000000000006044820152606401610e0b565b8015610f5d576040517f2e1a7d4d000000000000000000000000000000000000000000000000000000008152600481018290527f00000000000000000000000000000000000000000000000000000000000000006001600160a01b031690632e1a7d4d90602401600060405180830381600087803b15801561331b57600080fd5b505af115801561332f573d6000803e3d6000fd5b50505050610f5d82826137f8565b6040805160a0810182526000808252602080830182905282840182905260608301829052608083018290528482526009905291822080546001600160a01b03811693928392790100000000000000000000000000000000000000000000000000830460ff16927a0100000000000000000000000000000000000000000000000000008104600290810b93600160e81b909204900b918761341f5760405162461bcd60e51b815260206004820152600a60248201527f4e4f545f455849535453000000000000000000000000000000000000000000006044820152606401610e0b565b805474010000000000000000000000000000000000000000900464ffffffffff166000908152600b60209081526040918290208054600182015484516001600160a01b03928316948101859052908216948101859052929a50929850917f0000000000000000000000000000000000000000000000000000000000000000169063c625e3c39060600160408051601f198184030181529082905280516020909101207fffffffff0000000000000000000000000000000000000000000000000000000060e084901b1682526004820152306024820152604481018d905260ff89166064820152600288810b608483015287900b60a482015260c40160a060405180830381865afa158015613537573d6000803e3d6000fd5b505050506040513d601f19601f8201168201806040525081019061355b9190615bcf565b92505050919395979092949650565b604051336024820152306044820152606481018690526084810185905260ff841660a482015260c4810183905260e481018290526000906001600160a01b0388169063d505accf9061010401611619565b6000816135c781613b3b565b7f00000000000000000000000000000000000000000000000000000000000000006001600160a01b031663c6883ec56040518060c001604052808d8d8080601f0160208091040260200160405190810160405280939291908181526020018383808284376000920191909152505050908252506020016136468c613b78565b8152602001876136565789613658565b305b6001600160a01b031681526020018761367257600061367d565b6001600160a01b038a165b81526020018861368e576000613690565b335b8152602001886136b95760408051336020820152016040516020818303038152906040526136c9565b6040805160008152602081019091525b8152506040518263ffffffff1660e01b81526004016136e89190615ab7565b60408051808303816000875af1158015613706573d6000803e3d6000fd5b505050506040513d601f19601f8201168201806040525081019061372a9190615802565b925050868210156127d05760405162461bcd60e51b815260206004820152601360248201527f544f4f5f4c4954544c455f5245434549564544000000000000000000000000006044820152606401610e0b565b6000818152600360205260409020805473ffffffffffffffffffffffffffffffffffffffff19166001600160a01b03841690811790915581906137bf82611c4f565b6001600160a01b03167f8c5be1e5ebec7d5bd14f71427d1e84f3dd0314c0f7b2291e5b200ac8c7c3b92560405160405180910390a45050565b600080600080600085875af1905080610f5d576040517fe293b56b00000000000000000000000000000000000000000000000000000000815260040160405180910390fd5b6000818152600960205260408120546001600160a01b03166138c75760405162461bcd60e51b815260206004820152602c60248201527f4552433732313a206f70657261746f7220717565727920666f72206e6f6e657860448201527f697374656e7420746f6b656e00000000000000000000000000000000000000006064820152608401610e0b565b60006138d283611c4f565b9050806001600160a01b0316846001600160a01b0316148061390d5750836001600160a01b031661390284610d85565b6001600160a01b0316145b8061393d57506001600160a01b0380821660009081526004602090815260408083209388168352929052205460ff165b949350505050565b826001600160a01b031661395882611c4f565b6001600160a01b0316146139d45760405162461bcd60e51b815260206004820152602960248201527f4552433732313a207472616e73666572206f6620746f6b656e2074686174206960448201527f73206e6f74206f776e00000000000000000000000000000000000000000000006064820152608401610e0b565b6001600160a01b038216613a4f5760405162461bcd60e51b8152602060048201526024808201527f4552433732313a207472616e7366657220746f20746865207a65726f2061646460448201527f72657373000000000000000000000000000000000000000000000000000000006064820152608401610e0b565b613a5a8383836143c2565b613a6560008261377d565b6001600160a01b0383166000908152600260205260408120805460019290613a8e908490615cf3565b90915550506001600160a01b0382166000908152600260205260408120805460019290613abc9084906159cd565b90915550506000818152600960205260409020805473ffffffffffffffffffffffffffffffffffffffff19166001600160a01b03841617905580826001600160a01b0316846001600160a01b03167fddf252ad1be2c89b69c2b068fc378daa952ba7f163c4a11628f55a4df523b3ef60405160405180910390a4505050565b80421115613b75576040517f70f65caa00000000000000000000000000000000000000000000000000000000815260040160405180910390fd5b50565b60007f7fffffffffffffffffffffffffffffffffffffffffffffffffffffffffffffff821115613baa57613baa615d0a565b5090565b6000808383604051602001613bd99291906001600160a01b0392831681529116602082015260400190565b60408051601f1981840301815291815281516020928301206000818152600c90935291205464ffffffffff1692509050816128f457600a805464ffffffffff16906000613c2583615d20565b82546101009290920a64ffffffffff8181021990931691831602179091556000928352600c6020908152604080852080547fffffffffffffffffffffffffffffffffffffffffffffffffffffff0000000000169385169384179055805180820182526001600160a01b039889168152968816878301908152928552600b9091529092209351845473ffffffffffffffffffffffffffffffffffffffff199081169187169190911785559151600194909401805490921693909416929092179091555090565b7f00000000000000000000000000000000000000000000000000000000000000006001600160a01b0316836001600160a01b0316148015613d2b5750804710155b15613e71577f00000000000000000000000000000000000000000000000000000000000000006001600160a01b031663d0e30db0826040518263ffffffff1660e01b81526004016000604051808303818588803b158015613d8b57600080fd5b505af1158015613d9f573d6000803e3d6000fd5b50506040517fa9059cbb0000000000000000000000000000000000000000000000000000000081526001600160a01b037f000000000000000000000000000000000000000000000000000000000000000081166004830152602482018690527f000000000000000000000000000000000000000000000000000000000000000016935063a9059cbb925060440190506020604051808303816000875af1158015613e4d573d6000803e3d6000fd5b505050506040513d601f19601f82011682018060405250810190612c579190615d45565b6001600160a01b038216301415613ead57610f5d837f0000000000000000000000000000000000000000000000000000000000000000836144aa565b610f5d83837f000000000000000000000000000000000000000000000000000000000000000084614534565b6000818152600960205260409020546001600160a01b0316331480613f175750613f0281610d85565b6001600160a01b0316336001600160a01b0316145b613b755760405162461bcd60e51b815260206004820152600c60248201527f4e4f545f415050524f56454400000000000000000000000000000000000000006044820152606401610e0b565b600854600090613f86906fffffffffffffffffffffffffffffffff166001615d62565b6fffffffffffffffffffffffffffffffff169050613fa482826145d4565b919050565b60008060006140bb7f00000000000000000000000000000000000000000000000000000000000000006001600160a01b031663dc6574658c600001518d602001516040516020016140109291906001600160a01b0392831681529116602082015260400190565b604051602081830303815290604052805190602001208e604001516040518363ffffffff1660e01b815260040161405492919091825260ff16602082015260400190565b61010060405180830381865afa158015614072573d6000803e3d6000fd5b505050506040513d601f19601f820116820180604052508101906140969190615db7565b602001516140a78d60600151614739565b6140b48e60800151614739565b8b8b614a73565b92507f00000000000000000000000000000000000000000000000000000000000000006001600160a01b0316632fb07eac6040518061014001604052808d600001516001600160a01b031681526020018d602001516001600160a01b031681526020018e6040015160ff1681526020018e6060015160020b81526020018e6080015160020b8152602001866bffffffffffffffffffffffff168152602001306001600160a01b031681526020018c81526020018761417a57600061417c565b335b8152602001876141a55760408051336020820152016040516020818303038152906040526141b5565b6040805160008152602081019091525b8152506040518263ffffffff1660e01b81526004016141d49190615e81565b60408051808303816000875af11580156141f2573d6000803e3d6000fd5b505050506040513d601f19601f820116820180604052508101906142169190615802565b909250905085821080159061422b5750848110155b6142775760405162461bcd60e51b815260206004820152600e60248201527f507269636520736c6970706167650000000000000000000000000000000000006044820152606401610e0b565b985098509895505050505050565b600061429082611c4f565b905061429e816000846143c2565b6142a960008361377d565b6001600160a01b03811660009081526002602052604081208054600192906142d2908490615cf3565b9091555050600082815260096020526040808220805473ffffffffffffffffffffffffffffffffffffffff19169055518391906001600160a01b038416907fddf252ad1be2c89b69c2b068fc378daa952ba7f163c4a11628f55a4df523b3ef908390a45050565b614344848484613945565b61435084848484614bfb565b612c575760405162461bcd60e51b815260206004820152603260248201527f4552433732313a207472616e7366657220746f206e6f6e20455243373231526560448201527f63656976657220696d706c656d656e74657200000000000000000000000000006064820152608401610e0b565b6001600160a01b03831661442a57600880546fffffffffffffffffffffffffffffffff169060006143f283615f54565b91906101000a8154816fffffffffffffffffffffffffffffffff02191690836fffffffffffffffffffffffffffffffff160217905550505b6001600160a01b038216610f5d576008805470010000000000000000000000000000000090046fffffffffffffffffffffffffffffffff1690601061446e83615f54565b91906101000a8154816fffffffffffffffffffffffffffffffff02191690836fffffffffffffffffffffffffffffffff16021790555050505050565b60006040517fa9059cbb0000000000000000000000000000000000000000000000000000000081526001600160a01b03841660048201528260248201526000806044836000895af19150506144fe81614d91565b612c57576040517fbfa871c500000000000000000000000000000000000000000000000000000000815260040160405180910390fd5b60006040517f23b872dd0000000000000000000000000000000000000000000000000000000081526001600160a01b03851660048201526001600160a01b038416602482015282604482015260008060648360008a5af191505061459781614d91565b6145cd576040517fa83c475400000000000000000000000000000000000000000000000000000000815260040160405180910390fd5b5050505050565b6001600160a01b03821661462a5760405162461bcd60e51b815260206004820181905260248201527f4552433732313a206d696e7420746f20746865207a65726f20616464726573736044820152606401610e0b565b6000818152600960205260409020546001600160a01b03161561468f5760405162461bcd60e51b815260206004820152601c60248201527f4552433732313a20746f6b656e20616c7265616479206d696e746564000000006044820152606401610e0b565b61469b600083836143c2565b6001600160a01b03821660009081526002602052604081208054600192906146c49084906159cd565b90915550506000818152600960205260409020805473ffffffffffffffffffffffffffffffffffffffff19166001600160a01b03841617905560405181906001600160a01b038416906000907fddf252ad1be2c89b69c2b068fc378daa952ba7f163c4a11628f55a4df523b3ef908290a45050565b6000600282900b7ffffffffffffffffffffffffffffffffffffffffffffffffffffffffffff42755138015906147765750620bd8ab600283900b13155b61477f57600080fd5b6000808360020b126147915782614796565b826000035b62ffffff8116915070010000000000000000000000000000000090600116156147cf576ffffcb933bd6fad37aa2d162d1a5940010260801c5b60028216156147ee576ffff97272373d413259a46990580e213a0260801c5b600482161561480d576ffff2e50f5f656932ef12357cf3c7fdcc0260801c5b600882161561482c576fffe5caca7e10e4e61c3624eaa0941cd00260801c5b601082161561484b576fffcb9843d60f6159c9db58835c9266440260801c5b602082161561486a576fff973b41fa98c081472e6896dfb254c00260801c5b6040821615614889576fff2ea16466c96a3843ec78b326b528610260801c5b60808216156148a8576ffe5dee046a99a2a811c461f1969c30530260801c5b6101008216156148c8576ffcbe86c7900a88aedcffc83b479aa3a40260801c5b6102008216156148e8576ff987a7253ac413176f2b074cf7815e540260801c5b610400821615614908576ff3392b0822b70005940c7a398e4b70f30260801c5b610800821615614928576fe7159475a2c29b7443b29c7fa6e889d90260801c5b611000821615614948576fd097f3bdfd2022b8845ad8f792aa58250260801c5b612000821615614968576fa9f746462d870fdf8a65dc1f90e061e50260801c5b614000821615614988576f70d869a156d2a1b890bb3df62baf32f70260801c5b6180008216156149a8576f31be135f97d08fd981231505542fcfa60260801c5b620100008216156149c9576f09aa508b5b7a84e1c677de54f3e99bc90260801c5b620200008216156149e9576e5d6af8dedb81196699c329225ee6040260801c5b62040000821615614a08576d2216e584f5fa1ea926041bedfe980260801c5b62080000821615614a25576b048a170391f7dc42444e8fa20260801c5b60008460020b12614a45578060001981614a4157614a41615f7a565b0490505b6000670100000000000000820611614a5e576000614a61565b60015b60ff16603882901c0192505050919050565b600080856fffffffffffffffffffffffffffffffff16876fffffffffffffffffffffffffffffffff1611614af957614af284866fffffffffffffffffffffffffffffffff16886fffffffffffffffffffffffffffffffff160269010000000000000000008989036fffffffffffffffffffffffffffffffff1602614dd8565b9050614be3565b846fffffffffffffffffffffffffffffffff16876fffffffffffffffffffffffffffffffff1610614b4d57614af28369010000000000000000008888036fffffffffffffffffffffffffffffffff16614dd8565b6000614ba085876fffffffffffffffffffffffffffffffff168a6fffffffffffffffffffffffffffffffff160269010000000000000000008b8a036fffffffffffffffffffffffffffffffff1602614dd8565b90506000614bcd8569010000000000000000008a8c036fffffffffffffffffffffffffffffffff16614dd8565b9050808210614bdc5780614bde565b815b925050505b614bf0600882901c614e8d565b979650505050505050565b60006001600160a01b0384163b15614d86576040517f150b7a020000000000000000000000000000000000000000000000000000000081526001600160a01b0385169063150b7a0290614c58903390899088908890600401615f90565b6020604051808303816000875af1925050508015614c93575060408051601f3d908101601f19168201909252614c9091810190615a51565b60015b614d3b573d808015614cc1576040519150601f19603f3d011682016040523d82523d6000602084013e614cc6565b606091505b5080516128c45760405162461bcd60e51b815260206004820152603260248201527f4552433732313a207472616e7366657220746f206e6f6e20455243373231526560448201527f63656976657220696d706c656d656e74657200000000000000000000000000006064820152608401610e0b565b7fffffffff00000000000000000000000000000000000000000000000000000000167f150b7a020000000000000000000000000000000000000000000000000000000014905061393d565b506001949350505050565b60003d82614da357806000803e806000fd5b8060208114614dbb578015614dcc5760009250614dd1565b816000803e60005115159250614dd1565b600192505b5050919050565b600080806000198587098587029250828110838203039150508060001415614e125760008411614e0757600080fd5b508290049050614e86565b808411614e1e57600080fd5b600084868809851960019081018716968790049682860381900495909211909303600082900391909104909201919091029190911760038402600290811880860282030280860282030280860282030280860282030280860282030280860290910302029150505b9392505050565b60006bffffffffffffffffffffffff821115613baa57613baa615d0a565b7fffffffff0000000000000000000000000000000000000000000000000000000081168114613b7557600080fd5b600060208284031215614eeb57600080fd5b8135614e8681614eab565b60005b83811015614f11578181015183820152602001614ef9565b83811115612c575750506000910152565b60008151808452614f3a816020860160208601614ef6565b601f01601f19169290920160200192915050565b602081526000614e866020830184614f22565b600060208284031215614f7357600080fd5b5035919050565b6001600160a01b0381168114613b7557600080fd5b60008060408385031215614fa257600080fd5b8235614fad81614f7a565b946020939093013593505050565b600080600060608486031215614fd057600080fd5b8335614fdb81614f7a565b92506020840135614feb81614f7a565b929592945050506040919091013590565b8015158114613b7557600080fd5b60008060008060008060008060006101208a8c03121561502957600080fd5b893561503481614f7a565b985060208a013561504481614f7a565b975060408a0135965060608a0135955060808a0135945060a08a013561506981614f7a565b935060c08a013561507981614ffc565b925060e08a013561508981614ffc565b809250506101008a013590509295985092959850929598565b62ffffff81168114613b7557600080fd5b6fffffffffffffffffffffffffffffffff81168114613b7557600080fd5b600080600080608085870312156150e757600080fd5b84356150f281614f7a565b9350602085013561510281614f7a565b92506040850135615112816150a2565b91506060850135615122816150b3565b939692955090935050565b60008083601f84011261513f57600080fd5b50813567ffffffffffffffff81111561515757600080fd5b60208301915083602082850101111561516f57600080fd5b9250929050565b60008060008060008060a0878903121561518f57600080fd5b863561519a81614f7a565b955060208701356151aa81614f7a565b94506040870135935060608701359250608087013567ffffffffffffffff8111156151d457600080fd5b6151e089828a0161512d565b979a9699509497509295939492505050565b60ff81168114613b7557600080fd5b60008060008060008060c0878903121561521a57600080fd5b863561522581614f7a565b955060208701359450604087013593506060870135615243816151f2565b9598949750929560808101359460a0909101359350915050565b60006020828403121561526f57600080fd5b8135614e8681614f7a565b600060e0828403121561528c57600080fd5b50919050565b600080600080608085870312156152a857600080fd5b84356152b381614f7a565b93506020850135925060408501356152ca81614f7a565b9396929550929360600135925050565b6000610160828403121561528c57600080fd5b6000806040838503121561530057600080fd5b823561530b81614f7a565b9150602083013561531b81614ffc565b809150509250929050565b60008060008060008060008060e0898b03121561534257600080fd5b883567ffffffffffffffff81111561535957600080fd5b6153658b828c0161512d565b9099509750506020890135955060408901359450606089013561538781614f7a565b9350608089013561539781614ffc565b925060a08901356153a781614ffc565b8092505060c089013590509295985092959890939650565b60008083601f8401126153d157600080fd5b50813567ffffffffffffffff8111156153e957600080fd5b6020830191508360208260051b850101111561516f57600080fd5b6000806020838503121561541757600080fd5b823567ffffffffffffffff81111561542e57600080fd5b61543a858286016153bf565b90969095509350505050565b6000602080830181845280855180835260408601915060408160051b870101925083870160005b828110156154b9577fffffffffffffffffffffffffffffffffffffffffffffffffffffffffffffffc08886030184526154a7858351614f22565b9450928501929085019060010161546d565b5092979650505050505050565b634e487b7160e01b600052604160045260246000fd5b604051601f8201601f1916810167ffffffffffffffff81118282101715615505576155056154c6565b604052919050565b600067ffffffffffffffff821115615527576155276154c6565b50601f01601f191660200190565b6000806000806080858703121561554b57600080fd5b843561555681614f7a565b9350602085013561556681614f7a565b925060408501359150606085013567ffffffffffffffff81111561558957600080fd5b8501601f8101871361559a57600080fd5b80356155ad6155a88261550d565b6154dc565b8181528860208385010111156155c257600080fd5b8160208401602083013760006020838301015280935050505092959194509250565b600080600080606085870312156155fa57600080fd5b843561560581614f7a565b935060208501359250604085013567ffffffffffffffff81111561562857600080fd5b6156348782880161512d565b95989497509550505050565b600060c0828403121561528c57600080fd5b6000806040838503121561566557600080fd5b82359150602083013561531b816151f2565b6000806040838503121561568a57600080fd5b82359150602083013561531b81614f7a565b600080604083850312156156af57600080fd5b82356156ba81614f7a565b9150602083013561531b81614f7a565b6000602082840312156156dc57600080fd5b813564ffffffffff81168114614e8657600080fd5b600181811c9082168061570557607f821691505b6020821081141561528c57634e487b7160e01b600052602260045260246000fd5b634e487b7160e01b600052601160045260246000fd5b60006fffffffffffffffffffffffffffffffff8381169083168181101561576557615765615726565b039392505050565b60007f800000000000000000000000000000000000000000000000000000000000000082141561579f5761579f615726565b5060000390565b60006101006001600160a01b03808c168452808b1660208501528960408501528860608501528088166080850152508560a08401528460c08401528060e08401526157f381840185614f22565b9b9a5050505050505050505050565b6000806040838503121561581557600080fd5b505080516020909101519092909150565b6000806040838503121561583957600080fd5b8251615844816151f2565b602084015190925061531b816151f2565b600081600019048311821515161561586f5761586f615726565b500290565b60008251615886818460208701614ef6565b9190910192915050565b6bffffffffffffffffffffffff81168114613b7557600080fd5b6000602082840312156158bc57600080fd5b8135614e8681615890565b6000602082840312156158d957600080fd5b8135614e8681614ffc565b6000610120820190506001600160a01b0380845116835280602085015116602084015250604083015161591c604084018260ff169052565b506060830151615931606084018260020b9052565b506080830151615946608084018260020b9052565b5060a083015161596660a08401826bffffffffffffffffffffffff169052565b5060c083015160c083015260e083015160e08301526101008084015161598f8285018215159052565b505092915050565b600080600080608085870312156159ad57600080fd5b505082516020840151604085015160609095015191969095509092509050565b600082198211156159e0576159e0615726565b500190565b60006001600160a01b03808816835286602084015280861660408401525083606083015260a06080830152614bf060a0830184614f22565b6000600019821415615a3157615a31615726565b5060010190565b82815260406020820152600061393d6040830184614f22565b600060208284031215615a6357600080fd5b8151614e8681614eab565b600060208284031215615a8057600080fd5b8135614e86816151f2565b8060020b8114613b7557600080fd5b600060208284031215615aac57600080fd5b8135614e8681615a8b565b602081526000825160c06020840152615ad360e0840182614f22565b9050602084015160408401526001600160a01b03604085015116606084015260608401516080840152608084015160a084015260a0840151601f198483030160c0850152615b218282614f22565b95945050505050565b634e487b7160e01b600052603260045260246000fd5b60008083357fffffffffffffffffffffffffffffffffffffffffffffffffffffffffffffffe1843603018112615b7557600080fd5b83018035915067ffffffffffffffff821115615b9057600080fd5b60200191503681900382131561516f57600080fd5b8183823760009101908152919050565b805169ffffffffffffffffffff81168114613fa457600080fd5b600060a08284031215615be157600080fd5b60405160a0810181811067ffffffffffffffff82111715615c0457615c046154c6565b6040528251615c1281615890565b8152615c2060208401615bb5565b6020820152615c3160408401615bb5565b60408201526060830151615c44816151f2565b6060820152608083015163ffffffff81168114615c6057600080fd5b60808201529392505050565b600060208284031215615c7e57600080fd5b815167ffffffffffffffff811115615c9557600080fd5b8201601f81018413615ca657600080fd5b8051615cb46155a88261550d565b818152856020838501011115615cc957600080fd5b615b21826020830160208601614ef6565b600060208284031215615cec57600080fd5b5051919050565b600082821015615d0557615d05615726565b500390565b634e487b7160e01b600052600160045260246000fd5b600064ffffffffff80831681811415615d3b57615d3b615726565b6001019392505050565b600060208284031215615d5757600080fd5b8151614e8681614ffc565b60006fffffffffffffffffffffffffffffffff808316818516808303821115615d8d57615d8d615726565b01949350505050565b8051613fa4816150b3565b8051613fa4816150a2565b8051613fa481615a8b565b6000610100808385031215615dcb57600080fd5b6040519081019067ffffffffffffffff82118183101715615dee57615dee6154c6565b8160405283519150615dff826150b3565b818152615e0e60208501615d96565b6020820152615e1f60408501615da1565b6040820152615e3060608501615dac565b6060820152615e4160808501615dac565b6080820152615e5260a08501615dac565b60a0820152615e6360c08501615bb5565b60c0820152615e7460e08501615bb5565b60e0820152949350505050565b60208152615e9b6020820183516001600160a01b03169052565b60006020830151615eb760408401826001600160a01b03169052565b50604083015160ff81166060840152506060830151615edb608084018260020b9052565b506080830151615ef060a084018260020b9052565b5060a08301516bffffffffffffffffffffffff811660c08401525060c08301516001600160a01b03811660e08401525060e083015161010083810191909152830151610120808401919091528301516101408084015261393d610160840182614f22565b60006fffffffffffffffffffffffffffffffff80831681811415615d3b57615d3b615726565b634e487b7160e01b600052601260045260246000fd5b60006001600160a01b03808716835280861660208401525083604083015260806060830152615fc26080830184614f22565b969550505050505056fea164736f6c634300080a000a",
  "linkReferences": {},
  "deployedLinkReferences": {}
}