{
  "_format": "hh-sol-artifact-1",
  "contractName": "Manager",
  "sourceName": "contracts/periphery/Manager.sol",
  "abi": [
    {
      "inputs": [
        {
          "internalType": "address",
          "name": "_hub",
          "type": "address"
        },
        {
          "internalType": "address",
          "name": "_WETH9",
          "type": "address"
        }
      ],
      "stateMutability": "nonpayable",
      "type": "constructor"
    },
    {
      "inputs": [],
      "name": "FailedTransfer",
      "type": "error"
    },
    {
      "inputs": [],
      "name": "FailedTransferETH",
      "type": "error"
    },
    {
      "inputs": [],
      "name": "FailedTransferFrom",
      "type": "error"
    },
    {
      "anonymous": false,
      "inputs": [
        {
          "indexed": true,
          "internalType": "address",
          "name": "owner",
          "type": "address"
        },
        {
          "indexed": true,
          "internalType": "address",
          "name": "approved",
          "type": "address"
        },
        {
          "indexed": true,
          "internalType": "uint256",
          "name": "tokenId",
          "type": "uint256"
        }
      ],
      "name": "Approval",
      "type": "event"
    },
    {
      "anonymous": false,
      "inputs": [
        {
          "indexed": true,
          "internalType": "address",
          "name": "owner",
          "type": "address"
        },
        {
          "indexed": true,
          "internalType": "address",
          "name": "operator",
          "type": "address"
        },
        {
          "indexed": false,
          "internalType": "bool",
          "name": "approved",
          "type": "bool"
        }
      ],
      "name": "ApprovalForAll",
      "type": "event"
    },
    {
      "anonymous": false,
      "inputs": [
        {
          "indexed": true,
          "internalType": "address",
          "name": "from",
          "type": "address"
        },
        {
          "indexed": true,
          "internalType": "address",
          "name": "to",
          "type": "address"
        },
        {
          "indexed": true,
          "internalType": "uint256",
          "name": "tokenId",
          "type": "uint256"
        }
      ],
      "name": "Transfer",
      "type": "event"
    },
    {
      "inputs": [],
      "name": "DOMAIN_SEPARATOR",
      "outputs": [
        {
          "internalType": "bytes32",
          "name": "domainSeperator",
          "type": "bytes32"
        }
      ],
      "stateMutability": "view",
      "type": "function"
    },
    {
      "inputs": [],
      "name": "PERMIT_TYPEHASH",
      "outputs": [
        {
          "internalType": "bytes32",
          "name": "",
          "type": "bytes32"
        }
      ],
      "stateMutability": "view",
      "type": "function"
    },
    {
      "inputs": [],
      "name": "WETH9",
      "outputs": [
        {
          "internalType": "address",
          "name": "",
          "type": "address"
        }
      ],
      "stateMutability": "view",
      "type": "function"
    },
    {
      "inputs": [
        {
          "components": [
            {
              "internalType": "uint256",
              "name": "tokenId",
              "type": "uint256"
            },
            {
              "internalType": "uint256",
              "name": "amount0Desired",
              "type": "uint256"
            },
            {
              "internalType": "uint256",
              "name": "amount1Desired",
              "type": "uint256"
            },
            {
              "internalType": "uint256",
              "name": "amount0Min",
              "type": "uint256"
            },
            {
              "internalType": "uint256",
              "name": "amount1Min",
              "type": "uint256"
            },
            {
              "internalType": "bool",
              "name": "useAccount",
              "type": "bool"
            }
          ],
          "internalType": "struct PositionManager.AddLiquidityParams",
          "name": "params",
          "type": "tuple"
        }
      ],
      "name": "addLiquidity",
      "outputs": [
        {
          "internalType": "uint96",
          "name": "liquidityD8",
          "type": "uint96"
        },
        {
          "internalType": "uint256",
          "name": "amount0",
          "type": "uint256"
        },
        {
          "internalType": "uint256",
          "name": "amount1",
          "type": "uint256"
        }
      ],
      "stateMutability": "payable",
      "type": "function"
    },
    {
      "inputs": [
        {
          "internalType": "address",
          "name": "to",
          "type": "address"
        },
        {
          "internalType": "uint256",
          "name": "tokenId",
          "type": "uint256"
        }
      ],
      "name": "approve",
      "outputs": [],
      "stateMutability": "nonpayable",
      "type": "function"
    },
    {
      "inputs": [
        {
          "internalType": "address",
          "name": "owner",
          "type": "address"
        }
      ],
      "name": "balanceOf",
      "outputs": [
        {
          "internalType": "uint256",
          "name": "",
          "type": "uint256"
        }
      ],
      "stateMutability": "view",
      "type": "function"
    },
    {
      "inputs": [
        {
          "internalType": "uint256[]",
          "name": "tokenIds",
          "type": "uint256[]"
        }
      ],
      "name": "burn",
      "outputs": [],
      "stateMutability": "payable",
      "type": "function"
    },
    {
      "inputs": [
        {
          "internalType": "address",
          "name": "token0",
          "type": "address"
        },
        {
          "internalType": "address",
          "name": "token1",
          "type": "address"
        },
        {
          "internalType": "uint24",
          "name": "sqrtGamma",
          "type": "uint24"
        },
        {
          "internalType": "uint128",
          "name": "sqrtPrice",
          "type": "uint128"
        }
      ],
      "name": "createPool",
      "outputs": [],
      "stateMutability": "nonpayable",
      "type": "function"
    },
    {
      "inputs": [
        {
          "internalType": "address",
          "name": "recipient",
          "type": "address"
        },
        {
          "internalType": "address",
          "name": "token",
          "type": "address"
        },
        {
          "internalType": "uint256",
          "name": "amount",
          "type": "uint256"
        }
      ],
      "name": "deposit",
      "outputs": [],
      "stateMutability": "payable",
      "type": "function"
    },
    {
      "inputs": [
        {
          "internalType": "address",
          "name": "token",
          "type": "address"
        },
        {
          "internalType": "uint256",
          "name": "amount",
          "type": "uint256"
        },
        {
          "internalType": "bytes",
          "name": "data",
          "type": "bytes"
        }
      ],
      "name": "depositCallback",
      "outputs": [],
      "stateMutability": "nonpayable",
      "type": "function"
    },
    {
      "inputs": [
        {
          "internalType": "address",
          "name": "recipient",
          "type": "address"
        },
        {
          "internalType": "uint256",
          "name": "recipientAccRefId",
          "type": "uint256"
        },
        {
          "internalType": "address",
          "name": "token",
          "type": "address"
        },
        {
          "internalType": "uint256",
          "name": "amount",
          "type": "uint256"
        }
      ],
      "name": "depositToExternal",
      "outputs": [],
      "stateMutability": "payable",
      "type": "function"
    },
    {
      "inputs": [
        {
          "internalType": "bytes",
          "name": "path",
          "type": "bytes"
        },
        {
          "internalType": "uint256",
          "name": "amountIn",
          "type": "uint256"
        },
        {
          "internalType": "uint256",
          "name": "amountOutMinimum",
          "type": "uint256"
        },
        {
          "internalType": "address",
          "name": "recipient",
          "type": "address"
        },
        {
          "internalType": "bool",
          "name": "fromAccount",
          "type": "bool"
        },
        {
          "internalType": "bool",
          "name": "toAccount",
          "type": "bool"
        }
      ],
      "name": "exactIn",
      "outputs": [
        {
          "internalType": "uint256",
          "name": "amountOut",
          "type": "uint256"
        }
      ],
      "stateMutability": "payable",
      "type": "function"
    },
    {
      "inputs": [
        {
          "internalType": "address",
          "name": "tokenIn",
          "type": "address"
        },
        {
          "internalType": "address",
          "name": "tokenOut",
          "type": "address"
        },
        {
          "internalType": "uint256",
          "name": "tierChoices",
          "type": "uint256"
        },
        {
          "internalType": "uint256",
          "name": "amountIn",
          "type": "uint256"
        },
        {
          "internalType": "uint256",
          "name": "amountOutMinimum",
          "type": "uint256"
        },
        {
          "internalType": "address",
          "name": "recipient",
          "type": "address"
        },
        {
          "internalType": "bool",
          "name": "fromAccount",
          "type": "bool"
        },
        {
          "internalType": "bool",
          "name": "toAccount",
          "type": "bool"
        }
      ],
      "name": "exactInSingle",
      "outputs": [
        {
          "internalType": "uint256",
          "name": "amountOut",
          "type": "uint256"
        }
      ],
      "stateMutability": "payable",
      "type": "function"
    },
    {
      "inputs": [
        {
          "internalType": "bytes",
          "name": "path",
          "type": "bytes"
        },
        {
          "internalType": "uint256",
          "name": "amountOut",
          "type": "uint256"
        },
        {
          "internalType": "uint256",
          "name": "amountInMaximum",
          "type": "uint256"
        },
        {
          "internalType": "address",
          "name": "recipient",
          "type": "address"
        },
        {
          "internalType": "bool",
          "name": "fromAccount",
          "type": "bool"
        },
        {
          "internalType": "bool",
          "name": "toAccount",
          "type": "bool"
        }
      ],
      "name": "exactOut",
      "outputs": [
        {
          "internalType": "uint256",
          "name": "amountIn",
          "type": "uint256"
        }
      ],
      "stateMutability": "payable",
      "type": "function"
    },
    {
      "inputs": [
        {
          "internalType": "address",
          "name": "tokenIn",
          "type": "address"
        },
        {
          "internalType": "address",
          "name": "tokenOut",
          "type": "address"
        },
        {
          "internalType": "uint256",
          "name": "tierChoices",
          "type": "uint256"
        },
        {
          "internalType": "uint256",
          "name": "amountOut",
          "type": "uint256"
        },
        {
          "internalType": "uint256",
          "name": "amountInMaximum",
          "type": "uint256"
        },
        {
          "internalType": "address",
          "name": "recipient",
          "type": "address"
        },
        {
          "internalType": "bool",
          "name": "fromAccount",
          "type": "bool"
        },
        {
          "internalType": "bool",
          "name": "toAccount",
          "type": "bool"
        }
      ],
      "name": "exactOutSingle",
      "outputs": [
        {
          "internalType": "uint256",
          "name": "amountIn",
          "type": "uint256"
        }
      ],
      "stateMutability": "payable",
      "type": "function"
    },
    {
      "inputs": [
        {
          "internalType": "uint256",
          "name": "tokenId",
          "type": "uint256"
        }
      ],
      "name": "getApproved",
      "outputs": [
        {
          "internalType": "address",
          "name": "",
          "type": "address"
        }
      ],
      "stateMutability": "view",
      "type": "function"
    },
    {
      "inputs": [
        {
          "internalType": "uint256",
          "name": "tokenId",
          "type": "uint256"
        }
      ],
      "name": "getPosition",
      "outputs": [
        {
          "internalType": "address",
          "name": "owner",
          "type": "address"
        },
        {
          "internalType": "address",
          "name": "token0",
          "type": "address"
        },
        {
          "internalType": "address",
          "name": "token1",
          "type": "address"
        },
        {
          "internalType": "uint8",
          "name": "tierId",
          "type": "uint8"
        },
        {
          "internalType": "int24",
          "name": "tickLower",
          "type": "int24"
        },
        {
          "internalType": "int24",
          "name": "tickUpper",
          "type": "int24"
        },
        {
          "components": [
            {
              "internalType": "uint96",
              "name": "liquidityD8",
              "type": "uint96"
            },
            {
              "internalType": "uint80",
              "name": "feeGrowthInside0Last",
              "type": "uint80"
            },
            {
              "internalType": "uint80",
              "name": "feeGrowthInside1Last",
              "type": "uint80"
            },
            {
              "internalType": "uint8",
              "name": "limitOrderType",
              "type": "uint8"
            },
            {
              "internalType": "uint32",
              "name": "settlementSnapshotId",
              "type": "uint32"
            }
          ],
          "internalType": "struct Positions.Position",
          "name": "position",
          "type": "tuple"
        }
      ],
      "stateMutability": "view",
      "type": "function"
    },
    {
      "inputs": [],
      "name": "hub",
      "outputs": [
        {
          "internalType": "address",
          "name": "",
          "type": "address"
        }
      ],
      "stateMutability": "view",
      "type": "function"
    },
    {
      "inputs": [
        {
          "internalType": "address",
          "name": "owner",
          "type": "address"
        },
        {
          "internalType": "address",
          "name": "operator",
          "type": "address"
        }
      ],
      "name": "isApprovedForAll",
      "outputs": [
        {
          "internalType": "bool",
          "name": "",
          "type": "bool"
        }
      ],
      "stateMutability": "view",
      "type": "function"
    },
    {
      "inputs": [
        {
          "components": [
            {
              "internalType": "address",
              "name": "token0",
              "type": "address"
            },
            {
              "internalType": "address",
              "name": "token1",
              "type": "address"
            },
            {
              "internalType": "uint8",
              "name": "tierId",
              "type": "uint8"
            },
            {
              "internalType": "int24",
              "name": "tickLower",
              "type": "int24"
            },
            {
              "internalType": "int24",
              "name": "tickUpper",
              "type": "int24"
            },
            {
              "internalType": "uint256",
              "name": "amount0Desired",
              "type": "uint256"
            },
            {
              "internalType": "uint256",
              "name": "amount1Desired",
              "type": "uint256"
            },
            {
              "internalType": "uint256",
              "name": "amount0Min",
              "type": "uint256"
            },
            {
              "internalType": "uint256",
              "name": "amount1Min",
              "type": "uint256"
            },
            {
              "internalType": "address",
              "name": "recipient",
              "type": "address"
            },
            {
              "internalType": "bool",
              "name": "useAccount",
              "type": "bool"
            }
          ],
          "internalType": "struct PositionManager.MintParams",
          "name": "params",
          "type": "tuple"
        }
      ],
      "name": "mint",
      "outputs": [
        {
          "internalType": "uint256",
          "name": "tokenId",
          "type": "uint256"
        },
        {
          "internalType": "uint96",
          "name": "liquidityD8",
          "type": "uint96"
        },
        {
          "internalType": "uint256",
          "name": "amount0",
          "type": "uint256"
        },
        {
          "internalType": "uint256",
          "name": "amount1",
          "type": "uint256"
        }
      ],
      "stateMutability": "payable",
      "type": "function"
    },
    {
      "inputs": [
        {
          "internalType": "address",
          "name": "token0",
          "type": "address"
        },
        {
          "internalType": "address",
          "name": "token1",
          "type": "address"
        },
        {
          "internalType": "uint256",
          "name": "amount0",
          "type": "uint256"
        },
        {
          "internalType": "uint256",
          "name": "amount1",
          "type": "uint256"
        },
        {
          "internalType": "bytes",
          "name": "data",
          "type": "bytes"
        }
      ],
      "name": "mintCallback",
      "outputs": [],
      "stateMutability": "nonpayable",
      "type": "function"
    },
    {
      "inputs": [
        {
          "internalType": "bytes[]",
          "name": "data",
          "type": "bytes[]"
        }
      ],
      "name": "multicall",
      "outputs": [
        {
          "internalType": "bytes[]",
          "name": "results",
          "type": "bytes[]"
        }
      ],
      "stateMutability": "payable",
      "type": "function"
    },
    {
      "inputs": [],
      "name": "name",
      "outputs": [
        {
          "internalType": "string",
          "name": "",
          "type": "string"
        }
      ],
      "stateMutability": "view",
      "type": "function"
    },
    {
      "inputs": [
        {
          "internalType": "uint256",
          "name": "",
          "type": "uint256"
        }
      ],
      "name": "nonces",
      "outputs": [
        {
          "internalType": "uint256",
          "name": "",
          "type": "uint256"
        }
      ],
      "stateMutability": "view",
      "type": "function"
    },
    {
      "inputs": [
        {
          "internalType": "uint256",
          "name": "tokenId",
          "type": "uint256"
        }
      ],
      "name": "ownerOf",
      "outputs": [
        {
          "internalType": "address",
          "name": "",
          "type": "address"
        }
      ],
      "stateMutability": "view",
      "type": "function"
    },
    {
      "inputs": [
        {
          "internalType": "bytes32",
          "name": "",
          "type": "bytes32"
        }
      ],
      "name": "pairIdsByPoolId",
      "outputs": [
        {
          "internalType": "uint40",
          "name": "",
          "type": "uint40"
        }
      ],
      "stateMutability": "view",
      "type": "function"
    },
    {
      "inputs": [
        {
          "internalType": "uint40",
          "name": "",
          "type": "uint40"
        }
      ],
      "name": "pairs",
      "outputs": [
        {
          "internalType": "address",
          "name": "token0",
          "type": "address"
        },
        {
          "internalType": "address",
          "name": "token1",
          "type": "address"
        }
      ],
      "stateMutability": "view",
      "type": "function"
    },
    {
      "inputs": [
        {
          "internalType": "address",
          "name": "spender",
          "type": "address"
        },
        {
          "internalType": "uint256",
          "name": "tokenId",
          "type": "uint256"
        },
        {
          "internalType": "uint256",
          "name": "deadline",
          "type": "uint256"
        },
        {
          "internalType": "uint8",
          "name": "v",
          "type": "uint8"
        },
        {
          "internalType": "bytes32",
          "name": "r",
          "type": "bytes32"
        },
        {
          "internalType": "bytes32",
          "name": "s",
          "type": "bytes32"
        }
      ],
      "name": "permit",
      "outputs": [],
      "stateMutability": "payable",
      "type": "function"
    },
    {
      "inputs": [
        {
          "internalType": "uint256",
          "name": "",
          "type": "uint256"
        }
      ],
      "name": "positionsByTokenId",
      "outputs": [
        {
          "internalType": "address",
          "name": "owner",
          "type": "address"
        },
        {
          "internalType": "uint40",
          "name": "pairId",
          "type": "uint40"
        },
        {
          "internalType": "uint8",
          "name": "tierId",
          "type": "uint8"
        },
        {
          "internalType": "int24",
          "name": "tickLower",
          "type": "int24"
        },
        {
          "internalType": "int24",
          "name": "tickUpper",
          "type": "int24"
        }
      ],
      "stateMutability": "view",
      "type": "function"
    },
    {
      "inputs": [],
      "name": "refundETH",
      "outputs": [],
      "stateMutability": "payable",
      "type": "function"
    },
    {
      "inputs": [
        {
          "components": [
            {
              "internalType": "uint256",
              "name": "tokenId",
              "type": "uint256"
            },
            {
              "internalType": "uint96",
              "name": "liquidityD8",
              "type": "uint96"
            },
            {
              "internalType": "uint256",
              "name": "amount0Min",
              "type": "uint256"
            },
            {
              "internalType": "uint256",
              "name": "amount1Min",
              "type": "uint256"
            },
            {
              "internalType": "address",
              "name": "withdrawTo",
              "type": "address"
            },
            {
              "internalType": "bool",
              "name": "collectAllFees",
              "type": "bool"
            },
            {
              "internalType": "bool",
              "name": "settled",
              "type": "bool"
            }
          ],
          "internalType": "struct PositionManager.RemoveLiquidityParams",
          "name": "params",
          "type": "tuple"
        }
      ],
      "name": "removeLiquidity",
      "outputs": [
        {
          "internalType": "uint256",
          "name": "amount0",
          "type": "uint256"
        },
        {
          "internalType": "uint256",
          "name": "amount1",
          "type": "uint256"
        },
        {
          "internalType": "uint256",
          "name": "feeAmount0",
          "type": "uint256"
        },
        {
          "internalType": "uint256",
          "name": "feeAmount1",
          "type": "uint256"
        }
      ],
      "stateMutability": "payable",
      "type": "function"
    },
    {
      "inputs": [
        {
          "internalType": "address",
          "name": "from",
          "type": "address"
        },
        {
          "internalType": "address",
          "name": "to",
          "type": "address"
        },
        {
          "internalType": "uint256",
          "name": "tokenId",
          "type": "uint256"
        }
      ],
      "name": "safeTransferFrom",
      "outputs": [],
      "stateMutability": "nonpayable",
      "type": "function"
    },
    {
      "inputs": [
        {
          "internalType": "address",
          "name": "from",
          "type": "address"
        },
        {
          "internalType": "address",
          "name": "to",
          "type": "address"
        },
        {
          "internalType": "uint256",
          "name": "tokenId",
          "type": "uint256"
        },
        {
          "internalType": "bytes",
          "name": "_data",
          "type": "bytes"
        }
      ],
      "name": "safeTransferFrom",
      "outputs": [],
      "stateMutability": "nonpayable",
      "type": "function"
    },
    {
      "inputs": [
        {
          "internalType": "address",
          "name": "token",
          "type": "address"
        },
        {
          "internalType": "uint256",
          "name": "value",
          "type": "uint256"
        },
        {
          "internalType": "uint256",
          "name": "deadline",
          "type": "uint256"
        },
        {
          "internalType": "uint8",
          "name": "v",
          "type": "uint8"
        },
        {
          "internalType": "bytes32",
          "name": "r",
          "type": "bytes32"
        },
        {
          "internalType": "bytes32",
          "name": "s",
          "type": "bytes32"
        }
      ],
      "name": "selfPermit",
      "outputs": [],
      "stateMutability": "payable",
      "type": "function"
    },
    {
      "inputs": [
        {
          "internalType": "address",
          "name": "token",
          "type": "address"
        },
        {
          "internalType": "uint256",
          "name": "nonce",
          "type": "uint256"
        },
        {
          "internalType": "uint256",
          "name": "expiry",
          "type": "uint256"
        },
        {
          "internalType": "uint8",
          "name": "v",
          "type": "uint8"
        },
        {
          "internalType": "bytes32",
          "name": "r",
          "type": "bytes32"
        },
        {
          "internalType": "bytes32",
          "name": "s",
          "type": "bytes32"
        }
      ],
      "name": "selfPermitAllowed",
      "outputs": [],
      "stateMutability": "payable",
      "type": "function"
    },
    {
      "inputs": [
        {
          "internalType": "address",
          "name": "operator",
          "type": "address"
        },
        {
          "internalType": "bool",
          "name": "approved",
          "type": "bool"
        }
      ],
      "name": "setApprovalForAll",
      "outputs": [],
      "stateMutability": "nonpayable",
      "type": "function"
    },
    {
      "inputs": [
        {
          "internalType": "uint256",
          "name": "tokenId",
          "type": "uint256"
        },
        {
          "internalType": "uint8",
          "name": "limitOrderType",
          "type": "uint8"
        }
      ],
      "name": "setLimitOrderType",
      "outputs": [],
      "stateMutability": "nonpayable",
      "type": "function"
    },
    {
      "inputs": [
        {
          "internalType": "address",
          "name": "descriptor",
          "type": "address"
        }
      ],
      "name": "setTokenDescriptor",
      "outputs": [],
      "stateMutability": "nonpayable",
      "type": "function"
    },
    {
      "inputs": [
        {
          "internalType": "address",
          "name": "setter",
          "type": "address"
        }
      ],
      "name": "setTokenDescriptorSetter",
      "outputs": [],
      "stateMutability": "nonpayable",
      "type": "function"
    },
    {
      "inputs": [
        {
          "internalType": "bytes4",
          "name": "interfaceId",
          "type": "bytes4"
        }
      ],
      "name": "supportsInterface",
      "outputs": [
        {
          "internalType": "bool",
          "name": "",
          "type": "bool"
        }
      ],
      "stateMutability": "view",
      "type": "function"
    },
    {
      "inputs": [
        {
          "internalType": "address",
          "name": "tokenIn",
          "type": "address"
        },
        {
          "internalType": "address",
          "name": "tokenOut",
          "type": "address"
        },
        {
          "internalType": "uint256",
          "name": "amountIn",
          "type": "uint256"
        },
        {
          "internalType": "uint256",
          "name": "amountOut",
          "type": "uint256"
        },
        {
          "internalType": "bytes",
          "name": "data",
          "type": "bytes"
        }
      ],
      "name": "swapCallback",
      "outputs": [],
      "stateMutability": "nonpayable",
      "type": "function"
    },
    {
      "inputs": [],
      "name": "symbol",
      "outputs": [
        {
          "internalType": "string",
          "name": "",
          "type": "string"
        }
      ],
      "stateMutability": "view",
      "type": "function"
    },
    {
      "inputs": [],
      "name": "tokenDescriptor",
      "outputs": [
        {
          "internalType": "address",
          "name": "",
          "type": "address"
        }
      ],
      "stateMutability": "view",
      "type": "function"
    },
    {
      "inputs": [],
      "name": "tokenDescriptorSetter",
      "outputs": [
        {
          "internalType": "address",
          "name": "",
          "type": "address"
        }
      ],
      "stateMutability": "view",
      "type": "function"
    },
    {
      "inputs": [
        {
          "internalType": "uint256",
          "name": "tokenId",
          "type": "uint256"
        }
      ],
      "name": "tokenURI",
      "outputs": [
        {
          "internalType": "string",
          "name": "",
          "type": "string"
        }
      ],
      "stateMutability": "view",
      "type": "function"
    },
    {
      "inputs": [],
      "name": "totalSupply",
      "outputs": [
        {
          "internalType": "uint256",
          "name": "",
          "type": "uint256"
        }
      ],
      "stateMutability": "view",
      "type": "function"
    },
    {
      "inputs": [
        {
          "internalType": "address",
          "name": "from",
          "type": "address"
        },
        {
          "internalType": "address",
          "name": "to",
          "type": "address"
        },
        {
          "internalType": "uint256",
          "name": "tokenId",
          "type": "uint256"
        }
      ],
      "name": "transferFrom",
      "outputs": [],
      "stateMutability": "nonpayable",
      "type": "function"
    },
    {
      "inputs": [
        {
          "internalType": "uint256",
          "name": "amountMinimum",
          "type": "uint256"
        },
        {
          "internalType": "address",
          "name": "recipient",
          "type": "address"
        }
      ],
      "name": "unwrapWETH",
      "outputs": [],
      "stateMutability": "payable",
      "type": "function"
    },
    {
      "inputs": [
        {
          "internalType": "address",
          "name": "recipient",
          "type": "address"
        },
        {
          "internalType": "address",
          "name": "token",
          "type": "address"
        },
        {
          "internalType": "uint256",
          "name": "amount",
          "type": "uint256"
        }
      ],
      "name": "withdraw",
      "outputs": [],
      "stateMutability": "payable",
      "type": "function"
    },
    {
      "stateMutability": "payable",
      "type": "receive"
    }
  ],
  "bytecode": "0x60e0604052600a805464ffffffffff191660011790553480156200002257600080fd5b50604051620062bf380380620062bf8339810160408190526200004591620001a9565b60408051808201825260118152702232b634b9bbb0b8102837b9b4ba34b7b760791b60208083019182528351808501909452600884526744454c492d504f5360c01b908401526001600160a01b0380861660a0528416608052815191929183918391620000b591600091620000e6565b508051620000cb906001906020840190620000e6565b5050825160209093019290922060c052506200021e92505050565b828054620000f490620001e1565b90600052602060002090601f01602090048101928262000118576000855562000163565b82601f106200013357805160ff191683800117855562000163565b8280016001018555821562000163579182015b828111156200016357825182559160200191906001019062000146565b506200017192915062000175565b5090565b5b8082111562000171576000815560010162000176565b80516001600160a01b0381168114620001a457600080fd5b919050565b60008060408385031215620001bd57600080fd5b620001c8836200018c565b9150620001d8602084016200018c565b90509250929050565b600181811c90821680620001f657607f821691505b602082108114156200021857634e487b7160e01b600052602260045260246000fd5b50919050565b60805160a05160c051615fa6620003196000396000818161055701526120190152600081816105e201528181611068015281816112340152818161137e0152818161148301528181611659015281816118710152818161191e01528181611ad801528181611be301528181611de40152818161268d01528181612ad101528181612ce301528181612ffa015281816132a2015281816133540152818161365d01528181613db101528181613e6801528181613e9401528181613f9601526140a201526000818161033201528181610689015281816133b4015281816134ae01528181613ccc01528181613d120152613de00152615fa66000f3fe6080604052600436106103225760003560e01c80636f27836a116101a5578063b88d4fde116100ec578063d9899ff011610095578063e985e9c51161006f578063e985e9c514610aa5578063eb02c30114610aee578063f0db800c14610bb4578063f3995c6714610c1557600080fd5b8063d9899ff014610a5f578063d9caed1214610a7f578063e16d9ce514610a9257600080fd5b8063c87b56dd116100c6578063c87b56dd146109ef578063ce3fa4dd14610a0f578063ceadecf114610a4c57600080fd5b8063b88d4fde146108c5578063bb01881a146108e5578063c2814b0c1461090557600080fd5b806395d89b411161014e578063ae4bf64b11610128578063ae4bf64b14610872578063b6dc7ea314610892578063b80f55c9146108b257600080fd5b806395d89b411461081d578063a22cb46514610832578063ac9650d81461085257600080fd5b80637ac2ff7b1161017f5780637ac2ff7b146107b75780637c2d10fd146107ca5780638340f5491461080a57600080fd5b80636f27836a1461077157806370a082311461078457806374278a52146107a457600080fd5b8063365a86fc116102695780634f594557116102125780635a9d7a68116101ec5780635a9d7a681461071e5780635dd582041461073e5780636352211e1461075157600080fd5b80634f594557146106ab57806351149742146106cb5780635325261c146106eb57600080fd5b806345fc75ad1161024357806345fc75ad146106445780634659a494146106645780634aa4a4fc1461067757600080fd5b8063365a86fc146105d05780633b0812141461060457806342842e0e1461062457600080fd5b806318160ddd116102cb5780632f8bc1ec116102a55780632f8bc1ec1461049d57806330adf81f146104e75780633644e5151461051b57600080fd5b806318160ddd1461045557806323b872dd1461046a57806325b234891461048a57600080fd5b8063095ea7b3116102fc578063095ea7b3146103f257806312210e8a14610412578063141a468c1461041a57600080fd5b806301ffc9a71461036357806306fdde0314610398578063081812fc146103ba57600080fd5b3661035e57336001600160a01b037f0000000000000000000000000000000000000000000000000000000000000000161461035c57600080fd5b005b600080fd5b34801561036f57600080fd5b5061038361037e366004614eb9565b610c28565b60405190151581526020015b60405180910390f35b3480156103a457600080fd5b506103ad610d0d565b60405161038f9190614f2e565b3480156103c657600080fd5b506103da6103d5366004614f41565b610d9f565b6040516001600160a01b03909116815260200161038f565b3480156103fe57600080fd5b5061035c61040d366004614f6f565b610e4a565b61035c610f7c565b34801561042657600080fd5b50610447610435366004614f41565b60076020526000908152604090205481565b60405190815260200161038f565b34801561046157600080fd5b50610447610f8e565b34801561047657600080fd5b5061035c610485366004614f9b565b610fdd565b610447610498366004615033565b611064565b3480156104a957600080fd5b506104d16104b8366004614f41565b600c6020526000908152604090205464ffffffffff1681565b60405164ffffffffff909116815260200161038f565b3480156104f357600080fd5b506104477f49ecf333e5b8c95c40fdafc95c1ad136e8914a8fb55e9dc8bb01eaa83a2df9ad81565b34801561052757600080fd5b50610447604080517f8b73c3c69bb8fe3d512ecc4cf759cc79239f7b179b0ffacaa9a75d522b39400f60208201527f0000000000000000000000000000000000000000000000000000000000000000918101919091527fc89efdaa54c0f20c7adf612882df0950f5a951637e0307cdcb4c672f298b8bc660608201524660808201523060a082015260009060c00160405160208183030381529060405280519060200120905090565b3480156105dc57600080fd5b506103da7f000000000000000000000000000000000000000000000000000000000000000081565b34801561061057600080fd5b5061035c61061f3660046150f2565b611230565b34801561063057600080fd5b5061035c61063f366004614f9b565b61145d565b34801561065057600080fd5b5061035c61065f36600461514e565b611478565b61035c6106723660046151d9565b6114c9565b34801561068357600080fd5b506103da7f000000000000000000000000000000000000000000000000000000000000000081565b3480156106b757600080fd5b5061035c6106c6366004615235565b611608565b3480156106d757600080fd5b5061035c6106e636600461514e565b61164e565b6106fe6106f9366004615252565b6116b5565b60408051948552602085019390935291830152606082015260800161038f565b34801561072a57600080fd5b506005546103da906001600160a01b031681565b61035c61074c36600461526a565b611a93565b34801561075d57600080fd5b506103da61076c366004614f41565b611b54565b61044761077f3660046152b2565b611bdf565b34801561079057600080fd5b5061044761079f366004615235565b611d46565b6104476107b2366004615033565b611de0565b61035c6107c53660046151d9565b611f98565b6107dd6107d8366004615340565b6123fc565b604080519485526bffffffffffffffffffffffff909316602085015291830152606082015260800161038f565b61035c610818366004614f9b565b61268b565b34801561082957600080fd5b506103ad612737565b34801561083e57600080fd5b5061035c61084d366004615353565b612746565b6108656108603660046153d1565b612829565b60405161038f9190615413565b34801561087e57600080fd5b506006546103da906001600160a01b031681565b34801561089e57600080fd5b5061035c6108ad366004615235565b612976565b61035c6108c03660046153d1565b6129bc565b3480156108d157600080fd5b5061035c6108e0366004615502565b612c4a565b3480156108f157600080fd5b5061035c6109003660046155b1565b612cd8565b34801561091157600080fd5b506109ab610920366004614f41565b6009602052600090815260409020546001600160a01b0381169064ffffffffff740100000000000000000000000000000000000000008204169060ff790100000000000000000000000000000000000000000000000000820416907a0100000000000000000000000000000000000000000000000000008104600290810b91600160e81b9004900b85565b604080516001600160a01b03909616865264ffffffffff909416602086015260ff90921692840192909252600291820b6060840152900b608082015260a00161038f565b3480156109fb57600080fd5b506103ad610a0a366004614f41565b612d29565b610a22610a1d36600461560d565b612e45565b604080516bffffffffffffffffffffffff909416845260208401929092529082015260600161038f565b610447610a5a3660046152b2565b612ff6565b348015610a6b57600080fd5b5061035c610a7a36600461561f565b61315a565b61035c610a8d366004614f9b565b613307565b61035c610aa0366004615644565b613383565b348015610ab157600080fd5b50610383610ac0366004615669565b6001600160a01b03918216600090815260046020908152604080832093909416825291909152205460ff1690565b348015610afa57600080fd5b50610b0e610b09366004614f41565b61351c565b604080516001600160a01b039889168152968816602080890191909152979095168686015260ff938416606080880191909152600293840b6080808901919091529290930b60a087015280516bffffffffffffffffffffffff1660c08701529586015169ffffffffffffffffffff90811660e087015293860151909316610100850152840151166101208301529091015163ffffffff166101408201526101600161038f565b348015610bc057600080fd5b50610bf5610bcf366004615697565b600b60205260009081526040902080546001909101546001600160a01b03918216911682565b604080516001600160a01b0393841681529290911660208301520161038f565b61035c610c233660046151d9565b613749565b60007fffffffff0000000000000000000000000000000000000000000000000000000082167f80ac58cd000000000000000000000000000000000000000000000000000000001480610cbb57507fffffffff0000000000000000000000000000000000000000000000000000000082167f5b5e139f00000000000000000000000000000000000000000000000000000000145b80610d0757507f01ffc9a7000000000000000000000000000000000000000000000000000000007fffffffff000000000000000000000000000000000000000000000000000000008316145b92915050565b606060008054610d1c906156be565b80601f0160208091040260200160405190810160405280929190818152602001828054610d48906156be565b8015610d955780601f10610d6a57610100808354040283529160200191610d95565b820191906000526020600020905b815481529060010190602001808311610d7857829003601f168201915b5050505050905090565b6000818152600960205260408120546001600160a01b0316610e2e5760405162461bcd60e51b815260206004820152602c60248201527f4552433732313a20617070726f76656420717565727920666f72206e6f6e657860448201527f697374656e7420746f6b656e000000000000000000000000000000000000000060648201526084015b60405180910390fd5b506000908152600360205260409020546001600160a01b031690565b6000610e5582611b54565b9050806001600160a01b0316836001600160a01b03161415610edf5760405162461bcd60e51b815260206004820152602160248201527f4552433732313a20617070726f76616c20746f2063757272656e74206f776e6560448201527f72000000000000000000000000000000000000000000000000000000000000006064820152608401610e25565b336001600160a01b0382161480610efb5750610efb8133610ac0565b610f6d5760405162461bcd60e51b815260206004820152603860248201527f4552433732313a20617070726f76652063616c6c6572206973206e6f74206f7760448201527f6e6572206e6f7220617070726f76656420666f7220616c6c00000000000000006064820152608401610e25565b610f77838361379a565b505050565b4715610f8c57610f8c3347613815565b565b600854600090610fc6906fffffffffffffffffffffffffffffffff700100000000000000000000000000000000820481169116615709565b6fffffffffffffffffffffffffffffffff16905090565b610fe7338261385a565b6110595760405162461bcd60e51b815260206004820152603160248201527f4552433732313a207472616e736665722063616c6c6572206973206e6f74206f60448201527f776e6572206e6f7220617070726f7665640000000000000000000000000000006064820152608401610e25565b610f77838383613962565b60007f00000000000000000000000000000000000000000000000000000000000000006001600160a01b031663c6883ec56040518060c001604052808b8b8080601f0160208091040260200160405190810160405280939291908181526020018383808284376000920191909152505050908252506020016110e58a613b58565b6110ee9061573a565b8152602001856110fe5787611100565b305b6001600160a01b031681526020018561111a576000611125565b6001600160a01b0388165b815260200186611136576000611138565b335b815260200186611161576040805133602082015201604051602081830303815290604052611171565b6040805160008152602081019091525b8152506040518263ffffffff1660e01b81526004016111909190615773565b60408051808303816000875af11580156111ae573d6000803e3d6000fd5b505050506040513d601f19601f820116820180604052508101906111d291906157e6565b509050848111156112255760405162461bcd60e51b815260206004820152601260248201527f544f4f5f4d5543485f52455155455354454400000000000000000000000000006044820152606401610e25565b979650505050505050565b60007f00000000000000000000000000000000000000000000000000000000000000006001600160a01b031663aa5976c186866040516020016112899291906001600160a01b0392831681529116602082015260400190565b604051602081830303815290604052805190602001206040518263ffffffff1660e01b81526004016112bd91815260200190565b6040805180830381865afa1580156112d9573d6000803e3d6000fd5b505050506040513d601f19601f820116820180604052508101906112fd919061580a565b50905060ff811661144b5761133a33866108186a64000000000000000000006fffffffffffffffffffffffffffffffff8716808204910615150190565b611374338561081861135f6fffffffffffffffffffffffffffffffff87166064615839565b68010000000000000000808204910615150190565b6001600160a01b037f00000000000000000000000000000000000000000000000000000000000000001663775dfc8286868686336040517fffffffff0000000000000000000000000000000000000000000000000000000060e088901b1681526001600160a01b03958616600482015294909316602485015262ffffff90911660448401526fffffffffffffffffffffffffffffffff166064830152608482015260a401600060405180830381600087803b15801561143257600080fd5b505af1158015611446573d6000803e3d6000fd5b505050505b6114558585613b8e565b505050505050565b610f7783838360405180602001604052806000815250612c4a565b336001600160a01b037f000000000000000000000000000000000000000000000000000000000000000016146114ad57600080fd5b831561145557611455866114c383850185615235565b86613cca565b6040513360248201523060448201526064810186905260848101859052600160a482015260ff841660c482015260e4810183905261010481018290526000906001600160a01b03881690638fcbaf0c90610124015b6040516020818303038152906040529060e01b6020820180517bffffffffffffffffffffffffffffffffffffffffffffffffffffffff838183161783525050505060405161156c9190615858565b6000604051808303816000865af19150503d80600081146115a9576040519150601f19603f3d011682016040523d82523d6000602084013e6115ae565b606091505b50509050806115ff5760405162461bcd60e51b815260206004820152600d60248201527f5045524d49545f4641494c4544000000000000000000000000000000000000006044820152606401610e25565b50505050505050565b6006546001600160a01b0316331461161f57600080fd5b6006805473ffffffffffffffffffffffffffffffffffffffff19166001600160a01b0392909216919091179055565b336001600160a01b037f0000000000000000000000000000000000000000000000000000000000000000161461168357600080fd5b600061169182840184615235565b905084156116a4576116a4878287613cca565b83156115ff576115ff868286613cca565b600080808084356116c581613eb9565b85356000908152600960209081526040808320815160a0808201845291546001600160a01b03808216835264ffffffffff7401000000000000000000000000000000000000000083041683870181905260ff790100000000000000000000000000000000000000000000000000840481168588019081527a0100000000000000000000000000000000000000000000000000008504600290810b6060808901918252600160e81b909704820b6080808a01918252958d52600b8c528a8d208b51808d018d52815489168152600191909101548816818e019081528c5161012081018e5282518a1681529051909816888e01529351909416868b015251810b95850195909552905190930b9082015291959094909391928301916117ed91908d01908d0161588e565b6bffffffffffffffffffffffff1681528a35602082015284516001600160a01b0316604082015260600161182760c08c0160a08d016158ab565b15159052905061183d60e08a0160c08b016158ab565b6118ee576040517fdec980ec0000000000000000000000000000000000000000000000000000000081526001600160a01b037f0000000000000000000000000000000000000000000000000000000000000000169063dec980ec906118a69084906004016158c8565b6080604051808303816000875af11580156118c5573d6000803e3d6000fd5b505050506040513d601f19601f820116820180604052508101906118e9919061597b565b611996565b6040517fadcef3680000000000000000000000000000000000000000000000000000000081526001600160a01b037f0000000000000000000000000000000000000000000000000000000000000000169063adcef368906119539084906004016158c8565b6080604051808303816000875af1158015611972573d6000803e3d6000fd5b505050506040513d601f19601f82011682018060405250810190611996919061597b565b929a5090985096509450604089013588108015906119b8575088606001358710155b611a045760405162461bcd60e51b815260206004820152600e60248201527f507269636520736c6970706167650000000000000000000000000000000000006044820152606401610e25565b6000611a1660a08b0160808c01615235565b6001600160a01b031614611a88576000611a30878a6159b1565b90506000611a3e878a6159b1565b90508115611a6157611a61611a5960a08d0160808e01615235565b855184613307565b8015611a8557611a85611a7a60a08d0160808e01615235565b856020015183613307565b50505b505050509193509193565b604080513360208083019190915282518083039091018152818301928390527faaa9acd2000000000000000000000000000000000000000000000000000000009092527f00000000000000000000000000000000000000000000000000000000000000006001600160a01b03169163aaa9acd291611b1c918891889188918891906044016159c9565b600060405180830381600087803b158015611b3657600080fd5b505af1158015611b4a573d6000803e3d6000fd5b5050505050505050565b6000818152600960205260408120546001600160a01b031680610d075760405162461bcd60e51b815260206004820152602960248201527f4552433732313a206f776e657220717565727920666f72206e6f6e657869737460448201527f656e7420746f6b656e00000000000000000000000000000000000000000000006064820152608401610e25565b60007f00000000000000000000000000000000000000000000000000000000000000006001600160a01b0316632ec31fbc8a8a8a611c1c8b613b58565b87611c275789611c29565b305b88611c35576000611c40565b6001600160a01b038b165b8a611c4c576000611c4e565b335b8b611c72576040805133602082015201604051602081830303815290604052611c82565b6040805160008152602081019091525b6040518963ffffffff1660e01b8152600401611ca5989796959493929190615a01565b60408051808303816000875af1158015611cc3573d6000803e3d6000fd5b505050506040513d601f19601f82011682018060405250810190611ce791906157e6565b91505084811015611d3a5760405162461bcd60e51b815260206004820152601360248201527f544f4f5f4c4954544c455f5245434549564544000000000000000000000000006044820152606401610e25565b98975050505050505050565b60006001600160a01b038216611dc45760405162461bcd60e51b815260206004820152602a60248201527f4552433732313a2062616c616e636520717565727920666f7220746865207a6560448201527f726f2061646472657373000000000000000000000000000000000000000000006064820152608401610e25565b506001600160a01b031660009081526002602052604090205490565b60007f00000000000000000000000000000000000000000000000000000000000000006001600160a01b031663c6883ec56040518060c001604052808b8b8080601f016020809104026020016040519081016040528093929190818152602001838380828437600092019190915250505090825250602001611e618a613b58565b815260200185611e715787611e73565b305b6001600160a01b0316815260200185611e8d576000611e98565b6001600160a01b0388165b815260200186611ea9576000611eab565b335b815260200186611ed4576040805133602082015201604051602081830303815290604052611ee4565b6040805160008152602081019091525b8152506040518263ffffffff1660e01b8152600401611f039190615773565b60408051808303816000875af1158015611f21573d6000803e3d6000fd5b505050506040513d601f19601f82011682018060405250810190611f4591906157e6565b915050848110156112255760405162461bcd60e51b815260206004820152601360248201527f544f4f5f4c4954544c455f5245434549564544000000000000000000000000006044820152606401610e25565b42841015611fe85760405162461bcd60e51b815260206004820152600e60248201527f5065726d697420457870697265640000000000000000000000000000000000006044820152606401610e25565b6000612092604080517f8b73c3c69bb8fe3d512ecc4cf759cc79239f7b179b0ffacaa9a75d522b39400f60208201527f0000000000000000000000000000000000000000000000000000000000000000918101919091527fc89efdaa54c0f20c7adf612882df0950f5a951637e0307cdcb4c672f298b8bc660608201524660808201523060a082015260009060c00160405160208183030381529060405280519060200120905090565b600087815260076020526040812080547f49ecf333e5b8c95c40fdafc95c1ad136e8914a8fb55e9dc8bb01eaa83a2df9ad928b928b92916120d283615a5d565b909155506040805160208101959095526001600160a01b03909316928401929092526060830152608082015260a0810187905260c001604051602081830303815290604052805190602001206040516020016121609291907f190100000000000000000000000000000000000000000000000000000000000081526002810192909252602282015260420190565b604051602081830303815290604052805190602001209050600061218387611b54565b9050803b156122d857604080516020810186905280820185905260f887901b7fff000000000000000000000000000000000000000000000000000000000000001660608201528151604181830301815260618201928390527f1626ba7e000000000000000000000000000000000000000000000000000000009092526001600160a01b03831691631626ba7e9161221e918691606501615a78565b602060405180830381865afa15801561223b573d6000803e3d6000fd5b505050506040513d601f19601f8201168201806040525081019061225f9190615a91565b7bffffffffffffffffffffffffffffffffffffffffffffffffffffffff1916631626ba7e60e01b146122d35760405162461bcd60e51b815260206004820152600c60248201527f556e617574686f72697a656400000000000000000000000000000000000000006044820152606401610e25565b6123f2565b6040805160008082526020820180845285905260ff881692820192909252606081018690526080810185905260019060a0016020604051602081039080840390855afa15801561232c573d6000803e3d6000fd5b5050604051601f1901519150506001600160a01b03811661238f5760405162461bcd60e51b815260206004820152601160248201527f496e76616c6964207369676e61747572650000000000000000000000000000006044820152606401610e25565b816001600160a01b0316816001600160a01b0316146123f05760405162461bcd60e51b815260206004820152600c60248201527f556e617574686f72697a656400000000000000000000000000000000000000006044820152606401610e25565b505b611b4a888861379a565b600080808061241b61241661014087016101208801615235565b613f46565b935060006040518060a001604052808761012001602081019061243e9190615235565b6001600160a01b031681526020908101906124749061245f908a018a615235565b61246f60408b0160208c01615235565b613b8e565b64ffffffffff1681526020016124906060890160408a01615aae565b60ff1681526020016124a86080890160608a01615ada565b60020b81526020016124c060a0890160808a01615ada565b60020b9052600086815260096020908152604091829020835181548584015186860151606088015160808901516001600160a01b039095167fffffffffffffff00000000000000000000000000000000000000000000000000909416939093177401000000000000000000000000000000000000000064ffffffffff90931692909202919091177fffffff00000000ffffffffffffffffffffffffffffffffffffffffffffffffff1679010000000000000000000000000000000000000000000000000060ff909216919091027fffffff000000ffffffffffffffffffffffffffffffffffffffffffffffffffff16177a01000000000000000000000000000000000000000000000000000062ffffff92831602177cffffffffffffffffffffffffffffffffffffffffffffffffffffffffff16600160e81b9190921602179055815180830190925291925061267d918391908190612621908b018b615235565b6001600160a01b031681526020018960200160208101906126429190615235565b6001600160a01b0316815250878960a001358a60c001358b60e001358c61010001358d61014001602081019061267891906158ab565b613f8c565b969891975095945092505050565b7f00000000000000000000000000000000000000000000000000000000000000006001600160a01b031663aaa9acd2306126cb866001600160a01b031690565b6040805133602082015287918791016040516020818303038152906040526040518663ffffffff1660e01b81526004016127099594939291906159c9565b600060405180830381600087803b15801561272357600080fd5b505af11580156115ff573d6000803e3d6000fd5b606060018054610d1c906156be565b6001600160a01b03821633141561279f5760405162461bcd60e51b815260206004820152601960248201527f4552433732313a20617070726f766520746f2063616c6c6572000000000000006044820152606401610e25565b3360008181526004602090815260408083206001600160a01b0387168085529083529281902080547fffffffffffffffffffffffffffffffffffffffffffffffffffffffffffffff001686151590811790915590519081529192917f17307eab39ab6107e8899845ad3d59bd9653f200f220920489ca2b5937696c31910160405180910390a35050565b60608167ffffffffffffffff81111561284457612844615493565b60405190808252806020026020018201604052801561287757816020015b60608152602001906001900390816128625790505b50905060005b8281101561296f576000803086868581811061289b5761289b615af7565b90506020028101906128ad9190615b0d565b6040516128bb929190615b72565b600060405180830381855af49150503d80600081146128f6576040519150601f19603f3d011682016040523d82523d6000602084013e6128fb565b606091505b5091509150816129475760448151101561291457600080fd5b6004810190508080602001905181019061292e9190615b82565b60405162461bcd60e51b8152600401610e259190614f2e565b8084848151811061295a5761295a615af7565b6020908102919091010152505060010161287d565b5092915050565b6006546001600160a01b0316331461298d57600080fd5b6005805473ffffffffffffffffffffffffffffffffffffffff19166001600160a01b0392909216919091179055565b60005b81811015610f775760008383838181106129db576129db615af7565b9050602002013590506129ed81613eb9565b6000818152600960209081526040808320815160a08101835290546001600160a01b03808216835274010000000000000000000000000000000000000000820464ffffffffff16838601819052790100000000000000000000000000000000000000000000000000830460ff16848601527a0100000000000000000000000000000000000000000000000000008304600290810b606080870191909152600160e81b909404900b60808501528652600b85528386208451808601865281548316808252600190920154831681880181905286519788019290925294860152919492937f00000000000000000000000000000000000000000000000000000000000000009092169163c625e3c3910160408051601f19818403018152828252805160209091012090870151606088015160808901517fffffffff0000000000000000000000000000000000000000000000000000000060e087901b1685526004850193909352306024850152604484018a905260ff9091166064840152600290810b60848401520b60a482015260c40160a060405180830381865afa158015612b99573d6000803e3d6000fd5b505050506040513d601f19601f82011682018060405250810190612bbd9190615c0a565b80519091506bffffffffffffffffffffffff1615612c1d5760405162461bcd60e51b815260206004820152600960248201527f4e4f545f454d50545900000000000000000000000000000000000000000000006044820152606401610e25565b612c2684614268565b50505060009081526009602052604081205580612c4281615a5d565b9150506129bf565b612c54338361385a565b612cc65760405162461bcd60e51b815260206004820152603160248201527f4552433732313a207472616e736665722063616c6c6572206973206e6f74206f60448201527f776e6572206e6f7220617070726f7665640000000000000000000000000000006064820152608401610e25565b612cd28484848461431c565b50505050565b336001600160a01b037f00000000000000000000000000000000000000000000000000000000000000001614612d0d57600080fd5b8215612cd257612cd284612d2383850185615235565b85613cca565b6000818152600960205260409020546060906001600160a01b0316612d905760405162461bcd60e51b815260206004820152600f60248201527f746f6b656e206e6f7420657869737400000000000000000000000000000000006044820152606401610e25565b6005546001600160a01b0316612db55760405180602001604052806000815250610d07565b6005546040517fe9dc6375000000000000000000000000000000000000000000000000000000008152306004820152602481018490526001600160a01b039091169063e9dc637590604401600060405180830381865afa158015612e1d573d6000803e3d6000fd5b505050506040513d6000823e601f3d908101601f19168201604052610d079190810190615b82565b600080808335612e5481613eb9565b600060096000876000013581526020019081526020016000206040518060a00160405290816000820160009054906101000a90046001600160a01b03166001600160a01b03166001600160a01b031681526020016000820160149054906101000a900464ffffffffff1664ffffffffff1664ffffffffff1681526020016000820160199054906101000a900460ff1660ff1660ff16815260200160008201601a9054906101000a900460020b60020b60020b815260200160008201601d9054906101000a900460020b60020b60020b815250509050612fe781600b6000846020015164ffffffffff1664ffffffffff1681526020019081526020016000206040518060400160405290816000820160009054906101000a90046001600160a01b03166001600160a01b03166001600160a01b031681526020016001820160009054906101000a90046001600160a01b03166001600160a01b03166001600160a01b031681525050886000013589602001358a604001358b606001358c608001358d60a001602081019061267891906158ab565b91989097509095509350505050565b60007f00000000000000000000000000000000000000000000000000000000000000006001600160a01b0316632ec31fbc8a8a8a6130338b613b58565b61303c9061573a565b876130475789613049565b305b88613055576000613060565b6001600160a01b038b165b8a61306c57600061306e565b335b8b6130925760408051336020820152016040516020818303038152906040526130a2565b6040805160008152602081019091525b6040518963ffffffff1660e01b81526004016130c5989796959493929190615a01565b60408051808303816000875af11580156130e3573d6000803e3d6000fd5b505050506040513d601f19601f8201168201806040525081019061310791906157e6565b50905084811115611d3a5760405162461bcd60e51b815260206004820152601260248201527f544f4f5f4d5543485f52455155455354454400000000000000000000000000006044820152606401610e25565b8161316481613eb9565b6000838152600960209081526040808320815160a08101835290546001600160a01b03808216835264ffffffffff7401000000000000000000000000000000000000000083041683860181905260ff790100000000000000000000000000000000000000000000000000840481168587019081527a0100000000000000000000000000000000000000000000000000008504600290810b60608801908152600160e81b909604810b60808801908152938a52600b895298879020875180890189528154861680825260019092015486169981018a905291519551935197517f8e9059d600000000000000000000000000000000000000000000000000000000815260048101919091526024810198909852938116604488015290870b60648701529390950b608485015260a4840188905291861660c48401529290917f000000000000000000000000000000000000000000000000000000000000000090911690638e9059d69060e401600060405180830381600087803b1580156132e857600080fd5b505af11580156132fc573d6000803e3d6000fd5b505050505050505050565b6040517f4b2084e30000000000000000000000000000000000000000000000000000000081526001600160a01b0384811660048301523360248301528381166044830152606482018390527f00000000000000000000000000000000000000000000000000000000000000001690634b2084e390608401612709565b6040517f70a082310000000000000000000000000000000000000000000000000000000081523060048201526000907f00000000000000000000000000000000000000000000000000000000000000006001600160a01b0316906370a0823190602401602060405180830381865afa158015613403573d6000803e3d6000fd5b505050506040513d601f19601f820116820180604052508101906134279190615ca7565b9050828110156134795760405162461bcd60e51b815260206004820152601160248201527f496e73756666696369656e7420574554480000000000000000000000000000006044820152606401610e25565b8015610f77576040517f2e1a7d4d000000000000000000000000000000000000000000000000000000008152600481018290527f00000000000000000000000000000000000000000000000000000000000000006001600160a01b031690632e1a7d4d90602401600060405180830381600087803b1580156134fa57600080fd5b505af115801561350e573d6000803e3d6000fd5b50505050610f778282613815565b6040805160a0810182526000808252602080830182905282840182905260608301829052608083018290528482526009905291822080546001600160a01b03811693928392790100000000000000000000000000000000000000000000000000830460ff16927a0100000000000000000000000000000000000000000000000000008104600290810b93600160e81b909204900b91876135fe5760405162461bcd60e51b815260206004820152600a60248201527f4e4f545f455849535453000000000000000000000000000000000000000000006044820152606401610e25565b805474010000000000000000000000000000000000000000900464ffffffffff166000908152600b60209081526040918290208054600182015484516001600160a01b03928316948101859052908216948101859052929a50929850917f0000000000000000000000000000000000000000000000000000000000000000169063c625e3c39060600160408051601f198184030181529082905280516020909101207fffffffff0000000000000000000000000000000000000000000000000000000060e084901b1682526004820152306024820152604481018d905260ff89166064820152600288810b608483015287900b60a482015260c40160a060405180830381865afa158015613716573d6000803e3d6000fd5b505050506040513d601f19601f8201168201806040525081019061373a9190615c0a565b92505050919395979092949650565b604051336024820152306044820152606481018690526084810185905260ff841660a482015260c4810183905260e481018290526000906001600160a01b0388169063d505accf906101040161151e565b6000818152600360205260409020805473ffffffffffffffffffffffffffffffffffffffff19166001600160a01b03841690811790915581906137dc82611b54565b6001600160a01b03167f8c5be1e5ebec7d5bd14f71427d1e84f3dd0314c0f7b2291e5b200ac8c7c3b92560405160405180910390a45050565b600080600080600085875af1905080610f77576040517fe293b56b00000000000000000000000000000000000000000000000000000000815260040160405180910390fd5b6000818152600960205260408120546001600160a01b03166138e45760405162461bcd60e51b815260206004820152602c60248201527f4552433732313a206f70657261746f7220717565727920666f72206e6f6e657860448201527f697374656e7420746f6b656e00000000000000000000000000000000000000006064820152608401610e25565b60006138ef83611b54565b9050806001600160a01b0316846001600160a01b0316148061392a5750836001600160a01b031661391f84610d9f565b6001600160a01b0316145b8061395a57506001600160a01b0380821660009081526004602090815260408083209388168352929052205460ff165b949350505050565b826001600160a01b031661397582611b54565b6001600160a01b0316146139f15760405162461bcd60e51b815260206004820152602960248201527f4552433732313a207472616e73666572206f6620746f6b656e2074686174206960448201527f73206e6f74206f776e00000000000000000000000000000000000000000000006064820152608401610e25565b6001600160a01b038216613a6c5760405162461bcd60e51b8152602060048201526024808201527f4552433732313a207472616e7366657220746f20746865207a65726f2061646460448201527f72657373000000000000000000000000000000000000000000000000000000006064820152608401610e25565b613a778383836143a5565b613a8260008261379a565b6001600160a01b0383166000908152600260205260408120805460019290613aab908490615cc0565b90915550506001600160a01b0382166000908152600260205260408120805460019290613ad99084906159b1565b90915550506000818152600960205260409020805473ffffffffffffffffffffffffffffffffffffffff19166001600160a01b03841617905580826001600160a01b0316846001600160a01b03167fddf252ad1be2c89b69c2b068fc378daa952ba7f163c4a11628f55a4df523b3ef60405160405180910390a4505050565b60007f7fffffffffffffffffffffffffffffffffffffffffffffffffffffffffffffff821115613b8a57613b8a615cd7565b5090565b6000808383604051602001613bb99291906001600160a01b0392831681529116602082015260400190565b60408051601f1981840301815291815281516020928301206000818152600c90935291205464ffffffffff16925090508161296f57600a805464ffffffffff16906000613c0583615ced565b82546101009290920a64ffffffffff8181021990931691831602179091556000928352600c6020908152604080852080547fffffffffffffffffffffffffffffffffffffffffffffffffffffff0000000000169385169384179055805180820182526001600160a01b039889168152968816878301908152928552600b9091529092209351845473ffffffffffffffffffffffffffffffffffffffff199081169187169190911785559151600194909401805490921693909416929092179091555090565b7f00000000000000000000000000000000000000000000000000000000000000006001600160a01b0316836001600160a01b0316148015613d0b5750804710155b15613e51577f00000000000000000000000000000000000000000000000000000000000000006001600160a01b031663d0e30db0826040518263ffffffff1660e01b81526004016000604051808303818588803b158015613d6b57600080fd5b505af1158015613d7f573d6000803e3d6000fd5b50506040517fa9059cbb0000000000000000000000000000000000000000000000000000000081526001600160a01b037f000000000000000000000000000000000000000000000000000000000000000081166004830152602482018690527f000000000000000000000000000000000000000000000000000000000000000016935063a9059cbb925060440190506020604051808303816000875af1158015613e2d573d6000803e3d6000fd5b505050506040513d601f19601f82011682018060405250810190612cd29190615d12565b6001600160a01b038216301415613e8d57610f77837f00000000000000000000000000000000000000000000000000000000000000008361448d565b610f7783837f000000000000000000000000000000000000000000000000000000000000000084614517565b6000818152600960205260409020546001600160a01b0316331480613ef75750613ee281610d9f565b6001600160a01b0316336001600160a01b0316145b613f435760405162461bcd60e51b815260206004820152600c60248201527f4e4f545f415050524f56454400000000000000000000000000000000000000006044820152606401610e25565b50565b600854600090613f69906fffffffffffffffffffffffffffffffff166001615d2f565b6fffffffffffffffffffffffffffffffff169050613f8782826145b7565b919050565b600080600061409e7f00000000000000000000000000000000000000000000000000000000000000006001600160a01b031663dc6574658c600001518d60200151604051602001613ff39291906001600160a01b0392831681529116602082015260400190565b604051602081830303815290604052805190602001208e604001516040518363ffffffff1660e01b815260040161403792919091825260ff16602082015260400190565b61010060405180830381865afa158015614055573d6000803e3d6000fd5b505050506040513d601f19601f820116820180604052508101906140799190615d84565b6020015161408a8d6060015161471c565b6140978e6080015161471c565b8b8b614a56565b92507f00000000000000000000000000000000000000000000000000000000000000006001600160a01b0316632fb07eac6040518061014001604052808d600001516001600160a01b031681526020018d602001516001600160a01b031681526020018e6040015160ff1681526020018e6060015160020b81526020018e6080015160020b8152602001866bffffffffffffffffffffffff168152602001306001600160a01b031681526020018c81526020018761415d57600061415f565b335b815260200187614188576040805133602082015201604051602081830303815290604052614198565b6040805160008152602081019091525b8152506040518263ffffffff1660e01b81526004016141b79190615e4e565b60408051808303816000875af11580156141d5573d6000803e3d6000fd5b505050506040513d601f19601f820116820180604052508101906141f991906157e6565b909250905085821080159061420e5750848110155b61425a5760405162461bcd60e51b815260206004820152600e60248201527f507269636520736c6970706167650000000000000000000000000000000000006044820152606401610e25565b985098509895505050505050565b600061427382611b54565b9050614281816000846143a5565b61428c60008361379a565b6001600160a01b03811660009081526002602052604081208054600192906142b5908490615cc0565b9091555050600082815260096020526040808220805473ffffffffffffffffffffffffffffffffffffffff19169055518391906001600160a01b038416907fddf252ad1be2c89b69c2b068fc378daa952ba7f163c4a11628f55a4df523b3ef908390a45050565b614327848484613962565b61433384848484614bd3565b612cd25760405162461bcd60e51b815260206004820152603260248201527f4552433732313a207472616e7366657220746f206e6f6e20455243373231526560448201527f63656976657220696d706c656d656e74657200000000000000000000000000006064820152608401610e25565b6001600160a01b03831661440d57600880546fffffffffffffffffffffffffffffffff169060006143d583615f21565b91906101000a8154816fffffffffffffffffffffffffffffffff02191690836fffffffffffffffffffffffffffffffff160217905550505b6001600160a01b038216610f77576008805470010000000000000000000000000000000090046fffffffffffffffffffffffffffffffff1690601061445183615f21565b91906101000a8154816fffffffffffffffffffffffffffffffff02191690836fffffffffffffffffffffffffffffffff16021790555050505050565b60006040517fa9059cbb0000000000000000000000000000000000000000000000000000000081526001600160a01b03841660048201528260248201526000806044836000895af19150506144e181614d71565b612cd2576040517fbfa871c500000000000000000000000000000000000000000000000000000000815260040160405180910390fd5b60006040517f23b872dd0000000000000000000000000000000000000000000000000000000081526001600160a01b03851660048201526001600160a01b038416602482015282604482015260008060648360008a5af191505061457a81614d71565b6145b0576040517fa83c475400000000000000000000000000000000000000000000000000000000815260040160405180910390fd5b5050505050565b6001600160a01b03821661460d5760405162461bcd60e51b815260206004820181905260248201527f4552433732313a206d696e7420746f20746865207a65726f20616464726573736044820152606401610e25565b6000818152600960205260409020546001600160a01b0316156146725760405162461bcd60e51b815260206004820152601c60248201527f4552433732313a20746f6b656e20616c7265616479206d696e746564000000006044820152606401610e25565b61467e600083836143a5565b6001600160a01b03821660009081526002602052604081208054600192906146a79084906159b1565b90915550506000818152600960205260409020805473ffffffffffffffffffffffffffffffffffffffff19166001600160a01b03841617905560405181906001600160a01b038416906000907fddf252ad1be2c89b69c2b068fc378daa952ba7f163c4a11628f55a4df523b3ef908290a45050565b6000600282900b7ffffffffffffffffffffffffffffffffffffffffffffffffffffffffffff42755138015906147595750620bd8ab600283900b13155b61476257600080fd5b6000808360020b126147745782614779565b826000035b62ffffff8116915070010000000000000000000000000000000090600116156147b2576ffffcb933bd6fad37aa2d162d1a5940010260801c5b60028216156147d1576ffff97272373d413259a46990580e213a0260801c5b60048216156147f0576ffff2e50f5f656932ef12357cf3c7fdcc0260801c5b600882161561480f576fffe5caca7e10e4e61c3624eaa0941cd00260801c5b601082161561482e576fffcb9843d60f6159c9db58835c9266440260801c5b602082161561484d576fff973b41fa98c081472e6896dfb254c00260801c5b604082161561486c576fff2ea16466c96a3843ec78b326b528610260801c5b608082161561488b576ffe5dee046a99a2a811c461f1969c30530260801c5b6101008216156148ab576ffcbe86c7900a88aedcffc83b479aa3a40260801c5b6102008216156148cb576ff987a7253ac413176f2b074cf7815e540260801c5b6104008216156148eb576ff3392b0822b70005940c7a398e4b70f30260801c5b61080082161561490b576fe7159475a2c29b7443b29c7fa6e889d90260801c5b61100082161561492b576fd097f3bdfd2022b8845ad8f792aa58250260801c5b61200082161561494b576fa9f746462d870fdf8a65dc1f90e061e50260801c5b61400082161561496b576f70d869a156d2a1b890bb3df62baf32f70260801c5b61800082161561498b576f31be135f97d08fd981231505542fcfa60260801c5b620100008216156149ac576f09aa508b5b7a84e1c677de54f3e99bc90260801c5b620200008216156149cc576e5d6af8dedb81196699c329225ee6040260801c5b620400008216156149eb576d2216e584f5fa1ea926041bedfe980260801c5b62080000821615614a08576b048a170391f7dc42444e8fa20260801c5b60008460020b12614a28578060001981614a2457614a24615f47565b0490505b6000670100000000000000820611614a41576000614a44565b60015b60ff16603882901c0192505050919050565b600080856fffffffffffffffffffffffffffffffff16876fffffffffffffffffffffffffffffffff1611614adc57614ad584866fffffffffffffffffffffffffffffffff16886fffffffffffffffffffffffffffffffff160269010000000000000000008989036fffffffffffffffffffffffffffffffff1602614db8565b9050614bc6565b846fffffffffffffffffffffffffffffffff16876fffffffffffffffffffffffffffffffff1610614b3057614ad58369010000000000000000008888036fffffffffffffffffffffffffffffffff16614db8565b6000614b8385876fffffffffffffffffffffffffffffffff168a6fffffffffffffffffffffffffffffffff160269010000000000000000008b8a036fffffffffffffffffffffffffffffffff1602614db8565b90506000614bb08569010000000000000000008a8c036fffffffffffffffffffffffffffffffff16614db8565b9050808210614bbf5780614bc1565b815b925050505b611225600882901c614e6d565b60006001600160a01b0384163b15614d66576040517f150b7a020000000000000000000000000000000000000000000000000000000081526001600160a01b0385169063150b7a0290614c30903390899088908890600401615f5d565b6020604051808303816000875af1925050508015614c6b575060408051601f3d908101601f19168201909252614c6891810190615a91565b60015b614d1b573d808015614c99576040519150601f19603f3d011682016040523d82523d6000602084013e614c9e565b606091505b508051614d135760405162461bcd60e51b815260206004820152603260248201527f4552433732313a207472616e7366657220746f206e6f6e20455243373231526560448201527f63656976657220696d706c656d656e74657200000000000000000000000000006064820152608401610e25565b805181602001fd5b7fffffffff00000000000000000000000000000000000000000000000000000000167f150b7a020000000000000000000000000000000000000000000000000000000014905061395a565b506001949350505050565b60003d82614d8357806000803e806000fd5b8060208114614d9b578015614dac5760009250614db1565b816000803e60005115159250614db1565b600192505b5050919050565b600080806000198587098587029250828110838203039150508060001415614df25760008411614de757600080fd5b508290049050614e66565b808411614dfe57600080fd5b600084868809851960019081018716968790049682860381900495909211909303600082900391909104909201919091029190911760038402600290811880860282030280860282030280860282030280860282030280860282030280860290910302029150505b9392505050565b60006bffffffffffffffffffffffff821115613b8a57613b8a615cd7565b7fffffffff0000000000000000000000000000000000000000000000000000000081168114613f4357600080fd5b600060208284031215614ecb57600080fd5b8135614e6681614e8b565b60005b83811015614ef1578181015183820152602001614ed9565b83811115612cd25750506000910152565b60008151808452614f1a816020860160208601614ed6565b601f01601f19169290920160200192915050565b602081526000614e666020830184614f02565b600060208284031215614f5357600080fd5b5035919050565b6001600160a01b0381168114613f4357600080fd5b60008060408385031215614f8257600080fd5b8235614f8d81614f5a565b946020939093013593505050565b600080600060608486031215614fb057600080fd5b8335614fbb81614f5a565b92506020840135614fcb81614f5a565b929592945050506040919091013590565b60008083601f840112614fee57600080fd5b50813567ffffffffffffffff81111561500657600080fd5b60208301915083602082850101111561501e57600080fd5b9250929050565b8015158114613f4357600080fd5b600080600080600080600060c0888a03121561504e57600080fd5b873567ffffffffffffffff81111561506557600080fd5b6150718a828b01614fdc565b9098509650506020880135945060408801359350606088013561509381614f5a565b925060808801356150a381615025565b915060a08801356150b381615025565b8091505092959891949750929550565b62ffffff81168114613f4357600080fd5b6fffffffffffffffffffffffffffffffff81168114613f4357600080fd5b6000806000806080858703121561510857600080fd5b843561511381614f5a565b9350602085013561512381614f5a565b92506040850135615133816150c3565b91506060850135615143816150d4565b939692955090935050565b60008060008060008060a0878903121561516757600080fd5b863561517281614f5a565b9550602087013561518281614f5a565b94506040870135935060608701359250608087013567ffffffffffffffff8111156151ac57600080fd5b6151b889828a01614fdc565b979a9699509497509295939492505050565b60ff81168114613f4357600080fd5b60008060008060008060c087890312156151f257600080fd5b86356151fd81614f5a565b95506020870135945060408701359350606087013561521b816151ca565b9598949750929560808101359460a0909101359350915050565b60006020828403121561524757600080fd5b8135614e6681614f5a565b600060e0828403121561526457600080fd5b50919050565b6000806000806080858703121561528057600080fd5b843561528b81614f5a565b93506020850135925060408501356152a281614f5a565b9396929550929360600135925050565b600080600080600080600080610100898b0312156152cf57600080fd5b88356152da81614f5a565b975060208901356152ea81614f5a565b965060408901359550606089013594506080890135935060a089013561530f81614f5a565b925060c089013561531f81615025565b915060e089013561532f81615025565b809150509295985092959890939650565b6000610160828403121561526457600080fd5b6000806040838503121561536657600080fd5b823561537181614f5a565b9150602083013561538181615025565b809150509250929050565b60008083601f84011261539e57600080fd5b50813567ffffffffffffffff8111156153b657600080fd5b6020830191508360208260051b850101111561501e57600080fd5b600080602083850312156153e457600080fd5b823567ffffffffffffffff8111156153fb57600080fd5b6154078582860161538c565b90969095509350505050565b6000602080830181845280855180835260408601915060408160051b870101925083870160005b82811015615486577fffffffffffffffffffffffffffffffffffffffffffffffffffffffffffffffc0888603018452615474858351614f02565b9450928501929085019060010161543a565b5092979650505050505050565b634e487b7160e01b600052604160045260246000fd5b604051601f8201601f1916810167ffffffffffffffff811182821017156154d2576154d2615493565b604052919050565b600067ffffffffffffffff8211156154f4576154f4615493565b50601f01601f191660200190565b6000806000806080858703121561551857600080fd5b843561552381614f5a565b9350602085013561553381614f5a565b925060408501359150606085013567ffffffffffffffff81111561555657600080fd5b8501601f8101871361556757600080fd5b803561557a615575826154da565b6154a9565b81815288602083850101111561558f57600080fd5b8160208401602083013760006020838301015280935050505092959194509250565b600080600080606085870312156155c757600080fd5b84356155d281614f5a565b935060208501359250604085013567ffffffffffffffff8111156155f557600080fd5b61560187828801614fdc565b95989497509550505050565b600060c0828403121561526457600080fd5b6000806040838503121561563257600080fd5b823591506020830135615381816151ca565b6000806040838503121561565757600080fd5b82359150602083013561538181614f5a565b6000806040838503121561567c57600080fd5b823561568781614f5a565b9150602083013561538181614f5a565b6000602082840312156156a957600080fd5b813564ffffffffff81168114614e6657600080fd5b600181811c908216806156d257607f821691505b6020821081141561526457634e487b7160e01b600052602260045260246000fd5b634e487b7160e01b600052601160045260246000fd5b60006fffffffffffffffffffffffffffffffff83811690831681811015615732576157326156f3565b039392505050565b60007f800000000000000000000000000000000000000000000000000000000000000082141561576c5761576c6156f3565b5060000390565b602081526000825160c0602084015261578f60e0840182614f02565b9050602084015160408401526001600160a01b03604085015116606084015260608401516080840152608084015160a084015260a0840151601f198483030160c08501526157dd8282614f02565b95945050505050565b600080604083850312156157f957600080fd5b505080516020909101519092909150565b6000806040838503121561581d57600080fd5b8251615828816151ca565b6020840151909250615381816151ca565b6000816000190483118215151615615853576158536156f3565b500290565b6000825161586a818460208701614ed6565b9190910192915050565b6bffffffffffffffffffffffff81168114613f4357600080fd5b6000602082840312156158a057600080fd5b8135614e6681615874565b6000602082840312156158bd57600080fd5b8135614e6681615025565b6000610120820190506001600160a01b03808451168352806020850151166020840152506040830151615900604084018260ff169052565b506060830151615915606084018260020b9052565b50608083015161592a608084018260020b9052565b5060a083015161594a60a08401826bffffffffffffffffffffffff169052565b5060c083015160c083015260e083015160e0830152610100808401516159738285018215159052565b505092915050565b6000806000806080858703121561599157600080fd5b505082516020840151604085015160609095015191969095509092509050565b600082198211156159c4576159c46156f3565b500190565b60006001600160a01b03808816835286602084015280861660408401525083606083015260a0608083015261122560a0830184614f02565b60006101006001600160a01b03808c168452808b1660208501528960408501528860608501528088166080850152508560a08401528460c08401528060e0840152615a4e81840185614f02565b9b9a5050505050505050505050565b6000600019821415615a7157615a716156f3565b5060010190565b82815260406020820152600061395a6040830184614f02565b600060208284031215615aa357600080fd5b8151614e6681614e8b565b600060208284031215615ac057600080fd5b8135614e66816151ca565b8060020b8114613f4357600080fd5b600060208284031215615aec57600080fd5b8135614e6681615acb565b634e487b7160e01b600052603260045260246000fd5b60008083357fffffffffffffffffffffffffffffffffffffffffffffffffffffffffffffffe1843603018112615b4257600080fd5b83018035915067ffffffffffffffff821115615b5d57600080fd5b60200191503681900382131561501e57600080fd5b8183823760009101908152919050565b600060208284031215615b9457600080fd5b815167ffffffffffffffff811115615bab57600080fd5b8201601f81018413615bbc57600080fd5b8051615bca615575826154da565b818152856020838501011115615bdf57600080fd5b6157dd826020830160208601614ed6565b805169ffffffffffffffffffff81168114613f8757600080fd5b600060a08284031215615c1c57600080fd5b60405160a0810181811067ffffffffffffffff82111715615c3f57615c3f615493565b6040528251615c4d81615874565b8152615c5b60208401615bf0565b6020820152615c6c60408401615bf0565b60408201526060830151615c7f816151ca565b6060820152608083015163ffffffff81168114615c9b57600080fd5b60808201529392505050565b600060208284031215615cb957600080fd5b5051919050565b600082821015615cd257615cd26156f3565b500390565b634e487b7160e01b600052600160045260246000fd5b600064ffffffffff80831681811415615d0857615d086156f3565b6001019392505050565b600060208284031215615d2457600080fd5b8151614e6681615025565b60006fffffffffffffffffffffffffffffffff808316818516808303821115615d5a57615d5a6156f3565b01949350505050565b8051613f87816150d4565b8051613f87816150c3565b8051613f8781615acb565b6000610100808385031215615d9857600080fd5b6040519081019067ffffffffffffffff82118183101715615dbb57615dbb615493565b8160405283519150615dcc826150d4565b818152615ddb60208501615d63565b6020820152615dec60408501615d6e565b6040820152615dfd60608501615d79565b6060820152615e0e60808501615d79565b6080820152615e1f60a08501615d79565b60a0820152615e3060c08501615bf0565b60c0820152615e4160e08501615bf0565b60e0820152949350505050565b60208152615e686020820183516001600160a01b03169052565b60006020830151615e8460408401826001600160a01b03169052565b50604083015160ff81166060840152506060830151615ea8608084018260020b9052565b506080830151615ebd60a084018260020b9052565b5060a08301516bffffffffffffffffffffffff811660c08401525060c08301516001600160a01b03811660e08401525060e083015161010083810191909152830151610120808401919091528301516101408084015261395a610160840182614f02565b60006fffffffffffffffffffffffffffffffff80831681811415615d0857615d086156f3565b634e487b7160e01b600052601260045260246000fd5b60006001600160a01b03808716835280861660208401525083604083015260806060830152615f8f6080830184614f02565b969550505050505056fea164736f6c634300080a000a",
  "linkReferences": {},
  "deployedLinkReferences": {}
}