{
  "_format": "hh-sol-artifact-1",
  "contractName": "Manager",
  "sourceName": "contracts/periphery/Manager.sol",
  "abi": [
    {
      "inputs": [
        {
          "internalType": "address",
          "name": "_hub",
          "type": "address"
        },
        {
          "internalType": "address",
          "name": "_WETH9",
          "type": "address"
        }
      ],
      "stateMutability": "nonpayable",
      "type": "constructor"
    },
    {
      "inputs": [],
      "name": "DeadlinePassed",
      "type": "error"
    },
    {
      "inputs": [],
      "name": "FailedTransferETH",
      "type": "error"
    },
    {
      "inputs": [],
      "name": "FailedTransferFrom",
      "type": "error"
    },
    {
      "anonymous": false,
      "inputs": [
        {
          "indexed": true,
          "internalType": "address",
          "name": "owner",
          "type": "address"
        },
        {
          "indexed": true,
          "internalType": "address",
          "name": "approved",
          "type": "address"
        },
        {
          "indexed": true,
          "internalType": "uint256",
          "name": "tokenId",
          "type": "uint256"
        }
      ],
      "name": "Approval",
      "type": "event"
    },
    {
      "anonymous": false,
      "inputs": [
        {
          "indexed": true,
          "internalType": "address",
          "name": "owner",
          "type": "address"
        },
        {
          "indexed": true,
          "internalType": "address",
          "name": "operator",
          "type": "address"
        },
        {
          "indexed": false,
          "internalType": "bool",
          "name": "approved",
          "type": "bool"
        }
      ],
      "name": "ApprovalForAll",
      "type": "event"
    },
    {
      "anonymous": false,
      "inputs": [
        {
          "indexed": true,
          "internalType": "address",
          "name": "from",
          "type": "address"
        },
        {
          "indexed": true,
          "internalType": "address",
          "name": "to",
          "type": "address"
        },
        {
          "indexed": true,
          "internalType": "uint256",
          "name": "tokenId",
          "type": "uint256"
        }
      ],
      "name": "Transfer",
      "type": "event"
    },
    {
      "inputs": [],
      "name": "DOMAIN_SEPARATOR",
      "outputs": [
        {
          "internalType": "bytes32",
          "name": "domainSeperator",
          "type": "bytes32"
        }
      ],
      "stateMutability": "view",
      "type": "function"
    },
    {
      "inputs": [],
      "name": "PERMIT_TYPEHASH",
      "outputs": [
        {
          "internalType": "bytes32",
          "name": "",
          "type": "bytes32"
        }
      ],
      "stateMutability": "view",
      "type": "function"
    },
    {
      "inputs": [],
      "name": "WETH9",
      "outputs": [
        {
          "internalType": "address",
          "name": "",
          "type": "address"
        }
      ],
      "stateMutability": "view",
      "type": "function"
    },
    {
      "inputs": [
        {
          "components": [
            {
              "internalType": "uint256",
              "name": "tokenId",
              "type": "uint256"
            },
            {
              "internalType": "uint256",
              "name": "amount0Desired",
              "type": "uint256"
            },
            {
              "internalType": "uint256",
              "name": "amount1Desired",
              "type": "uint256"
            },
            {
              "internalType": "uint256",
              "name": "amount0Min",
              "type": "uint256"
            },
            {
              "internalType": "uint256",
              "name": "amount1Min",
              "type": "uint256"
            },
            {
              "internalType": "bool",
              "name": "useAccount",
              "type": "bool"
            }
          ],
          "internalType": "struct PositionManager.AddLiquidityParams",
          "name": "params",
          "type": "tuple"
        }
      ],
      "name": "addLiquidity",
      "outputs": [
        {
          "internalType": "uint96",
          "name": "liquidityD8",
          "type": "uint96"
        },
        {
          "internalType": "uint256",
          "name": "amount0",
          "type": "uint256"
        },
        {
          "internalType": "uint256",
          "name": "amount1",
          "type": "uint256"
        }
      ],
      "stateMutability": "payable",
      "type": "function"
    },
    {
      "inputs": [
        {
          "internalType": "address",
          "name": "to",
          "type": "address"
        },
        {
          "internalType": "uint256",
          "name": "tokenId",
          "type": "uint256"
        }
      ],
      "name": "approve",
      "outputs": [],
      "stateMutability": "nonpayable",
      "type": "function"
    },
    {
      "inputs": [
        {
          "internalType": "address",
          "name": "owner",
          "type": "address"
        }
      ],
      "name": "balanceOf",
      "outputs": [
        {
          "internalType": "uint256",
          "name": "",
          "type": "uint256"
        }
      ],
      "stateMutability": "view",
      "type": "function"
    },
    {
      "inputs": [
        {
          "internalType": "uint256[]",
          "name": "tokenIds",
          "type": "uint256[]"
        }
      ],
      "name": "burn",
      "outputs": [],
      "stateMutability": "payable",
      "type": "function"
    },
    {
      "inputs": [
        {
          "internalType": "address",
          "name": "token0",
          "type": "address"
        },
        {
          "internalType": "address",
          "name": "token1",
          "type": "address"
        },
        {
          "internalType": "uint24",
          "name": "sqrtGamma",
          "type": "uint24"
        },
        {
          "internalType": "uint128",
          "name": "sqrtPrice",
          "type": "uint128"
        }
      ],
      "name": "createPool",
      "outputs": [],
      "stateMutability": "payable",
      "type": "function"
    },
    {
      "inputs": [
        {
          "internalType": "address",
          "name": "recipient",
          "type": "address"
        },
        {
          "internalType": "address",
          "name": "token",
          "type": "address"
        },
        {
          "internalType": "uint256",
          "name": "amount",
          "type": "uint256"
        }
      ],
      "name": "deposit",
      "outputs": [],
      "stateMutability": "payable",
      "type": "function"
    },
    {
      "inputs": [
        {
          "internalType": "address",
          "name": "token",
          "type": "address"
        },
        {
          "internalType": "uint256",
          "name": "amount",
          "type": "uint256"
        },
        {
          "internalType": "bytes",
          "name": "data",
          "type": "bytes"
        }
      ],
      "name": "depositCallback",
      "outputs": [],
      "stateMutability": "nonpayable",
      "type": "function"
    },
    {
      "inputs": [
        {
          "internalType": "address",
          "name": "recipient",
          "type": "address"
        },
        {
          "internalType": "uint256",
          "name": "recipientAccRefId",
          "type": "uint256"
        },
        {
          "internalType": "address",
          "name": "token",
          "type": "address"
        },
        {
          "internalType": "uint256",
          "name": "amount",
          "type": "uint256"
        }
      ],
      "name": "depositToExternal",
      "outputs": [],
      "stateMutability": "payable",
      "type": "function"
    },
    {
      "inputs": [
        {
          "internalType": "bytes",
          "name": "path",
          "type": "bytes"
        },
        {
          "internalType": "uint256",
          "name": "amountIn",
          "type": "uint256"
        },
        {
          "internalType": "uint256",
          "name": "amountOutMinimum",
          "type": "uint256"
        },
        {
          "internalType": "address",
          "name": "recipient",
          "type": "address"
        },
        {
          "internalType": "bool",
          "name": "fromAccount",
          "type": "bool"
        },
        {
          "internalType": "bool",
          "name": "toAccount",
          "type": "bool"
        },
        {
          "internalType": "uint256",
          "name": "deadline",
          "type": "uint256"
        }
      ],
      "name": "exactIn",
      "outputs": [
        {
          "internalType": "uint256",
          "name": "amountOut",
          "type": "uint256"
        }
      ],
      "stateMutability": "payable",
      "type": "function"
    },
    {
      "inputs": [
        {
          "internalType": "address",
          "name": "tokenIn",
          "type": "address"
        },
        {
          "internalType": "address",
          "name": "tokenOut",
          "type": "address"
        },
        {
          "internalType": "uint256",
          "name": "tierChoices",
          "type": "uint256"
        },
        {
          "internalType": "uint256",
          "name": "amountIn",
          "type": "uint256"
        },
        {
          "internalType": "uint256",
          "name": "amountOutMinimum",
          "type": "uint256"
        },
        {
          "internalType": "address",
          "name": "recipient",
          "type": "address"
        },
        {
          "internalType": "bool",
          "name": "fromAccount",
          "type": "bool"
        },
        {
          "internalType": "bool",
          "name": "toAccount",
          "type": "bool"
        },
        {
          "internalType": "uint256",
          "name": "deadline",
          "type": "uint256"
        }
      ],
      "name": "exactInSingle",
      "outputs": [
        {
          "internalType": "uint256",
          "name": "amountOut",
          "type": "uint256"
        }
      ],
      "stateMutability": "payable",
      "type": "function"
    },
    {
      "inputs": [
        {
          "internalType": "bytes",
          "name": "path",
          "type": "bytes"
        },
        {
          "internalType": "uint256",
          "name": "amountOut",
          "type": "uint256"
        },
        {
          "internalType": "uint256",
          "name": "amountInMaximum",
          "type": "uint256"
        },
        {
          "internalType": "address",
          "name": "recipient",
          "type": "address"
        },
        {
          "internalType": "bool",
          "name": "fromAccount",
          "type": "bool"
        },
        {
          "internalType": "bool",
          "name": "toAccount",
          "type": "bool"
        },
        {
          "internalType": "uint256",
          "name": "deadline",
          "type": "uint256"
        }
      ],
      "name": "exactOut",
      "outputs": [
        {
          "internalType": "uint256",
          "name": "amountIn",
          "type": "uint256"
        }
      ],
      "stateMutability": "payable",
      "type": "function"
    },
    {
      "inputs": [
        {
          "internalType": "address",
          "name": "tokenIn",
          "type": "address"
        },
        {
          "internalType": "address",
          "name": "tokenOut",
          "type": "address"
        },
        {
          "internalType": "uint256",
          "name": "tierChoices",
          "type": "uint256"
        },
        {
          "internalType": "uint256",
          "name": "amountOut",
          "type": "uint256"
        },
        {
          "internalType": "uint256",
          "name": "amountInMaximum",
          "type": "uint256"
        },
        {
          "internalType": "address",
          "name": "recipient",
          "type": "address"
        },
        {
          "internalType": "bool",
          "name": "fromAccount",
          "type": "bool"
        },
        {
          "internalType": "bool",
          "name": "toAccount",
          "type": "bool"
        },
        {
          "internalType": "uint256",
          "name": "deadline",
          "type": "uint256"
        }
      ],
      "name": "exactOutSingle",
      "outputs": [
        {
          "internalType": "uint256",
          "name": "amountIn",
          "type": "uint256"
        }
      ],
      "stateMutability": "payable",
      "type": "function"
    },
    {
      "inputs": [
        {
          "internalType": "uint256",
          "name": "tokenId",
          "type": "uint256"
        }
      ],
      "name": "getApproved",
      "outputs": [
        {
          "internalType": "address",
          "name": "",
          "type": "address"
        }
      ],
      "stateMutability": "view",
      "type": "function"
    },
    {
      "inputs": [
        {
          "internalType": "uint256",
          "name": "tokenId",
          "type": "uint256"
        }
      ],
      "name": "getPosition",
      "outputs": [
        {
          "internalType": "address",
          "name": "owner",
          "type": "address"
        },
        {
          "internalType": "address",
          "name": "token0",
          "type": "address"
        },
        {
          "internalType": "address",
          "name": "token1",
          "type": "address"
        },
        {
          "internalType": "uint8",
          "name": "tierId",
          "type": "uint8"
        },
        {
          "internalType": "int24",
          "name": "tickLower",
          "type": "int24"
        },
        {
          "internalType": "int24",
          "name": "tickUpper",
          "type": "int24"
        },
        {
          "components": [
            {
              "internalType": "uint96",
              "name": "liquidityD8",
              "type": "uint96"
            },
            {
              "internalType": "uint80",
              "name": "feeGrowthInside0Last",
              "type": "uint80"
            },
            {
              "internalType": "uint80",
              "name": "feeGrowthInside1Last",
              "type": "uint80"
            },
            {
              "internalType": "uint8",
              "name": "limitOrderType",
              "type": "uint8"
            },
            {
              "internalType": "uint32",
              "name": "settlementSnapshotId",
              "type": "uint32"
            }
          ],
          "internalType": "struct Positions.Position",
          "name": "position",
          "type": "tuple"
        }
      ],
      "stateMutability": "view",
      "type": "function"
    },
    {
      "inputs": [],
      "name": "hub",
      "outputs": [
        {
          "internalType": "address",
          "name": "",
          "type": "address"
        }
      ],
      "stateMutability": "view",
      "type": "function"
    },
    {
      "inputs": [
        {
          "internalType": "address",
          "name": "owner",
          "type": "address"
        },
        {
          "internalType": "address",
          "name": "operator",
          "type": "address"
        }
      ],
      "name": "isApprovedForAll",
      "outputs": [
        {
          "internalType": "bool",
          "name": "",
          "type": "bool"
        }
      ],
      "stateMutability": "view",
      "type": "function"
    },
    {
      "inputs": [],
      "name": "latestTokenId",
      "outputs": [
        {
          "internalType": "uint256",
          "name": "tokenId",
          "type": "uint256"
        }
      ],
      "stateMutability": "view",
      "type": "function"
    },
    {
      "inputs": [
        {
          "components": [
            {
              "internalType": "address",
              "name": "token0",
              "type": "address"
            },
            {
              "internalType": "address",
              "name": "token1",
              "type": "address"
            },
            {
              "internalType": "uint8",
              "name": "tierId",
              "type": "uint8"
            },
            {
              "internalType": "int24",
              "name": "tickLower",
              "type": "int24"
            },
            {
              "internalType": "int24",
              "name": "tickUpper",
              "type": "int24"
            },
            {
              "internalType": "uint256",
              "name": "amount0Desired",
              "type": "uint256"
            },
            {
              "internalType": "uint256",
              "name": "amount1Desired",
              "type": "uint256"
            },
            {
              "internalType": "uint256",
              "name": "amount0Min",
              "type": "uint256"
            },
            {
              "internalType": "uint256",
              "name": "amount1Min",
              "type": "uint256"
            },
            {
              "internalType": "address",
              "name": "recipient",
              "type": "address"
            },
            {
              "internalType": "bool",
              "name": "useAccount",
              "type": "bool"
            }
          ],
          "internalType": "struct PositionManager.MintParams",
          "name": "params",
          "type": "tuple"
        }
      ],
      "name": "mint",
      "outputs": [
        {
          "internalType": "uint256",
          "name": "tokenId",
          "type": "uint256"
        },
        {
          "internalType": "uint96",
          "name": "liquidityD8",
          "type": "uint96"
        },
        {
          "internalType": "uint256",
          "name": "amount0",
          "type": "uint256"
        },
        {
          "internalType": "uint256",
          "name": "amount1",
          "type": "uint256"
        }
      ],
      "stateMutability": "payable",
      "type": "function"
    },
    {
      "inputs": [
        {
          "internalType": "address",
          "name": "token0",
          "type": "address"
        },
        {
          "internalType": "address",
          "name": "token1",
          "type": "address"
        },
        {
          "internalType": "uint256",
          "name": "amount0",
          "type": "uint256"
        },
        {
          "internalType": "uint256",
          "name": "amount1",
          "type": "uint256"
        },
        {
          "internalType": "bytes",
          "name": "data",
          "type": "bytes"
        }
      ],
      "name": "mintCallback",
      "outputs": [],
      "stateMutability": "nonpayable",
      "type": "function"
    },
    {
      "inputs": [
        {
          "internalType": "bytes[]",
          "name": "data",
          "type": "bytes[]"
        }
      ],
      "name": "multicall",
      "outputs": [
        {
          "internalType": "bytes[]",
          "name": "results",
          "type": "bytes[]"
        }
      ],
      "stateMutability": "payable",
      "type": "function"
    },
    {
      "inputs": [],
      "name": "name",
      "outputs": [
        {
          "internalType": "string",
          "name": "",
          "type": "string"
        }
      ],
      "stateMutability": "view",
      "type": "function"
    },
    {
      "inputs": [
        {
          "internalType": "uint256",
          "name": "",
          "type": "uint256"
        }
      ],
      "name": "nonces",
      "outputs": [
        {
          "internalType": "uint256",
          "name": "",
          "type": "uint256"
        }
      ],
      "stateMutability": "view",
      "type": "function"
    },
    {
      "inputs": [
        {
          "internalType": "uint256",
          "name": "tokenId",
          "type": "uint256"
        }
      ],
      "name": "ownerOf",
      "outputs": [
        {
          "internalType": "address",
          "name": "",
          "type": "address"
        }
      ],
      "stateMutability": "view",
      "type": "function"
    },
    {
      "inputs": [
        {
          "internalType": "bytes32",
          "name": "",
          "type": "bytes32"
        }
      ],
      "name": "pairIdsByPoolId",
      "outputs": [
        {
          "internalType": "uint40",
          "name": "",
          "type": "uint40"
        }
      ],
      "stateMutability": "view",
      "type": "function"
    },
    {
      "inputs": [
        {
          "internalType": "uint40",
          "name": "",
          "type": "uint40"
        }
      ],
      "name": "pairs",
      "outputs": [
        {
          "internalType": "address",
          "name": "token0",
          "type": "address"
        },
        {
          "internalType": "address",
          "name": "token1",
          "type": "address"
        }
      ],
      "stateMutability": "view",
      "type": "function"
    },
    {
      "inputs": [
        {
          "internalType": "address",
          "name": "spender",
          "type": "address"
        },
        {
          "internalType": "uint256",
          "name": "tokenId",
          "type": "uint256"
        },
        {
          "internalType": "uint256",
          "name": "deadline",
          "type": "uint256"
        },
        {
          "internalType": "uint8",
          "name": "v",
          "type": "uint8"
        },
        {
          "internalType": "bytes32",
          "name": "r",
          "type": "bytes32"
        },
        {
          "internalType": "bytes32",
          "name": "s",
          "type": "bytes32"
        }
      ],
      "name": "permit",
      "outputs": [],
      "stateMutability": "payable",
      "type": "function"
    },
    {
      "inputs": [
        {
          "internalType": "uint256",
          "name": "",
          "type": "uint256"
        }
      ],
      "name": "positionsByTokenId",
      "outputs": [
        {
          "internalType": "address",
          "name": "owner",
          "type": "address"
        },
        {
          "internalType": "uint40",
          "name": "pairId",
          "type": "uint40"
        },
        {
          "internalType": "uint8",
          "name": "tierId",
          "type": "uint8"
        },
        {
          "internalType": "int24",
          "name": "tickLower",
          "type": "int24"
        },
        {
          "internalType": "int24",
          "name": "tickUpper",
          "type": "int24"
        }
      ],
      "stateMutability": "view",
      "type": "function"
    },
    {
      "inputs": [],
      "name": "refundETH",
      "outputs": [],
      "stateMutability": "payable",
      "type": "function"
    },
    {
      "inputs": [
        {
          "components": [
            {
              "internalType": "uint256",
              "name": "tokenId",
              "type": "uint256"
            },
            {
              "internalType": "uint96",
              "name": "liquidityD8",
              "type": "uint96"
            },
            {
              "internalType": "uint256",
              "name": "amount0Min",
              "type": "uint256"
            },
            {
              "internalType": "uint256",
              "name": "amount1Min",
              "type": "uint256"
            },
            {
              "internalType": "address",
              "name": "withdrawTo",
              "type": "address"
            },
            {
              "internalType": "bool",
              "name": "collectAllFees",
              "type": "bool"
            },
            {
              "internalType": "bool",
              "name": "settled",
              "type": "bool"
            }
          ],
          "internalType": "struct PositionManager.RemoveLiquidityParams",
          "name": "params",
          "type": "tuple"
        }
      ],
      "name": "removeLiquidity",
      "outputs": [
        {
          "internalType": "uint256",
          "name": "amount0",
          "type": "uint256"
        },
        {
          "internalType": "uint256",
          "name": "amount1",
          "type": "uint256"
        },
        {
          "internalType": "uint256",
          "name": "feeAmount0",
          "type": "uint256"
        },
        {
          "internalType": "uint256",
          "name": "feeAmount1",
          "type": "uint256"
        }
      ],
      "stateMutability": "payable",
      "type": "function"
    },
    {
      "inputs": [
        {
          "internalType": "address",
          "name": "from",
          "type": "address"
        },
        {
          "internalType": "address",
          "name": "to",
          "type": "address"
        },
        {
          "internalType": "uint256",
          "name": "tokenId",
          "type": "uint256"
        }
      ],
      "name": "safeTransferFrom",
      "outputs": [],
      "stateMutability": "nonpayable",
      "type": "function"
    },
    {
      "inputs": [
        {
          "internalType": "address",
          "name": "from",
          "type": "address"
        },
        {
          "internalType": "address",
          "name": "to",
          "type": "address"
        },
        {
          "internalType": "uint256",
          "name": "tokenId",
          "type": "uint256"
        },
        {
          "internalType": "bytes",
          "name": "_data",
          "type": "bytes"
        }
      ],
      "name": "safeTransferFrom",
      "outputs": [],
      "stateMutability": "nonpayable",
      "type": "function"
    },
    {
      "inputs": [
        {
          "internalType": "address",
          "name": "token",
          "type": "address"
        },
        {
          "internalType": "uint256",
          "name": "value",
          "type": "uint256"
        },
        {
          "internalType": "uint256",
          "name": "deadline",
          "type": "uint256"
        },
        {
          "internalType": "uint8",
          "name": "v",
          "type": "uint8"
        },
        {
          "internalType": "bytes32",
          "name": "r",
          "type": "bytes32"
        },
        {
          "internalType": "bytes32",
          "name": "s",
          "type": "bytes32"
        }
      ],
      "name": "selfPermit",
      "outputs": [],
      "stateMutability": "payable",
      "type": "function"
    },
    {
      "inputs": [
        {
          "internalType": "address",
          "name": "token",
          "type": "address"
        },
        {
          "internalType": "uint256",
          "name": "nonce",
          "type": "uint256"
        },
        {
          "internalType": "uint256",
          "name": "expiry",
          "type": "uint256"
        },
        {
          "internalType": "uint8",
          "name": "v",
          "type": "uint8"
        },
        {
          "internalType": "bytes32",
          "name": "r",
          "type": "bytes32"
        },
        {
          "internalType": "bytes32",
          "name": "s",
          "type": "bytes32"
        }
      ],
      "name": "selfPermitAllowed",
      "outputs": [],
      "stateMutability": "payable",
      "type": "function"
    },
    {
      "inputs": [
        {
          "internalType": "address",
          "name": "operator",
          "type": "address"
        },
        {
          "internalType": "bool",
          "name": "approved",
          "type": "bool"
        }
      ],
      "name": "setApprovalForAll",
      "outputs": [],
      "stateMutability": "nonpayable",
      "type": "function"
    },
    {
      "inputs": [
        {
          "internalType": "uint256",
          "name": "tokenId",
          "type": "uint256"
        },
        {
          "internalType": "uint8",
          "name": "limitOrderType",
          "type": "uint8"
        }
      ],
      "name": "setLimitOrderType",
      "outputs": [],
      "stateMutability": "payable",
      "type": "function"
    },
    {
      "inputs": [
        {
          "internalType": "address",
          "name": "descriptor",
          "type": "address"
        }
      ],
      "name": "setTokenDescriptor",
      "outputs": [],
      "stateMutability": "nonpayable",
      "type": "function"
    },
    {
      "inputs": [
        {
          "internalType": "address",
          "name": "setter",
          "type": "address"
        }
      ],
      "name": "setTokenDescriptorSetter",
      "outputs": [],
      "stateMutability": "nonpayable",
      "type": "function"
    },
    {
      "inputs": [
        {
          "internalType": "bytes4",
          "name": "interfaceId",
          "type": "bytes4"
        }
      ],
      "name": "supportsInterface",
      "outputs": [
        {
          "internalType": "bool",
          "name": "",
          "type": "bool"
        }
      ],
      "stateMutability": "view",
      "type": "function"
    },
    {
      "inputs": [
        {
          "internalType": "address",
          "name": "tokenIn",
          "type": "address"
        },
        {
          "internalType": "address",
          "name": "",
          "type": "address"
        },
        {
          "internalType": "uint256",
          "name": "amountIn",
          "type": "uint256"
        },
        {
          "internalType": "uint256",
          "name": "",
          "type": "uint256"
        },
        {
          "internalType": "bytes",
          "name": "data",
          "type": "bytes"
        }
      ],
      "name": "swapCallback",
      "outputs": [],
      "stateMutability": "nonpayable",
      "type": "function"
    },
    {
      "inputs": [],
      "name": "symbol",
      "outputs": [
        {
          "internalType": "string",
          "name": "",
          "type": "string"
        }
      ],
      "stateMutability": "view",
      "type": "function"
    },
    {
      "inputs": [],
      "name": "tokenDescriptor",
      "outputs": [
        {
          "internalType": "address",
          "name": "",
          "type": "address"
        }
      ],
      "stateMutability": "view",
      "type": "function"
    },
    {
      "inputs": [],
      "name": "tokenDescriptorSetter",
      "outputs": [
        {
          "internalType": "address",
          "name": "",
          "type": "address"
        }
      ],
      "stateMutability": "view",
      "type": "function"
    },
    {
      "inputs": [
        {
          "internalType": "uint256",
          "name": "tokenId",
          "type": "uint256"
        }
      ],
      "name": "tokenURI",
      "outputs": [
        {
          "internalType": "string",
          "name": "",
          "type": "string"
        }
      ],
      "stateMutability": "view",
      "type": "function"
    },
    {
      "inputs": [],
      "name": "totalSupply",
      "outputs": [
        {
          "internalType": "uint256",
          "name": "",
          "type": "uint256"
        }
      ],
      "stateMutability": "view",
      "type": "function"
    },
    {
      "inputs": [
        {
          "internalType": "address",
          "name": "from",
          "type": "address"
        },
        {
          "internalType": "address",
          "name": "to",
          "type": "address"
        },
        {
          "internalType": "uint256",
          "name": "tokenId",
          "type": "uint256"
        }
      ],
      "name": "transferFrom",
      "outputs": [],
      "stateMutability": "nonpayable",
      "type": "function"
    },
    {
      "inputs": [
        {
          "internalType": "uint256",
          "name": "amountMinimum",
          "type": "uint256"
        },
        {
          "internalType": "address",
          "name": "recipient",
          "type": "address"
        }
      ],
      "name": "unwrapWETH",
      "outputs": [],
      "stateMutability": "payable",
      "type": "function"
    },
    {
      "inputs": [
        {
          "internalType": "address",
          "name": "recipient",
          "type": "address"
        },
        {
          "internalType": "address",
          "name": "token",
          "type": "address"
        },
        {
          "internalType": "uint256",
          "name": "amount",
          "type": "uint256"
        }
      ],
      "name": "withdraw",
      "outputs": [],
      "stateMutability": "payable",
      "type": "function"
    },
    {
      "stateMutability": "payable",
      "type": "receive"
    }
  ],
  "bytecode": "0x60e0604052600a805464ffffffffff191660011790553480156200002257600080fd5b50604051620061bc380380620061bc8339810160408190526200004591620001bd565b604080518082018252601081526f21bab831b0b5b2902837b9b4ba34b7b760811b60208083019182528351808501909452600b84526a43757063616b652d504f5360a81b908401526001600160a01b0380861660a0528416608052815191929183918391620000b791600091620000fa565b508051620000cd906001906020840190620000fa565b5050825160209093019290922060c0525050600680546001600160a01b0319163317905550620002329050565b8280546200010890620001f5565b90600052602060002090601f0160209004810192826200012c576000855562000177565b82601f106200014757805160ff191683800117855562000177565b8280016001018555821562000177579182015b82811115620001775782518255916020019190600101906200015a565b506200018592915062000189565b5090565b5b808211156200018557600081556001016200018a565b80516001600160a01b0381168114620001b857600080fd5b919050565b60008060408385031215620001d157600080fd5b620001dc83620001a0565b9150620001ec60208401620001a0565b90509250929050565b600181811c908216806200020a57607f821691505b602082108114156200022c57634e487b7160e01b600052602260045260246000fd5b50919050565b60805160a05160c051615e9662000326600039600081816105750152611d930152600081816106000152818161108a015281816111f101528181611337015281816114780152818161159f015281816116e40152818161190a015281816119b701528181611b7101528181612407015281816125aa01528181612a5901528181612bea0152818161306101528181613094015281816133ea0152818161357901528181613dc001528181613e6701528181613f2d015261403801526000818161033d0152818161069a015281816131570152818161325101528181613cdb01528181613d210152613def0152615e966000f3fe60806040526004361061032d5760003560e01c806370a08231116101a5578063b88d4fde116100ec578063d9caed1211610095578063eb02c3011161006f578063eb02c30114610af3578063f0db800c14610bb9578063f3995c6714610c1a578063f5a9817514610c2d57600080fd5b8063d9caed1214610a84578063e16d9ce514610a97578063e985e9c514610aaa57600080fd5b8063c87b56dd116100c6578063c87b56dd14610a14578063ce3fa4dd14610a34578063d9899ff014610a7157600080fd5b8063b88d4fde146108ea578063bb01881a1461090a578063c2814b0c1461092a57600080fd5b8063a22cb4651161014e578063ae4bf64b11610128578063ae4bf64b14610897578063b6dc7ea3146108b7578063b80f55c9146108d757600080fd5b8063a22cb46514610844578063a73970cf14610864578063ac9650d81461087757600080fd5b80638340f5491161017f5780638340f549146107f55780638c0e83491461080857806395d89b411461082f57600080fd5b806370a08231146107825780637ac2ff7b146107a25780637c2d10fd146107b557600080fd5b80633644e515116102745780634aa4a4fc1161021d5780635325261c116101f75780635325261c146106fc5780635a9d7a681461072f5780635dd582041461074f5780636352211e1461076257600080fd5b80634aa4a4fc146106885780634f594557146106bc57806351149742146106dc57600080fd5b806342842e0e1161024e57806342842e0e1461063557806345fc75ad146106555780634659a4941461067557600080fd5b80633644e51514610539578063365a86fc146105ee5780633b0812141461062257600080fd5b806318160ddd116102d65780632e85d3ae116102b05780632e85d3ae146104a85780632f8bc1ec146104bb57806330adf81f1461050557600080fd5b806318160ddd1461046057806323b872dd146104755780632809a6591461049557600080fd5b8063095ea7b311610307578063095ea7b3146103fd57806312210e8a1461041d578063141a468c1461042557600080fd5b806301ffc9a71461036e57806306fdde03146103a3578063081812fc146103c557600080fd5b3661036957336001600160a01b037f0000000000000000000000000000000000000000000000000000000000000000161461036757600080fd5b005b600080fd5b34801561037a57600080fd5b5061038e610389366004614db8565b610c40565b60405190151581526020015b60405180910390f35b3480156103af57600080fd5b506103b8610d25565b60405161039a9190614e2d565b3480156103d157600080fd5b506103e56103e0366004614e40565b610db7565b6040516001600160a01b03909116815260200161039a565b34801561040957600080fd5b50610367610418366004614e6e565b610e62565b610367610f94565b34801561043157600080fd5b50610452610440366004614e40565b60076020526000908152604090205481565b60405190815260200161039a565b34801561046c57600080fd5b50610452610fa6565b34801561048157600080fd5b50610367610490366004614e9a565b610ff5565b6104526104a3366004614ee9565b61107c565b6104526104b6366004614ee9565b6111e3565b3480156104c757600080fd5b506104ef6104d6366004614e40565b600c6020526000908152604090205464ffffffffff1681565b60405164ffffffffff909116815260200161039a565b34801561051157600080fd5b506104527f49ecf333e5b8c95c40fdafc95c1ad136e8914a8fb55e9dc8bb01eaa83a2df9ad81565b34801561054557600080fd5b50610452604080517f8b73c3c69bb8fe3d512ecc4cf759cc79239f7b179b0ffacaa9a75d522b39400f60208201527f0000000000000000000000000000000000000000000000000000000000000000918101919091527fc89efdaa54c0f20c7adf612882df0950f5a951637e0307cdcb4c672f298b8bc660608201524660808201523060a082015260009060c00160405160208183030381529060405280519060200120905090565b3480156105fa57600080fd5b506103e57f000000000000000000000000000000000000000000000000000000000000000081565b610367610630366004614fb0565b611333565b34801561064157600080fd5b50610367610650366004614e9a565b611579565b34801561066157600080fd5b50610367610670366004615055565b611594565b6103676106833660046150e0565b6115e5565b34801561069457600080fd5b506103e57f000000000000000000000000000000000000000000000000000000000000000081565b3480156106c857600080fd5b506103676106d736600461513c565b611693565b3480156106e857600080fd5b506103676106f7366004615055565b6116d9565b61070f61070a366004615159565b611749565b60408051948552602085019390935291830152606082015260800161039a565b34801561073b57600080fd5b506005546103e5906001600160a01b031681565b61036761075d36600461516b565b611b2c565b34801561076e57600080fd5b506103e561077d366004614e40565b611bed565b34801561078e57600080fd5b5061045261079d36600461513c565b611c78565b6103676107b03660046150e0565b611d12565b6107c86107c33660046151b3565b612176565b604080519485526bffffffffffffffffffffffff909316602085015291830152606082015260800161039a565b610367610803366004614e9a565b612405565b34801561081457600080fd5b506008546fffffffffffffffffffffffffffffffff16610452565b34801561083b57600080fd5b506103b86124aa565b34801561085057600080fd5b5061036761085f3660046151c6565b6124b9565b6104526108723660046151ff565b61259c565b61088a6108853660046152dd565b612764565b60405161039a919061531f565b3480156108a357600080fd5b506006546103e5906001600160a01b031681565b3480156108c357600080fd5b506103676108d236600461513c565b612882565b6103676108e53660046152dd565b6128c8565b3480156108f657600080fd5b5061036761090536600461540e565b612b51565b34801561091657600080fd5b506103676109253660046154bd565b612bdf565b34801561093657600080fd5b506109d0610945366004614e40565b6009602052600090815260409020546001600160a01b0381169064ffffffffff740100000000000000000000000000000000000000008204169060ff790100000000000000000000000000000000000000000000000000820416907a0100000000000000000000000000000000000000000000000000008104600290810b91600160e81b9004900b85565b604080516001600160a01b03909616865264ffffffffff909416602086015260ff90921692840192909252600291820b6060840152900b608082015260a00161039a565b348015610a2057600080fd5b506103b8610a2f366004614e40565b612c30565b610a47610a42366004615519565b612d4c565b604080516bffffffffffffffffffffffff909416845260208401929092529082015260600161039a565b610367610a7f36600461552b565b612efd565b610367610a92366004614e9a565b613092565b610367610aa5366004615550565b613126565b348015610ab657600080fd5b5061038e610ac5366004615575565b6001600160a01b03918216600090815260046020908152604080832093909416825291909152205460ff1690565b348015610aff57600080fd5b50610b13610b0e366004614e40565b6132bf565b604080516001600160a01b039889168152968816602080890191909152979095168686015260ff938416606080880191909152600293840b6080808901919091529290930b60a087015280516bffffffffffffffffffffffff1660c08701529586015169ffffffffffffffffffff90811660e087015293860151909316610100850152840151166101208301529091015163ffffffff166101408201526101600161039a565b348015610bc557600080fd5b50610bfa610bd43660046155a3565b600b60205260009081526040902080546001909101546001600160a01b03918216911682565b604080516001600160a01b0393841681529290911660208301520161039a565b610367610c283660046150e0565b6134fb565b610452610c3b3660046151ff565b61356b565b60007fffffffff0000000000000000000000000000000000000000000000000000000082167f80ac58cd000000000000000000000000000000000000000000000000000000001480610cd357507fffffffff0000000000000000000000000000000000000000000000000000000082167f5b5e139f00000000000000000000000000000000000000000000000000000000145b80610d1f57507f01ffc9a7000000000000000000000000000000000000000000000000000000007fffffffff000000000000000000000000000000000000000000000000000000008316145b92915050565b606060008054610d34906155ca565b80601f0160208091040260200160405190810160405280929190818152602001828054610d60906155ca565b8015610dad5780601f10610d8257610100808354040283529160200191610dad565b820191906000526020600020905b815481529060010190602001808311610d9057829003601f168201915b5050505050905090565b6000818152600960205260408120546001600160a01b0316610e465760405162461bcd60e51b815260206004820152602c60248201527f4552433732313a20617070726f76656420717565727920666f72206e6f6e657860448201527f697374656e7420746f6b656e000000000000000000000000000000000000000060648201526084015b60405180910390fd5b506000908152600360205260409020546001600160a01b031690565b6000610e6d82611bed565b9050806001600160a01b0316836001600160a01b03161415610ef75760405162461bcd60e51b815260206004820152602160248201527f4552433732313a20617070726f76616c20746f2063757272656e74206f776e6560448201527f72000000000000000000000000000000000000000000000000000000000000006064820152608401610e3d565b336001600160a01b0382161480610f135750610f138133610ac5565b610f855760405162461bcd60e51b815260206004820152603860248201527f4552433732313a20617070726f76652063616c6c6572206973206e6f74206f7760448201527f6e6572206e6f7220617070726f76656420666f7220616c6c00000000000000006064820152608401610e3d565b610f8f838361371d565b505050565b4715610fa457610fa43347613798565b565b600854600090610fde906fffffffffffffffffffffffffffffffff700100000000000000000000000000000000820481169116615615565b6fffffffffffffffffffffffffffffffff16905090565b610fff33826137dd565b6110715760405162461bcd60e51b815260206004820152603160248201527f4552433732313a207472616e736665722063616c6c6572206973206e6f74206f60448201527f776e6572206e6f7220617070726f7665640000000000000000000000000000006064820152608401610e3d565b610f8f8383836138e5565b60008161108881613adb565b7f00000000000000000000000000000000000000000000000000000000000000006001600160a01b0316632ec31fbc8c8c8c6110c38d613b18565b6110cc90615646565b896110d7578b6110d9565b305b8a6110e55760006110ee565b6110ee8d613b4e565b8c6110fa576000611103565b61110333613b4e565b60408051336020820152016040516020818303038152906040526040518963ffffffff1660e01b815260040161114098979695949392919061567f565b60408051808303816000875af115801561115e573d6000803e3d6000fd5b505050506040513d601f19601f8201168201806040525081019061118291906156db565b509150868211156111d55760405162461bcd60e51b815260206004820152601260248201527f544f4f5f4d5543485f52455155455354454400000000000000000000000000006044820152606401610e3d565b509998505050505050505050565b6000816111ef81613adb565b7f00000000000000000000000000000000000000000000000000000000000000006001600160a01b0316632ec31fbc8c8c8c61122a8d613b18565b89611235578b611237565b305b8a61124357600061124c565b61124c8d613b4e565b8c611258576000611261565b61126133613b4e565b60408051336020820152016040516020818303038152906040526040518963ffffffff1660e01b815260040161129e98979695949392919061567f565b60408051808303816000875af11580156112bc573d6000803e3d6000fd5b505050506040513d601f19601f820116820180604052508101906112e091906156db565b925050868210156111d55760405162461bcd60e51b815260206004820152601360248201527f544f4f5f4c4954544c455f5245434549564544000000000000000000000000006044820152606401610e3d565b60007f00000000000000000000000000000000000000000000000000000000000000006001600160a01b031663aa5976c16113a18787604080516001600160a01b03938416602080830191909152929093168382015280518084038201815260609093019052815191012090565b6040518263ffffffff1660e01b81526004016113bf91815260200190565b6040805180830381865afa1580156113db573d6000803e3d6000fd5b505050506040513d601f19601f820116820180604052508101906113ff91906156ff565b50905060ff81166115675761143c33866108036a64000000000000000000006fffffffffffffffffffffffffffffffff8716808204910615150190565b61147633856108036114616fffffffffffffffffffffffffffffffff8716606461572e565b68010000000000000000808204910615150190565b7f00000000000000000000000000000000000000000000000000000000000000006001600160a01b031663775dfc82868686866114b233613b4e565b6040517fffffffff0000000000000000000000000000000000000000000000000000000060e088901b1681526001600160a01b03958616600482015294909316602485015262ffffff90911660448401526fffffffffffffffffffffffffffffffff166064830152608482015260a4016020604051808303816000875af1158015611541573d6000803e3d6000fd5b505050506040513d601f19601f82011682018060405250810190611565919061574d565b505b6115718585613baa565b505050505050565b610f8f83838360405180602001604052806000815250612b51565b336001600160a01b037f000000000000000000000000000000000000000000000000000000000000000016146115c957600080fd5b831561157157611571866115df8385018561513c565b86613cd9565b6040517f8fcbaf0c00000000000000000000000000000000000000000000000000000000815233600482015230602482015260448101869052606481018590526001608482015260ff841660a482015260c4810183905260e481018290526001600160a01b03871690638fcbaf0c90610104015b600060405180830381600087803b15801561167357600080fd5b505af1158015611687573d6000803e3d6000fd5b50505050505050505050565b6006546001600160a01b031633146116aa57600080fd5b6006805473ffffffffffffffffffffffffffffffffffffffff19166001600160a01b0392909216919091179055565b336001600160a01b037f0000000000000000000000000000000000000000000000000000000000000000161461170e57600080fd5b600061171c8284018461513c565b9050841561172f5761172f878287613cd9565b831561174057611740868286613cd9565b50505050505050565b6000808080843561175981613e8c565b85356000908152600960209081526040808320815160a0808201845291546001600160a01b03808216835264ffffffffff7401000000000000000000000000000000000000000083041683870181905260ff790100000000000000000000000000000000000000000000000000840481168588019081527a0100000000000000000000000000000000000000000000000000008504600290810b6060808901918252600160e81b909704820b6080808a01918252958d52600b8c528a8d208b51808d018d52815489168152600191909101548816818e019081528c5161012081018e5282518a1681529051909816888e01529351909416868b015251810b95850195909552905190930b90820152919590949093919283019161188191908d01908d01615780565b6bffffffffffffffffffffffff1681526020018a6000013581526020016118ab8560000151613b4e565b81526020016118c060c08c0160a08d0161579d565b1515905290506118d660e08a0160c08b0161579d565b611987576040517fdec980ec0000000000000000000000000000000000000000000000000000000081526001600160a01b037f0000000000000000000000000000000000000000000000000000000000000000169063dec980ec9061193f9084906004016157ba565b6080604051808303816000875af115801561195e573d6000803e3d6000fd5b505050506040513d601f19601f82011682018060405250810190611982919061586d565b611a2f565b6040517fadcef3680000000000000000000000000000000000000000000000000000000081526001600160a01b037f0000000000000000000000000000000000000000000000000000000000000000169063adcef368906119ec9084906004016157ba565b6080604051808303816000875af1158015611a0b573d6000803e3d6000fd5b505050506040513d601f19601f82011682018060405250810190611a2f919061586d565b929a509098509650945060408901358810801590611a51575088606001358710155b611a9d5760405162461bcd60e51b815260206004820152600e60248201527f507269636520736c6970706167650000000000000000000000000000000000006044820152606401610e3d565b6000611aaf60a08b0160808c0161513c565b6001600160a01b031614611b21576000611ac9878a6158a3565b90506000611ad7878a6158a3565b90508115611afa57611afa611af260a08d0160808e0161513c565b855184613092565b8015611b1e57611b1e611b1360a08d0160808e0161513c565b856020015183613092565b50505b505050509193509193565b604080513360208083019190915282518083039091018152818301928390527faaa9acd2000000000000000000000000000000000000000000000000000000009092527f00000000000000000000000000000000000000000000000000000000000000006001600160a01b03169163aaa9acd291611bb5918891889188918891906044016158bb565b600060405180830381600087803b158015611bcf57600080fd5b505af1158015611be3573d6000803e3d6000fd5b5050505050505050565b6000818152600960205260408120546001600160a01b031680610d1f5760405162461bcd60e51b815260206004820152602960248201527f4552433732313a206f776e657220717565727920666f72206e6f6e657869737460448201527f656e7420746f6b656e00000000000000000000000000000000000000000000006064820152608401610e3d565b60006001600160a01b038216611cf65760405162461bcd60e51b815260206004820152602a60248201527f4552433732313a2062616c616e636520717565727920666f7220746865207a6560448201527f726f2061646472657373000000000000000000000000000000000000000000006064820152608401610e3d565b506001600160a01b031660009081526002602052604090205490565b42841015611d625760405162461bcd60e51b815260206004820152600e60248201527f5065726d697420457870697265640000000000000000000000000000000000006044820152606401610e3d565b6000611e0c604080517f8b73c3c69bb8fe3d512ecc4cf759cc79239f7b179b0ffacaa9a75d522b39400f60208201527f0000000000000000000000000000000000000000000000000000000000000000918101919091527fc89efdaa54c0f20c7adf612882df0950f5a951637e0307cdcb4c672f298b8bc660608201524660808201523060a082015260009060c00160405160208183030381529060405280519060200120905090565b600087815260076020526040812080547f49ecf333e5b8c95c40fdafc95c1ad136e8914a8fb55e9dc8bb01eaa83a2df9ad928b928b9291611e4c836158f3565b909155506040805160208101959095526001600160a01b03909316928401929092526060830152608082015260a0810187905260c00160405160208183030381529060405280519060200120604051602001611eda9291907f190100000000000000000000000000000000000000000000000000000000000081526002810192909252602282015260420190565b6040516020818303038152906040528051906020012090506000611efd87611bed565b9050803b1561205257604080516020810186905280820185905260f887901b7fff000000000000000000000000000000000000000000000000000000000000001660608201528151604181830301815260618201928390527f1626ba7e000000000000000000000000000000000000000000000000000000009092526001600160a01b03831691631626ba7e91611f9891869160650161590e565b602060405180830381865afa158015611fb5573d6000803e3d6000fd5b505050506040513d601f19601f82011682018060405250810190611fd99190615927565b7bffffffffffffffffffffffffffffffffffffffffffffffffffffffff1916631626ba7e60e01b1461204d5760405162461bcd60e51b815260206004820152600c60248201527f556e617574686f72697a656400000000000000000000000000000000000000006044820152606401610e3d565b61216c565b6040805160008082526020820180845285905260ff881692820192909252606081018690526080810185905260019060a0016020604051602081039080840390855afa1580156120a6573d6000803e3d6000fd5b5050604051601f1901519150506001600160a01b0381166121095760405162461bcd60e51b815260206004820152601160248201527f496e76616c6964207369676e61747572650000000000000000000000000000006044820152606401610e3d565b816001600160a01b0316816001600160a01b03161461216a5760405162461bcd60e51b815260206004820152600c60248201527f556e617574686f72697a656400000000000000000000000000000000000000006044820152606401610e3d565b505b611be3888861371d565b60008080806121956121906101408701610120880161513c565b613ee2565b935060006040518060a00160405280876101200160208101906121b8919061513c565b6001600160a01b031681526020908101906121ee906121d9908a018a61513c565b6121e960408b0160208c0161513c565b613baa565b64ffffffffff16815260200161220a6060890160408a01615944565b60ff1681526020016122226080890160608a01615970565b60020b815260200161223a60a0890160808a01615970565b60020b9052600086815260096020908152604091829020835181548584015186860151606088015160808901516001600160a01b039095167fffffffffffffff00000000000000000000000000000000000000000000000000909416939093177401000000000000000000000000000000000000000064ffffffffff90931692909202919091177fffffff00000000ffffffffffffffffffffffffffffffffffffffffffffffffff1679010000000000000000000000000000000000000000000000000060ff909216919091027fffffff000000ffffffffffffffffffffffffffffffffffffffffffffffffffff16177a01000000000000000000000000000000000000000000000000000062ffffff92831602177cffffffffffffffffffffffffffffffffffffffffffffffffffffffffff16600160e81b919092160217905581518083019092529192506123f791839190819061239b908b018b61513c565b6001600160a01b031681526020018960200160208101906123bc919061513c565b6001600160a01b0316815250878960a001358a60c001358b60e001358c61010001358d6101400160208101906123f2919061579d565b613f23565b969891975095945092505050565b7f00000000000000000000000000000000000000000000000000000000000000006001600160a01b031663aaa9acd23061243e86613b4e565b6040805133602082015287918791016040516020818303038152906040526040518663ffffffff1660e01b815260040161247c9594939291906158bb565b600060405180830381600087803b15801561249657600080fd5b505af1158015611740573d6000803e3d6000fd5b606060018054610d34906155ca565b6001600160a01b0382163314156125125760405162461bcd60e51b815260206004820152601960248201527f4552433732313a20617070726f766520746f2063616c6c6572000000000000006044820152606401610e3d565b3360008181526004602090815260408083206001600160a01b0387168085529083529281902080547fffffffffffffffffffffffffffffffffffffffffffffffffffffffffffffff001686151590811790915590519081529192917f17307eab39ab6107e8899845ad3d59bd9653f200f220920489ca2b5937696c31910160405180910390a35050565b6000816125a881613adb565b7f00000000000000000000000000000000000000000000000000000000000000006001600160a01b031663c6883ec56040518060c001604052808d8d8080601f0160208091040260200160405190810160405280939291908181526020018383808284376000920191909152505050908252506020016126278c613b18565b61263090615646565b8152602001876126405789612642565b305b6001600160a01b031681526020018761265c576000612665565b6126658a613b4e565b81526020018861267657600061267f565b61267f33613b4e565b8152604080513360208281019190915290920191016040516020818303038152906040528152506040518263ffffffff1660e01b81526004016126c2919061598d565b60408051808303816000875af11580156126e0573d6000803e3d6000fd5b505050506040513d601f19601f8201168201806040525081019061270491906156db565b509150868211156127575760405162461bcd60e51b815260206004820152601260248201527f544f4f5f4d5543485f52455155455354454400000000000000000000000000006044820152606401610e3d565b5098975050505050505050565b60608167ffffffffffffffff81111561277f5761277f61539f565b6040519080825280602002602001820160405280156127b257816020015b606081526020019060019003908161279d5790505b50905060005b8281101561287b57600080308686858181106127d6576127d6615a00565b90506020028101906127e89190615a16565b6040516127f6929190615a7b565b600060405180830381855af49150503d8060008114612831576040519150601f19603f3d011682016040523d82523d6000602084013e612836565b606091505b50915091508161285357805161284b57600080fd5b805181602001fd5b8084848151811061286657612866615a00565b602090810291909101015250506001016127b8565b5092915050565b6006546001600160a01b0316331461289957600080fd5b6005805473ffffffffffffffffffffffffffffffffffffffff19166001600160a01b0392909216919091179055565b60005b81811015610f8f5760008383838181106128e7576128e7615a00565b9050602002013590506128f981613e8c565b6000818152600960209081526040808320815160a0808201845291546001600160a01b03808216835264ffffffffff7401000000000000000000000000000000000000000083041683870181905260ff790100000000000000000000000000000000000000000000000000840481168588019081527a0100000000000000000000000000000000000000000000000000008504600290810b6060808901918252600160e81b909704820b60808901908152948c52600b8b52898c208a51808c018c52815488168082526001909201548816818e018190528c51808f0193909352828d01528b518083038d018152988201808d52895199909d01989098209351915195517fc625e3c300000000000000000000000000000000000000000000000000000000909c52606481019390935230608484015260a483018d905290921660c482015291810b60e48301529690960b61010487015293519195909490937f0000000000000000000000000000000000000000000000000000000000000000169263c625e3c392610124808401938290030181865afa158015612aa0573d6000803e3d6000fd5b505050506040513d601f19601f82011682018060405250810190612ac49190615aa5565b80519091506bffffffffffffffffffffffff1615612b245760405162461bcd60e51b815260206004820152600960248201527f4e4f545f454d50545900000000000000000000000000000000000000000000006044820152606401610e3d565b612b2d846141f0565b50505060009081526009602052604081205580612b49816158f3565b9150506128cb565b612b5b33836137dd565b612bcd5760405162461bcd60e51b815260206004820152603160248201527f4552433732313a207472616e736665722063616c6c6572206973206e6f74206f60448201527f776e6572206e6f7220617070726f7665640000000000000000000000000000006064820152608401610e3d565b612bd9848484846142a4565b50505050565b336001600160a01b037f00000000000000000000000000000000000000000000000000000000000000001614612c1457600080fd5b8215612bd957612bd984612c2a8385018561513c565b85613cd9565b6000818152600960205260409020546060906001600160a01b0316612c975760405162461bcd60e51b815260206004820152600f60248201527f746f6b656e206e6f7420657869737400000000000000000000000000000000006044820152606401610e3d565b6005546001600160a01b0316612cbc5760405180602001604052806000815250610d1f565b6005546040517fe9dc6375000000000000000000000000000000000000000000000000000000008152306004820152602481018490526001600160a01b039091169063e9dc637590604401600060405180830381865afa158015612d24573d6000803e3d6000fd5b505050506040513d6000823e601f3d908101601f19168201604052610d1f9190810190615b42565b600080808335612d5b81613e8c565b600060096000876000013581526020019081526020016000206040518060a00160405290816000820160009054906101000a90046001600160a01b03166001600160a01b03166001600160a01b031681526020016000820160149054906101000a900464ffffffffff1664ffffffffff1664ffffffffff1681526020016000820160199054906101000a900460ff1660ff1660ff16815260200160008201601a9054906101000a900460020b60020b60020b815260200160008201601d9054906101000a900460020b60020b60020b815250509050612eee81600b6000846020015164ffffffffff1664ffffffffff1681526020019081526020016000206040518060400160405290816000820160009054906101000a90046001600160a01b03166001600160a01b03166001600160a01b031681526020016001820160009054906101000a90046001600160a01b03166001600160a01b03166001600160a01b031681525050886000013589602001358a604001358b606001358c608001358d60a00160208101906123f2919061579d565b91989097509095509350505050565b81612f1a576008546fffffffffffffffffffffffffffffffff1691505b612f2382613e8c565b6000828152600960209081526040808320815160a08101835290546001600160a01b03808216835264ffffffffff7401000000000000000000000000000000000000000083041683860181905260ff790100000000000000000000000000000000000000000000000000840481168587019081527a0100000000000000000000000000000000000000000000000000008504600290810b60608801908152600160e81b909604810b60808801908152938a52600b895298879020875180890189528154861680825260019092015486169981018a905291519551935197517f8e9059d600000000000000000000000000000000000000000000000000000000815260048101919091526024810198909852938116604488015290870b60648701529390950b608485015260a4840187905291851660c48401529290917f000000000000000000000000000000000000000000000000000000000000000090911690638e9059d69060e401611bb5565b7f00000000000000000000000000000000000000000000000000000000000000006001600160a01b0316634b2084e3846130cb33613b4e565b6040517fffffffff0000000000000000000000000000000000000000000000000000000060e085901b1681526001600160a01b039283166004820152602481019190915290851660448201526064810184905260840161247c565b6040517f70a082310000000000000000000000000000000000000000000000000000000081523060048201526000907f00000000000000000000000000000000000000000000000000000000000000006001600160a01b0316906370a0823190602401602060405180830381865afa1580156131a6573d6000803e3d6000fd5b505050506040513d601f19601f820116820180604052508101906131ca919061574d565b90508281101561321c5760405162461bcd60e51b815260206004820152601160248201527f496e73756666696369656e7420574554480000000000000000000000000000006044820152606401610e3d565b8015610f8f576040517f2e1a7d4d000000000000000000000000000000000000000000000000000000008152600481018290527f00000000000000000000000000000000000000000000000000000000000000006001600160a01b031690632e1a7d4d90602401600060405180830381600087803b15801561329d57600080fd5b505af11580156132b1573d6000803e3d6000fd5b50505050610f8f8282613798565b6040805160a0810182526000808252602080830182905282840182905260608301829052608083018290528482526009905291822080546001600160a01b03811693928392790100000000000000000000000000000000000000000000000000830460ff16927a0100000000000000000000000000000000000000000000000000008104600290810b93600160e81b909204900b91876133a15760405162461bcd60e51b815260206004820152600a60248201527f4e4f545f455849535453000000000000000000000000000000000000000000006044820152606401610e3d565b805474010000000000000000000000000000000000000000900464ffffffffff166000908152600b60205260409020805460018201546001600160a01b039182169950811697507f00000000000000000000000000000000000000000000000000000000000000001663c625e3c361344c8a8a604080516001600160a01b03938416602080830191909152929093168382015280518084038201815260609093019052815191012090565b6040517fffffffff0000000000000000000000000000000000000000000000000000000060e084901b1681526004810191909152306024820152604481018d905260ff89166064820152600288810b608483015287900b60a482015260c40160a060405180830381865afa1580156134c8573d6000803e3d6000fd5b505050506040513d601f19601f820116820180604052508101906134ec9190615aa5565b92505050919395979092949650565b6040517fd505accf000000000000000000000000000000000000000000000000000000008152336004820152306024820152604481018690526064810185905260ff8416608482015260a4810183905260c481018290526001600160a01b0387169063d505accf9060e401611659565b60008161357781613adb565b7f00000000000000000000000000000000000000000000000000000000000000006001600160a01b031663c6883ec56040518060c001604052808d8d8080601f0160208091040260200160405190810160405280939291908181526020018383808284376000920191909152505050908252506020016135f68c613b18565b8152602001876136065789613608565b305b6001600160a01b031681526020018761362257600061362b565b61362b8a613b4e565b81526020018861363c576000613645565b61364533613b4e565b8152604080513360208281019190915290920191016040516020818303038152906040528152506040518263ffffffff1660e01b8152600401613688919061598d565b60408051808303816000875af11580156136a6573d6000803e3d6000fd5b505050506040513d601f19601f820116820180604052508101906136ca91906156db565b925050868210156127575760405162461bcd60e51b815260206004820152601360248201527f544f4f5f4c4954544c455f5245434549564544000000000000000000000000006044820152606401610e3d565b6000818152600360205260409020805473ffffffffffffffffffffffffffffffffffffffff19166001600160a01b038416908117909155819061375f82611bed565b6001600160a01b03167f8c5be1e5ebec7d5bd14f71427d1e84f3dd0314c0f7b2291e5b200ac8c7c3b92560405160405180910390a45050565b600080600080600085875af1905080610f8f576040517fe293b56b00000000000000000000000000000000000000000000000000000000815260040160405180910390fd5b6000818152600960205260408120546001600160a01b03166138675760405162461bcd60e51b815260206004820152602c60248201527f4552433732313a206f70657261746f7220717565727920666f72206e6f6e657860448201527f697374656e7420746f6b656e00000000000000000000000000000000000000006064820152608401610e3d565b600061387283611bed565b9050806001600160a01b0316846001600160a01b031614806138ad5750836001600160a01b03166138a284610db7565b6001600160a01b0316145b806138dd57506001600160a01b0380821660009081526004602090815260408083209388168352929052205460ff165b949350505050565b826001600160a01b03166138f882611bed565b6001600160a01b0316146139745760405162461bcd60e51b815260206004820152602960248201527f4552433732313a207472616e73666572206f6620746f6b656e2074686174206960448201527f73206e6f74206f776e00000000000000000000000000000000000000000000006064820152608401610e3d565b6001600160a01b0382166139ef5760405162461bcd60e51b8152602060048201526024808201527f4552433732313a207472616e7366657220746f20746865207a65726f2061646460448201527f72657373000000000000000000000000000000000000000000000000000000006064820152608401610e3d565b6139fa83838361432d565b613a0560008261371d565b6001600160a01b0383166000908152600260205260408120805460019290613a2e908490615bb0565b90915550506001600160a01b0382166000908152600260205260408120805460019290613a5c9084906158a3565b90915550506000818152600960205260409020805473ffffffffffffffffffffffffffffffffffffffff19166001600160a01b03841617905580826001600160a01b0316846001600160a01b03167fddf252ad1be2c89b69c2b068fc378daa952ba7f163c4a11628f55a4df523b3ef60405160405180910390a4505050565b80421115613b15576040517f70f65caa00000000000000000000000000000000000000000000000000000000815260040160405180910390fd5b50565b60007f7fffffffffffffffffffffffffffffffffffffffffffffffffffffffffffffff821115613b4a57613b4a615bc7565b5090565b6001600160a01b03811680613ba55760405162461bcd60e51b815260206004820152600f60248201527f5a45524f5f4143435f5245465f494400000000000000000000000000000000006044820152606401610e3d565b919050565b604080516001600160a01b0384811660208084019190915290841682840152825180830384018152606090920183528151918101919091206000818152600c9092529190205464ffffffffff16908161287b57600a805464ffffffffff16906000613c1483615bdd565b82546101009290920a64ffffffffff8181021990931691831602179091556000928352600c6020908152604080852080547fffffffffffffffffffffffffffffffffffffffffffffffffffffff0000000000169385169384179055805180820182526001600160a01b039889168152968816878301908152928552600b9091529092209351845473ffffffffffffffffffffffffffffffffffffffff199081169187169190911785559151600194909401805490921693909416929092179091555090565b7f00000000000000000000000000000000000000000000000000000000000000006001600160a01b0316836001600160a01b0316148015613d1a5750804710155b15613e60577f00000000000000000000000000000000000000000000000000000000000000006001600160a01b031663d0e30db0826040518263ffffffff1660e01b81526004016000604051808303818588803b158015613d7a57600080fd5b505af1158015613d8e573d6000803e3d6000fd5b50506040517fa9059cbb0000000000000000000000000000000000000000000000000000000081526001600160a01b037f000000000000000000000000000000000000000000000000000000000000000081166004830152602482018690527f000000000000000000000000000000000000000000000000000000000000000016935063a9059cbb925060440190506020604051808303816000875af1158015613e3c573d6000803e3d6000fd5b505050506040513d601f19601f82011682018060405250810190612bd99190615c02565b610f8f83837f000000000000000000000000000000000000000000000000000000000000000084614415565b613e9633826137dd565b613b155760405162461bcd60e51b815260206004820152600c60248201527f4e4f545f415050524f56454400000000000000000000000000000000000000006044820152606401610e3d565b600854600090613f05906fffffffffffffffffffffffffffffffff166001615c1f565b6fffffffffffffffffffffffffffffffff169050613ba582826144b5565b60008060006140347f00000000000000000000000000000000000000000000000000000000000000006001600160a01b031663dc657465613f9f8d600001518e60200151604080516001600160a01b03938416602080830191909152929093168382015280518084038201815260609093019052815191012090565b8e604001516040518363ffffffff1660e01b8152600401613fcd92919091825260ff16602082015260400190565b61010060405180830381865afa158015613feb573d6000803e3d6000fd5b505050506040513d601f19601f8201168201806040525081019061400f9190615c74565b602001516140208d6060015161461a565b61402d8e6080015161461a565b8b8b614954565b92507f00000000000000000000000000000000000000000000000000000000000000006001600160a01b0316632fb07eac6040518061014001604052808d600001516001600160a01b031681526020018d602001516001600160a01b031681526020018e6040015160ff1681526020018e6060015160020b81526020018e6080015160020b8152602001866bffffffffffffffffffffffff168152602001306001600160a01b031681526020018c8152602001876140f35760006140fc565b6140fc33613b4e565b8152604080513360208281019190915290920191016040516020818303038152906040528152506040518263ffffffff1660e01b815260040161413f9190615d3e565b60408051808303816000875af115801561415d573d6000803e3d6000fd5b505050506040513d601f19601f8201168201806040525081019061418191906156db565b90925090508582108015906141965750848110155b6141e25760405162461bcd60e51b815260206004820152600e60248201527f507269636520736c6970706167650000000000000000000000000000000000006044820152606401610e3d565b985098509895505050505050565b60006141fb82611bed565b90506142098160008461432d565b61421460008361371d565b6001600160a01b038116600090815260026020526040812080546001929061423d908490615bb0565b9091555050600082815260096020526040808220805473ffffffffffffffffffffffffffffffffffffffff19169055518391906001600160a01b038416907fddf252ad1be2c89b69c2b068fc378daa952ba7f163c4a11628f55a4df523b3ef908390a45050565b6142af8484846138e5565b6142bb84848484614adc565b612bd95760405162461bcd60e51b815260206004820152603260248201527f4552433732313a207472616e7366657220746f206e6f6e20455243373231526560448201527f63656976657220696d706c656d656e74657200000000000000000000000000006064820152608401610e3d565b6001600160a01b03831661439557600880546fffffffffffffffffffffffffffffffff1690600061435d83615e11565b91906101000a8154816fffffffffffffffffffffffffffffffff02191690836fffffffffffffffffffffffffffffffff160217905550505b6001600160a01b038216610f8f576008805470010000000000000000000000000000000090046fffffffffffffffffffffffffffffffff169060106143d983615e11565b91906101000a8154816fffffffffffffffffffffffffffffffff02191690836fffffffffffffffffffffffffffffffff16021790555050505050565b60006040517f23b872dd0000000000000000000000000000000000000000000000000000000081526001600160a01b03851660048201526001600160a01b038416602482015282604482015260008060648360008a5af191505061447881614c72565b6144ae576040517fa83c475400000000000000000000000000000000000000000000000000000000815260040160405180910390fd5b5050505050565b6001600160a01b03821661450b5760405162461bcd60e51b815260206004820181905260248201527f4552433732313a206d696e7420746f20746865207a65726f20616464726573736044820152606401610e3d565b6000818152600960205260409020546001600160a01b0316156145705760405162461bcd60e51b815260206004820152601c60248201527f4552433732313a20746f6b656e20616c7265616479206d696e746564000000006044820152606401610e3d565b61457c6000838361432d565b6001600160a01b03821660009081526002602052604081208054600192906145a59084906158a3565b90915550506000818152600960205260409020805473ffffffffffffffffffffffffffffffffffffffff19166001600160a01b03841617905560405181906001600160a01b038416906000907fddf252ad1be2c89b69c2b068fc378daa952ba7f163c4a11628f55a4df523b3ef908290a45050565b6000600282900b7ffffffffffffffffffffffffffffffffffffffffffffffffffffffffffff42755138015906146575750620bd8ab600283900b13155b61466057600080fd5b6000808360020b126146725782614677565b826000035b62ffffff8116915070010000000000000000000000000000000090600116156146b0576ffffcb933bd6fad37aa2d162d1a5940010260801c5b60028216156146cf576ffff97272373d413259a46990580e213a0260801c5b60048216156146ee576ffff2e50f5f656932ef12357cf3c7fdcc0260801c5b600882161561470d576fffe5caca7e10e4e61c3624eaa0941cd00260801c5b601082161561472c576fffcb9843d60f6159c9db58835c9266440260801c5b602082161561474b576fff973b41fa98c081472e6896dfb254c00260801c5b604082161561476a576fff2ea16466c96a3843ec78b326b528610260801c5b6080821615614789576ffe5dee046a99a2a811c461f1969c30530260801c5b6101008216156147a9576ffcbe86c7900a88aedcffc83b479aa3a40260801c5b6102008216156147c9576ff987a7253ac413176f2b074cf7815e540260801c5b6104008216156147e9576ff3392b0822b70005940c7a398e4b70f30260801c5b610800821615614809576fe7159475a2c29b7443b29c7fa6e889d90260801c5b611000821615614829576fd097f3bdfd2022b8845ad8f792aa58250260801c5b612000821615614849576fa9f746462d870fdf8a65dc1f90e061e50260801c5b614000821615614869576f70d869a156d2a1b890bb3df62baf32f70260801c5b618000821615614889576f31be135f97d08fd981231505542fcfa60260801c5b620100008216156148aa576f09aa508b5b7a84e1c677de54f3e99bc90260801c5b620200008216156148ca576e5d6af8dedb81196699c329225ee6040260801c5b620400008216156148e9576d2216e584f5fa1ea926041bedfe980260801c5b62080000821615614906576b048a170391f7dc42444e8fa20260801c5b60008460020b1261492657806000198161492257614922615e37565b0490505b600067010000000000000082061161493f576000614942565b60015b60ff16603882901c0192505050919050565b600080856fffffffffffffffffffffffffffffffff16876fffffffffffffffffffffffffffffffff16116149da576149d384866fffffffffffffffffffffffffffffffff16886fffffffffffffffffffffffffffffffff160269010000000000000000008989036fffffffffffffffffffffffffffffffff1602614cb7565b9050614ac4565b846fffffffffffffffffffffffffffffffff16876fffffffffffffffffffffffffffffffff1610614a2e576149d38369010000000000000000008888036fffffffffffffffffffffffffffffffff16614cb7565b6000614a8185876fffffffffffffffffffffffffffffffff168a6fffffffffffffffffffffffffffffffff160269010000000000000000008b8a036fffffffffffffffffffffffffffffffff1602614cb7565b90506000614aae8569010000000000000000008a8c036fffffffffffffffffffffffffffffffff16614cb7565b9050808210614abd5780614abf565b815b925050505b614ad1600882901c614d6c565b979650505050505050565b60006001600160a01b0384163b15614c67576040517f150b7a020000000000000000000000000000000000000000000000000000000081526001600160a01b0385169063150b7a0290614b39903390899088908890600401615e4d565b6020604051808303816000875af1925050508015614b74575060408051601f3d908101601f19168201909252614b7191810190615927565b60015b614c1c573d808015614ba2576040519150601f19603f3d011682016040523d82523d6000602084013e614ba7565b606091505b50805161284b5760405162461bcd60e51b815260206004820152603260248201527f4552433732313a207472616e7366657220746f206e6f6e20455243373231526560448201527f63656976657220696d706c656d656e74657200000000000000000000000000006064820152608401610e3d565b7fffffffff00000000000000000000000000000000000000000000000000000000167f150b7a02000000000000000000000000000000000000000000000000000000001490506138dd565b506001949350505050565b600081614c83573d6000803e3d6000fd5b3d60208114614c9b578015614cac5760009150614cb1565b3d6000803e60005115159150614cb1565b600191505b50919050565b600080806000198587098587029250828110838203039150508060001415614cf15760008411614ce657600080fd5b508290049050614d65565b808411614cfd57600080fd5b600084868809851960019081018716968790049682860381900495909211909303600082900391909104909201919091029190911760038402600290811880860282030280860282030280860282030280860282030280860282030280860290910302029150505b9392505050565b60006bffffffffffffffffffffffff821115613b4a57613b4a615bc7565b7fffffffff0000000000000000000000000000000000000000000000000000000081168114613b1557600080fd5b600060208284031215614dca57600080fd5b8135614d6581614d8a565b60005b83811015614df0578181015183820152602001614dd8565b83811115612bd95750506000910152565b60008151808452614e19816020860160208601614dd5565b601f01601f19169290920160200192915050565b602081526000614d656020830184614e01565b600060208284031215614e5257600080fd5b5035919050565b6001600160a01b0381168114613b1557600080fd5b60008060408385031215614e8157600080fd5b8235614e8c81614e59565b946020939093013593505050565b600080600060608486031215614eaf57600080fd5b8335614eba81614e59565b92506020840135614eca81614e59565b929592945050506040919091013590565b8015158114613b1557600080fd5b60008060008060008060008060006101208a8c031215614f0857600080fd5b8935614f1381614e59565b985060208a0135614f2381614e59565b975060408a0135965060608a0135955060808a0135945060a08a0135614f4881614e59565b935060c08a0135614f5881614edb565b925060e08a0135614f6881614edb565b809250506101008a013590509295985092959850929598565b62ffffff81168114613b1557600080fd5b6fffffffffffffffffffffffffffffffff81168114613b1557600080fd5b60008060008060808587031215614fc657600080fd5b8435614fd181614e59565b93506020850135614fe181614e59565b92506040850135614ff181614f81565b9150606085013561500181614f92565b939692955090935050565b60008083601f84011261501e57600080fd5b50813567ffffffffffffffff81111561503657600080fd5b60208301915083602082850101111561504e57600080fd5b9250929050565b60008060008060008060a0878903121561506e57600080fd5b863561507981614e59565b9550602087013561508981614e59565b94506040870135935060608701359250608087013567ffffffffffffffff8111156150b357600080fd5b6150bf89828a0161500c565b979a9699509497509295939492505050565b60ff81168114613b1557600080fd5b60008060008060008060c087890312156150f957600080fd5b863561510481614e59565b955060208701359450604087013593506060870135615122816150d1565b9598949750929560808101359460a0909101359350915050565b60006020828403121561514e57600080fd5b8135614d6581614e59565b600060e08284031215614cb157600080fd5b6000806000806080858703121561518157600080fd5b843561518c81614e59565b93506020850135925060408501356151a381614e59565b9396929550929360600135925050565b60006101608284031215614cb157600080fd5b600080604083850312156151d957600080fd5b82356151e481614e59565b915060208301356151f481614edb565b809150509250929050565b60008060008060008060008060e0898b03121561521b57600080fd5b883567ffffffffffffffff81111561523257600080fd5b61523e8b828c0161500c565b9099509750506020890135955060408901359450606089013561526081614e59565b9350608089013561527081614edb565b925060a089013561528081614edb565b8092505060c089013590509295985092959890939650565b60008083601f8401126152aa57600080fd5b50813567ffffffffffffffff8111156152c257600080fd5b6020830191508360208260051b850101111561504e57600080fd5b600080602083850312156152f057600080fd5b823567ffffffffffffffff81111561530757600080fd5b61531385828601615298565b90969095509350505050565b6000602080830181845280855180835260408601915060408160051b870101925083870160005b82811015615392577fffffffffffffffffffffffffffffffffffffffffffffffffffffffffffffffc0888603018452615380858351614e01565b94509285019290850190600101615346565b5092979650505050505050565b634e487b7160e01b600052604160045260246000fd5b604051601f8201601f1916810167ffffffffffffffff811182821017156153de576153de61539f565b604052919050565b600067ffffffffffffffff8211156154005761540061539f565b50601f01601f191660200190565b6000806000806080858703121561542457600080fd5b843561542f81614e59565b9350602085013561543f81614e59565b925060408501359150606085013567ffffffffffffffff81111561546257600080fd5b8501601f8101871361547357600080fd5b8035615486615481826153e6565b6153b5565b81815288602083850101111561549b57600080fd5b8160208401602083013760006020838301015280935050505092959194509250565b600080600080606085870312156154d357600080fd5b84356154de81614e59565b935060208501359250604085013567ffffffffffffffff81111561550157600080fd5b61550d8782880161500c565b95989497509550505050565b600060c08284031215614cb157600080fd5b6000806040838503121561553e57600080fd5b8235915060208301356151f4816150d1565b6000806040838503121561556357600080fd5b8235915060208301356151f481614e59565b6000806040838503121561558857600080fd5b823561559381614e59565b915060208301356151f481614e59565b6000602082840312156155b557600080fd5b813564ffffffffff81168114614d6557600080fd5b600181811c908216806155de57607f821691505b60208210811415614cb157634e487b7160e01b600052602260045260246000fd5b634e487b7160e01b600052601160045260246000fd5b60006fffffffffffffffffffffffffffffffff8381169083168181101561563e5761563e6155ff565b039392505050565b60007f8000000000000000000000000000000000000000000000000000000000000000821415615678576156786155ff565b5060000390565b60006101006001600160a01b03808c168452808b1660208501528960408501528860608501528088166080850152508560a08401528460c08401528060e08401526156cc81840185614e01565b9b9a5050505050505050505050565b600080604083850312156156ee57600080fd5b505080516020909101519092909150565b6000806040838503121561571257600080fd5b825161571d816150d1565b60208401519092506151f4816150d1565b6000816000190483118215151615615748576157486155ff565b500290565b60006020828403121561575f57600080fd5b5051919050565b6bffffffffffffffffffffffff81168114613b1557600080fd5b60006020828403121561579257600080fd5b8135614d6581615766565b6000602082840312156157af57600080fd5b8135614d6581614edb565b6000610120820190506001600160a01b038084511683528060208501511660208401525060408301516157f2604084018260ff169052565b506060830151615807606084018260020b9052565b50608083015161581c608084018260020b9052565b5060a083015161583c60a08401826bffffffffffffffffffffffff169052565b5060c083015160c083015260e083015160e0830152610100808401516158658285018215159052565b505092915050565b6000806000806080858703121561588357600080fd5b505082516020840151604085015160609095015191969095509092509050565b600082198211156158b6576158b66155ff565b500190565b60006001600160a01b03808816835286602084015280861660408401525083606083015260a06080830152614ad160a0830184614e01565b6000600019821415615907576159076155ff565b5060010190565b8281526040602082015260006138dd6040830184614e01565b60006020828403121561593957600080fd5b8151614d6581614d8a565b60006020828403121561595657600080fd5b8135614d65816150d1565b8060020b8114613b1557600080fd5b60006020828403121561598257600080fd5b8135614d6581615961565b602081526000825160c060208401526159a960e0840182614e01565b9050602084015160408401526001600160a01b03604085015116606084015260608401516080840152608084015160a084015260a0840151601f198483030160c08501526159f78282614e01565b95945050505050565b634e487b7160e01b600052603260045260246000fd5b60008083357fffffffffffffffffffffffffffffffffffffffffffffffffffffffffffffffe1843603018112615a4b57600080fd5b83018035915067ffffffffffffffff821115615a6657600080fd5b60200191503681900382131561504e57600080fd5b8183823760009101908152919050565b805169ffffffffffffffffffff81168114613ba557600080fd5b600060a08284031215615ab757600080fd5b60405160a0810181811067ffffffffffffffff82111715615ada57615ada61539f565b6040528251615ae881615766565b8152615af660208401615a8b565b6020820152615b0760408401615a8b565b60408201526060830151615b1a816150d1565b6060820152608083015163ffffffff81168114615b3657600080fd5b60808201529392505050565b600060208284031215615b5457600080fd5b815167ffffffffffffffff811115615b6b57600080fd5b8201601f81018413615b7c57600080fd5b8051615b8a615481826153e6565b818152856020838501011115615b9f57600080fd5b6159f7826020830160208601614dd5565b600082821015615bc257615bc26155ff565b500390565b634e487b7160e01b600052600160045260246000fd5b600064ffffffffff80831681811415615bf857615bf86155ff565b6001019392505050565b600060208284031215615c1457600080fd5b8151614d6581614edb565b60006fffffffffffffffffffffffffffffffff808316818516808303821115615c4a57615c4a6155ff565b01949350505050565b8051613ba581614f92565b8051613ba581614f81565b8051613ba581615961565b6000610100808385031215615c8857600080fd5b6040519081019067ffffffffffffffff82118183101715615cab57615cab61539f565b8160405283519150615cbc82614f92565b818152615ccb60208501615c53565b6020820152615cdc60408501615c5e565b6040820152615ced60608501615c69565b6060820152615cfe60808501615c69565b6080820152615d0f60a08501615c69565b60a0820152615d2060c08501615a8b565b60c0820152615d3160e08501615a8b565b60e0820152949350505050565b60208152615d586020820183516001600160a01b03169052565b60006020830151615d7460408401826001600160a01b03169052565b50604083015160ff81166060840152506060830151615d98608084018260020b9052565b506080830151615dad60a084018260020b9052565b5060a08301516bffffffffffffffffffffffff811660c08401525060c08301516001600160a01b03811660e08401525060e08301516101008381019190915283015161012080840191909152830151610140808401526138dd610160840182614e01565b60006fffffffffffffffffffffffffffffffff80831681811415615bf857615bf86155ff565b634e487b7160e01b600052601260045260246000fd5b60006001600160a01b03808716835280861660208401525083604083015260806060830152615e7f6080830184614e01565b969550505050505056fea164736f6c634300080a000a",
  "linkReferences": {},
  "deployedLinkReferences": {}
}